{
  "_format": "hh-sol-artifact-1",
  "contractName": "Token",
  "sourceName": "contracts/Token.sol",
  "abi": [
    {
      "inputs": [
        {
          "internalType": "string",
          "name": "name_",
          "type": "string"
        },
        {
          "internalType": "string",
          "name": "symbol_",
          "type": "string"
        },
        {
          "internalType": "address[]",
          "name": "admins_",
          "type": "address[]"
        }
      ],
      "stateMutability": "nonpayable",
      "type": "constructor"
    },
    {
      "anonymous": false,
      "inputs": [
        {
          "indexed": true,
          "internalType": "address",
          "name": "owner",
          "type": "address"
        },
        {
          "indexed": true,
          "internalType": "address",
          "name": "spender",
          "type": "address"
        },
        {
          "indexed": false,
          "internalType": "uint256",
          "name": "value",
          "type": "uint256"
        }
      ],
      "name": "Approval",
      "type": "event"
    },
    {
      "anonymous": false,
      "inputs": [
        {
          "indexed": true,
          "internalType": "address",
          "name": "from",
          "type": "address"
        },
        {
          "indexed": true,
          "internalType": "address",
          "name": "to",
          "type": "address"
        },
        {
          "indexed": false,
          "internalType": "uint256",
          "name": "value",
          "type": "uint256"
        }
      ],
      "name": "Transfer",
      "type": "event"
    },
    {
      "inputs": [
        {
          "internalType": "address",
          "name": "",
          "type": "address"
        }
      ],
      "name": "admins",
      "outputs": [
        {
          "internalType": "bool",
          "name": "",
          "type": "bool"
        }
      ],
      "stateMutability": "view",
      "type": "function"
    },
    {
      "inputs": [
        {
          "internalType": "address",
          "name": "owner",
          "type": "address"
        },
        {
          "internalType": "address",
          "name": "spender",
          "type": "address"
        }
      ],
      "name": "allowance",
      "outputs": [
        {
          "internalType": "uint256",
          "name": "",
          "type": "uint256"
        }
      ],
      "stateMutability": "view",
      "type": "function"
    },
    {
      "inputs": [
        {
          "internalType": "address",
          "name": "spender",
          "type": "address"
        },
        {
          "internalType": "uint256",
          "name": "amount",
          "type": "uint256"
        }
      ],
      "name": "approve",
      "outputs": [
        {
          "internalType": "bool",
          "name": "",
          "type": "bool"
        }
      ],
      "stateMutability": "nonpayable",
      "type": "function"
    },
    {
      "inputs": [
        {
          "internalType": "address",
          "name": "account",
          "type": "address"
        }
      ],
      "name": "balanceOf",
      "outputs": [
        {
          "internalType": "uint256",
          "name": "",
          "type": "uint256"
        }
      ],
      "stateMutability": "view",
      "type": "function"
    },
    {
      "inputs": [
        {
          "internalType": "address",
          "name": "account",
          "type": "address"
        },
        {
          "internalType": "bool",
          "name": "isAllowed",
          "type": "bool"
        }
      ],
      "name": "changeAdmin",
      "outputs": [],
      "stateMutability": "nonpayable",
      "type": "function"
    },
    {
      "inputs": [],
      "name": "decimals",
      "outputs": [
        {
          "internalType": "uint8",
          "name": "",
          "type": "uint8"
        }
      ],
      "stateMutability": "view",
      "type": "function"
    },
    {
      "inputs": [
        {
          "internalType": "address",
          "name": "spender",
          "type": "address"
        },
        {
          "internalType": "uint256",
          "name": "subtractedValue",
          "type": "uint256"
        }
      ],
      "name": "decreaseAllowance",
      "outputs": [
        {
          "internalType": "bool",
          "name": "",
          "type": "bool"
        }
      ],
      "stateMutability": "nonpayable",
      "type": "function"
    },
    {
      "inputs": [
        {
          "internalType": "address",
          "name": "spender",
          "type": "address"
        },
        {
          "internalType": "uint256",
          "name": "addedValue",
          "type": "uint256"
        }
      ],
      "name": "increaseAllowance",
      "outputs": [
        {
          "internalType": "bool",
          "name": "",
          "type": "bool"
        }
      ],
      "stateMutability": "nonpayable",
      "type": "function"
    },
    {
      "inputs": [
        {
          "internalType": "uint256",
          "name": "amount",
          "type": "uint256"
        }
      ],
      "name": "mintToken",
      "outputs": [],
      "stateMutability": "nonpayable",
      "type": "function"
    },
    {
      "inputs": [],
      "name": "name",
      "outputs": [
        {
          "internalType": "string",
          "name": "",
          "type": "string"
        }
      ],
      "stateMutability": "view",
      "type": "function"
    },
    {
      "inputs": [],
      "name": "symbol",
      "outputs": [
        {
          "internalType": "string",
          "name": "",
          "type": "string"
        }
      ],
      "stateMutability": "view",
      "type": "function"
    },
    {
      "inputs": [],
      "name": "totalSupply",
      "outputs": [
        {
          "internalType": "uint256",
          "name": "",
          "type": "uint256"
        }
      ],
      "stateMutability": "view",
      "type": "function"
    },
    {
      "inputs": [
        {
          "internalType": "address",
          "name": "to",
          "type": "address"
        },
        {
          "internalType": "uint256",
          "name": "amount",
          "type": "uint256"
        }
      ],
      "name": "transfer",
      "outputs": [
        {
          "internalType": "bool",
          "name": "",
          "type": "bool"
        }
      ],
      "stateMutability": "nonpayable",
      "type": "function"
    },
    {
      "inputs": [
        {
          "internalType": "address",
          "name": "from",
          "type": "address"
        },
        {
          "internalType": "address",
          "name": "to",
          "type": "address"
        },
        {
          "internalType": "uint256",
          "name": "amount",
          "type": "uint256"
        }
      ],
      "name": "transferFrom",
      "outputs": [
        {
          "internalType": "bool",
          "name": "",
          "type": "bool"
        }
      ],
      "stateMutability": "nonpayable",
      "type": "function"
    },
    {
      "inputs": [
        {
          "internalType": "address",
          "name": "from",
          "type": "address"
        },
        {
          "internalType": "uint256",
          "name": "amount",
          "type": "uint256"
        },
        {
          "internalType": "bytes",
          "name": "signature",
          "type": "bytes"
        }
      ],
      "name": "transferToBridge",
      "outputs": [],
      "stateMutability": "nonpayable",
      "type": "function"
    }
  ],
  "bytecode": "0x60806040523480156200001157600080fd5b5060405162002dd738038062002dd78339818101604052810190620000379190620005fe565b828281600390816200004a919062000902565b5080600490816200005c919062000902565b50505060005b8151811015620001aa576000828281518110620000845762000083620009e9565b5b602002602001015173ffffffffffffffffffffffffffffffffffffffff163b14620000e6576040517f08c379a0000000000000000000000000000000000000000000000000000000008152600401620000dd9062000a79565b60405180910390fd5b600160056000848481518110620001025762000101620009e9565b5b602002602001015173ffffffffffffffffffffffffffffffffffffffff1673ffffffffffffffffffffffffffffffffffffffff16815260200190815260200160002060006101000a81548160ff02191690831515021790555062000194828281518110620001755762000174620009e9565b5b602002602001015169021e19e0c9bab2400000620001b460201b60201c565b8080620001a19062000aca565b91505062000062565b5050505062000bf2565b600073ffffffffffffffffffffffffffffffffffffffff168273ffffffffffffffffffffffffffffffffffffffff160362000226576040517f08c379a00000000000000000000000000000000000000000000000000000000081526004016200021d9062000b67565b60405180910390fd5b6200023a600083836200032160201b60201c565b80600260008282546200024e919062000b89565b92505081905550806000808473ffffffffffffffffffffffffffffffffffffffff1673ffffffffffffffffffffffffffffffffffffffff168152602001908152602001600020600082825401925050819055508173ffffffffffffffffffffffffffffffffffffffff16600073ffffffffffffffffffffffffffffffffffffffff167fddf252ad1be2c89b69c2b068fc378daa952ba7f163c4a11628f55a4df523b3ef8360405162000301919062000bd5565b60405180910390a36200031d600083836200032660201b60201c565b5050565b505050565b505050565b6000604051905090565b600080fd5b600080fd5b600080fd5b600080fd5b6000601f19601f8301169050919050565b7f4e487b7100000000000000000000000000000000000000000000000000000000600052604160045260246000fd5b620003948262000349565b810181811067ffffffffffffffff82111715620003b657620003b56200035a565b5b80604052505050565b6000620003cb6200032b565b9050620003d9828262000389565b919050565b600067ffffffffffffffff821115620003fc57620003fb6200035a565b5b620004078262000349565b9050602081019050919050565b60005b838110156200043457808201518184015260208101905062000417565b60008484015250505050565b6000620004576200045184620003de565b620003bf565b90508281526020810184848401111562000476576200047562000344565b5b6200048384828562000414565b509392505050565b600082601f830112620004a357620004a26200033f565b5b8151620004b584826020860162000440565b91505092915050565b600067ffffffffffffffff821115620004dc57620004db6200035a565b5b602082029050602081019050919050565b600080fd5b600073ffffffffffffffffffffffffffffffffffffffff82169050919050565b60006200051f82620004f2565b9050919050565b620005318162000512565b81146200053d57600080fd5b50565b600081519050620005518162000526565b92915050565b60006200056e6200056884620004be565b620003bf565b90508083825260208201905060208402830185811115620005945762000593620004ed565b5b835b81811015620005c15780620005ac888262000540565b84526020840193505060208101905062000596565b5050509392505050565b600082601f830112620005e357620005e26200033f565b5b8151620005f584826020860162000557565b91505092915050565b6000806000606084860312156200061a576200061962000335565b5b600084015167ffffffffffffffff8111156200063b576200063a6200033a565b5b62000649868287016200048b565b935050602084015167ffffffffffffffff8111156200066d576200066c6200033a565b5b6200067b868287016200048b565b925050604084015167ffffffffffffffff8111156200069f576200069e6200033a565b5b620006ad86828701620005cb565b9150509250925092565b600081519050919050565b7f4e487b7100000000000000000000000000000000000000000000000000000000600052602260045260246000fd5b600060028204905060018216806200070a57607f821691505b60208210810362000720576200071f620006c2565b5b50919050565b60008190508160005260206000209050919050565b60006020601f8301049050919050565b600082821b905092915050565b6000600883026200078a7fffffffffffffffffffffffffffffffffffffffffffffffffffffffffffffffff826200074b565b6200079686836200074b565b95508019841693508086168417925050509392505050565b6000819050919050565b6000819050919050565b6000620007e3620007dd620007d784620007ae565b620007b8565b620007ae565b9050919050565b6000819050919050565b620007ff83620007c2565b620008176200080e82620007ea565b84845462000758565b825550505050565b600090565b6200082e6200081f565b6200083b818484620007f4565b505050565b5b8181101562000863576200085760008262000824565b60018101905062000841565b5050565b601f821115620008b2576200087c8162000726565b62000887846200073b565b8101602085101562000897578190505b620008af620008a6856200073b565b83018262000840565b50505b505050565b600082821c905092915050565b6000620008d760001984600802620008b7565b1980831691505092915050565b6000620008f28383620008c4565b9150826002028217905092915050565b6200090d82620006b7565b67ffffffffffffffff8111156200092957620009286200035a565b5b620009358254620006f1565b6200094282828562000867565b600060209050601f8311600181146200097a576000841562000965578287015190505b620009718582620008e4565b865550620009e1565b601f1984166200098a8662000726565b60005b82811015620009b4578489015182556001820191506020850194506020810190506200098d565b86831015620009d45784890151620009d0601f891682620008c4565b8355505b6001600288020188555050505b505050505050565b7f4e487b7100000000000000000000000000000000000000000000000000000000600052603260045260246000fd5b600082825260208201905092915050565b7f4f6e6c7920454f412063616e2062652061646d696e0000000000000000000000600082015250565b600062000a6160158362000a18565b915062000a6e8262000a29565b602082019050919050565b6000602082019050818103600083015262000a948162000a52565b9050919050565b7f4e487b7100000000000000000000000000000000000000000000000000000000600052601160045260246000fd5b600062000ad782620007ae565b91507fffffffffffffffffffffffffffffffffffffffffffffffffffffffffffffffff820362000b0c5762000b0b62000a9b565b5b600182019050919050565b7f45524332303a206d696e7420746f20746865207a65726f206164647265737300600082015250565b600062000b4f601f8362000a18565b915062000b5c8262000b17565b602082019050919050565b6000602082019050818103600083015262000b828162000b40565b9050919050565b600062000b9682620007ae565b915062000ba383620007ae565b925082820190508082111562000bbe5762000bbd62000a9b565b5b92915050565b62000bcf81620007ae565b82525050565b600060208201905062000bec600083018462000bc4565b92915050565b6121d58062000c026000396000f3fe608060405234801561001057600080fd5b50600436106100f55760003560e01c806370a0823111610097578063c634d03211610066578063c634d032146102c2578063dc11a496146102de578063dd62ed3e146102fa578063df8ab3301461032a576100f5565b806370a082311461021457806395d89b4114610244578063a457c2d714610262578063a9059cbb14610292576100f5565b806323b872dd116100d357806323b872dd14610166578063313ce5671461019657806339509351146101b4578063429b62e5146101e4576100f5565b806306fdde03146100fa578063095ea7b31461011857806318160ddd14610148575b600080fd5b610102610346565b60405161010f9190611313565b60405180910390f35b610132600480360381019061012d91906113dd565b6103d8565b60405161013f9190611438565b60405180910390f35b6101506103fb565b60405161015d9190611462565b60405180910390f35b610180600480360381019061017b919061147d565b610405565b60405161018d9190611438565b60405180910390f35b61019e610434565b6040516101ab91906114ec565b60405180910390f35b6101ce60048036038101906101c991906113dd565b61043d565b6040516101db9190611438565b60405180910390f35b6101fe60048036038101906101f99190611507565b610474565b60405161020b9190611438565b60405180910390f35b61022e60048036038101906102299190611507565b610494565b60405161023b9190611462565b60405180910390f35b61024c6104dc565b6040516102599190611313565b60405180910390f35b61027c600480360381019061027791906113dd565b61056e565b6040516102899190611438565b60405180910390f35b6102ac60048036038101906102a791906113dd565b6105e5565b6040516102b99190611438565b60405180910390f35b6102dc60048036038101906102d79190611534565b610608565b005b6102f860048036038101906102f3919061158d565b6106a1565b005b610314600480360381019061030f91906115cd565b6107e2565b6040516103219190611462565b60405180910390f35b610344600480360381019061033f9190611742565b610869565b005b606060038054610355906117e0565b80601f0160208091040260200160405190810160405280929190818152602001828054610381906117e0565b80156103ce5780601f106103a3576101008083540402835291602001916103ce565b820191906000526020600020905b8154815290600101906020018083116103b157829003601f168201915b5050505050905090565b6000806103e361091c565b90506103f0818585610924565b600191505092915050565b6000600254905090565b60008061041061091c565b905061041d858285610aed565b610428858585610b79565b60019150509392505050565b60006012905090565b60008061044861091c565b905061046981858561045a85896107e2565b6104649190611840565b610924565b600191505092915050565b60056020528060005260406000206000915054906101000a900460ff1681565b60008060008373ffffffffffffffffffffffffffffffffffffffff1673ffffffffffffffffffffffffffffffffffffffff168152602001908152602001600020549050919050565b6060600480546104eb906117e0565b80601f0160208091040260200160405190810160405280929190818152602001828054610517906117e0565b80156105645780601f1061053957610100808354040283529160200191610564565b820191906000526020600020905b81548152906001019060200180831161054757829003601f168201915b5050505050905090565b60008061057961091c565b9050600061058782866107e2565b9050838110156105cc576040517f08c379a00000000000000000000000000000000000000000000000000000000081526004016105c3906118e6565b60405180910390fd5b6105d98286868403610924565b60019250505092915050565b6000806105f061091c565b90506105fd818585610b79565b600191505092915050565b600560003373ffffffffffffffffffffffffffffffffffffffff1673ffffffffffffffffffffffffffffffffffffffff16815260200190815260200160002060009054906101000a900460ff16610694576040517f08c379a000000000000000000000000000000000000000000000000000000000815260040161068b90611978565b60405180910390fd5b61069e3382610def565b50565b600560003373ffffffffffffffffffffffffffffffffffffffff1673ffffffffffffffffffffffffffffffffffffffff16815260200190815260200160002060009054906101000a900460ff1661072d576040517f08c379a000000000000000000000000000000000000000000000000000000000815260040161072490611978565b60405180910390fd5b60008273ffffffffffffffffffffffffffffffffffffffff163b14610787576040517f08c379a000000000000000000000000000000000000000000000000000000000815260040161077e906119e4565b60405180910390fd5b80600560008473ffffffffffffffffffffffffffffffffffffffff1673ffffffffffffffffffffffffffffffffffffffff16815260200190815260200160002060006101000a81548160ff0219169083151502179055505050565b6000600160008473ffffffffffffffffffffffffffffffffffffffff1673ffffffffffffffffffffffffffffffffffffffff16815260200190815260200160002060008373ffffffffffffffffffffffffffffffffffffffff1673ffffffffffffffffffffffffffffffffffffffff16815260200190815260200160002054905092915050565b60003373ffffffffffffffffffffffffffffffffffffffff163b036108c3576040517f08c379a00000000000000000000000000000000000000000000000000000000081526004016108ba90611a50565b60405180910390fd5b6108cd8382610f45565b61090c576040517f08c379a000000000000000000000000000000000000000000000000000000000815260040161090390611abc565b60405180910390fd5b610917833384610b79565b505050565b600033905090565b600073ffffffffffffffffffffffffffffffffffffffff168373ffffffffffffffffffffffffffffffffffffffff1603610993576040517f08c379a000000000000000000000000000000000000000000000000000000000815260040161098a90611b4e565b60405180910390fd5b600073ffffffffffffffffffffffffffffffffffffffff168273ffffffffffffffffffffffffffffffffffffffff1603610a02576040517f08c379a00000000000000000000000000000000000000000000000000000000081526004016109f990611be0565b60405180910390fd5b80600160008573ffffffffffffffffffffffffffffffffffffffff1673ffffffffffffffffffffffffffffffffffffffff16815260200190815260200160002060008473ffffffffffffffffffffffffffffffffffffffff1673ffffffffffffffffffffffffffffffffffffffff168152602001908152602001600020819055508173ffffffffffffffffffffffffffffffffffffffff168373ffffffffffffffffffffffffffffffffffffffff167f8c5be1e5ebec7d5bd14f71427d1e84f3dd0314c0f7b2291e5b200ac8c7c3b92583604051610ae09190611462565b60405180910390a3505050565b6000610af984846107e2565b90507fffffffffffffffffffffffffffffffffffffffffffffffffffffffffffffffff8114610b735781811015610b65576040517f08c379a0000000000000000000000000000000000000000000000000000000008152600401610b5c90611c4c565b60405180910390fd5b610b728484848403610924565b5b50505050565b600073ffffffffffffffffffffffffffffffffffffffff168373ffffffffffffffffffffffffffffffffffffffff1603610be8576040517f08c379a0000000000000000000000000000000000000000000000000000000008152600401610bdf90611cde565b60405180910390fd5b600073ffffffffffffffffffffffffffffffffffffffff168273ffffffffffffffffffffffffffffffffffffffff1603610c57576040517f08c379a0000000000000000000000000000000000000000000000000000000008152600401610c4e90611d70565b60405180910390fd5b610c62838383610fb9565b60008060008573ffffffffffffffffffffffffffffffffffffffff1673ffffffffffffffffffffffffffffffffffffffff16815260200190815260200160002054905081811015610ce8576040517f08c379a0000000000000000000000000000000000000000000000000000000008152600401610cdf90611e02565b60405180910390fd5b8181036000808673ffffffffffffffffffffffffffffffffffffffff1673ffffffffffffffffffffffffffffffffffffffff16815260200190815260200160002081905550816000808573ffffffffffffffffffffffffffffffffffffffff1673ffffffffffffffffffffffffffffffffffffffff168152602001908152602001600020600082825401925050819055508273ffffffffffffffffffffffffffffffffffffffff168473ffffffffffffffffffffffffffffffffffffffff167fddf252ad1be2c89b69c2b068fc378daa952ba7f163c4a11628f55a4df523b3ef84604051610dd69190611462565b60405180910390a3610de9848484610fbe565b50505050565b600073ffffffffffffffffffffffffffffffffffffffff168273ffffffffffffffffffffffffffffffffffffffff1603610e5e576040517f08c379a0000000000000000000000000000000000000000000000000000000008152600401610e5590611e6e565b60405180910390fd5b610e6a60008383610fb9565b8060026000828254610e7c9190611840565b92505081905550806000808473ffffffffffffffffffffffffffffffffffffffff1673ffffffffffffffffffffffffffffffffffffffff168152602001908152602001600020600082825401925050819055508173ffffffffffffffffffffffffffffffffffffffff16600073ffffffffffffffffffffffffffffffffffffffff167fddf252ad1be2c89b69c2b068fc378daa952ba7f163c4a11628f55a4df523b3ef83604051610f2d9190611462565b60405180910390a3610f4160008383610fbe565b5050565b600080604051602001610f5790611f7d565b6040516020818303038152906040528051906020012090508373ffffffffffffffffffffffffffffffffffffffff16610f998483610fc390919063ffffffff16565b73ffffffffffffffffffffffffffffffffffffffff161491505092915050565b505050565b505050565b6000806000610fd28585610fea565b91509150610fdf8161103b565b819250505092915050565b600080604183510361102b5760008060006020860151925060408601519150606086015160001a905061101f878285856111a1565b94509450505050611034565b60006002915091505b9250929050565b6000600481111561104f5761104e611fa8565b5b81600481111561106257611061611fa8565b5b031561119e576001600481111561107c5761107b611fa8565b5b81600481111561108f5761108e611fa8565b5b036110cf576040517f08c379a00000000000000000000000000000000000000000000000000000000081526004016110c690612023565b60405180910390fd5b600260048111156110e3576110e2611fa8565b5b8160048111156110f6576110f5611fa8565b5b03611136576040517f08c379a000000000000000000000000000000000000000000000000000000000815260040161112d9061208f565b60405180910390fd5b6003600481111561114a57611149611fa8565b5b81600481111561115d5761115c611fa8565b5b0361119d576040517f08c379a000000000000000000000000000000000000000000000000000000000815260040161119490612121565b60405180910390fd5b5b50565b6000807f7fffffffffffffffffffffffffffffff5d576e7357a4501ddfe92f46681b20a08360001c11156111dc57600060039150915061127a565b600060018787878760405160008152602001604052604051611201949392919061215a565b6020604051602081039080840390855afa158015611223573d6000803e3d6000fd5b505050602060405103519050600073ffffffffffffffffffffffffffffffffffffffff168173ffffffffffffffffffffffffffffffffffffffff16036112715760006001925092505061127a565b80600092509250505b94509492505050565b600081519050919050565b600082825260208201905092915050565b60005b838110156112bd5780820151818401526020810190506112a2565b60008484015250505050565b6000601f19601f8301169050919050565b60006112e582611283565b6112ef818561128e565b93506112ff81856020860161129f565b611308816112c9565b840191505092915050565b6000602082019050818103600083015261132d81846112da565b905092915050565b6000604051905090565b600080fd5b600080fd5b600073ffffffffffffffffffffffffffffffffffffffff82169050919050565b600061137482611349565b9050919050565b61138481611369565b811461138f57600080fd5b50565b6000813590506113a18161137b565b92915050565b6000819050919050565b6113ba816113a7565b81146113c557600080fd5b50565b6000813590506113d7816113b1565b92915050565b600080604083850312156113f4576113f361133f565b5b600061140285828601611392565b9250506020611413858286016113c8565b9150509250929050565b60008115159050919050565b6114328161141d565b82525050565b600060208201905061144d6000830184611429565b92915050565b61145c816113a7565b82525050565b60006020820190506114776000830184611453565b92915050565b6000806000606084860312156114965761149561133f565b5b60006114a486828701611392565b93505060206114b586828701611392565b92505060406114c6868287016113c8565b9150509250925092565b600060ff82169050919050565b6114e6816114d0565b82525050565b600060208201905061150160008301846114dd565b92915050565b60006020828403121561151d5761151c61133f565b5b600061152b84828501611392565b91505092915050565b60006020828403121561154a5761154961133f565b5b6000611558848285016113c8565b91505092915050565b61156a8161141d565b811461157557600080fd5b50565b60008135905061158781611561565b92915050565b600080604083850312156115a4576115a361133f565b5b60006115b285828601611392565b92505060206115c385828601611578565b9150509250929050565b600080604083850312156115e4576115e361133f565b5b60006115f285828601611392565b925050602061160385828601611392565b9150509250929050565b600080fd5b600080fd5b7f4e487b7100000000000000000000000000000000000000000000000000000000600052604160045260246000fd5b61164f826112c9565b810181811067ffffffffffffffff8211171561166e5761166d611617565b5b80604052505050565b6000611681611335565b905061168d8282611646565b919050565b600067ffffffffffffffff8211156116ad576116ac611617565b5b6116b6826112c9565b9050602081019050919050565b82818337600083830152505050565b60006116e56116e084611692565b611677565b90508281526020810184848401111561170157611700611612565b5b61170c8482856116c3565b509392505050565b600082601f8301126117295761172861160d565b5b81356117398482602086016116d2565b91505092915050565b60008060006060848603121561175b5761175a61133f565b5b600061176986828701611392565b935050602061177a868287016113c8565b925050604084013567ffffffffffffffff81111561179b5761179a611344565b5b6117a786828701611714565b9150509250925092565b7f4e487b7100000000000000000000000000000000000000000000000000000000600052602260045260246000fd5b600060028204905060018216806117f857607f821691505b60208210810361180b5761180a6117b1565b5b50919050565b7f4e487b7100000000000000000000000000000000000000000000000000000000600052601160045260246000fd5b600061184b826113a7565b9150611856836113a7565b925082820190508082111561186e5761186d611811565b5b92915050565b7f45524332303a2064656372656173656420616c6c6f77616e63652062656c6f7760008201527f207a65726f000000000000000000000000000000000000000000000000000000602082015250565b60006118d060258361128e565b91506118db82611874565b604082019050919050565b600060208201905081810360008301526118ff816118c3565b9050919050565b7f4f6e6c792061646d696e2063616e2063616c6c20746869732066756e6374696f60008201527f6e00000000000000000000000000000000000000000000000000000000000000602082015250565b600061196260218361128e565b915061196d82611906565b604082019050919050565b6000602082019050818103600083015261199181611955565b9050919050565b7f4f6e6c7920454f412063616e2062652061646d696e0000000000000000000000600082015250565b60006119ce60158361128e565b91506119d982611998565b602082019050919050565b600060208201905081810360008301526119fd816119c1565b9050919050565b7f4f6e6c7920636f6e74726163742063616e2063616c6c20746869732066756e63600082015250565b6000611a3a60208361128e565b9150611a4582611a04565b602082019050919050565b60006020820190508181036000830152611a6981611a2d565b9050919050565b7f566572696679206661696c656400000000000000000000000000000000000000600082015250565b6000611aa6600d8361128e565b9150611ab182611a70565b602082019050919050565b60006020820190508181036000830152611ad581611a99565b9050919050565b7f45524332303a20617070726f76652066726f6d20746865207a65726f2061646460008201527f7265737300000000000000000000000000000000000000000000000000000000602082015250565b6000611b3860248361128e565b9150611b4382611adc565b604082019050919050565b60006020820190508181036000830152611b6781611b2b565b9050919050565b7f45524332303a20617070726f766520746f20746865207a65726f20616464726560008201527f7373000000000000000000000000000000000000000000000000000000000000602082015250565b6000611bca60228361128e565b9150611bd582611b6e565b604082019050919050565b60006020820190508181036000830152611bf981611bbd565b9050919050565b7f45524332303a20696e73756666696369656e7420616c6c6f77616e6365000000600082015250565b6000611c36601d8361128e565b9150611c4182611c00565b602082019050919050565b60006020820190508181036000830152611c6581611c29565b9050919050565b7f45524332303a207472616e736665722066726f6d20746865207a65726f20616460008201527f6472657373000000000000000000000000000000000000000000000000000000602082015250565b6000611cc860258361128e565b9150611cd382611c6c565b604082019050919050565b60006020820190508181036000830152611cf781611cbb565b9050919050565b7f45524332303a207472616e7366657220746f20746865207a65726f206164647260008201527f6573730000000000000000000000000000000000000000000000000000000000602082015250565b6000611d5a60238361128e565b9150611d6582611cfe565b604082019050919050565b60006020820190508181036000830152611d8981611d4d565b9050919050565b7f45524332303a207472616e7366657220616d6f756e742065786365656473206260008201527f616c616e63650000000000000000000000000000000000000000000000000000602082015250565b6000611dec60268361128e565b9150611df782611d90565b604082019050919050565b60006020820190508181036000830152611e1b81611ddf565b9050919050565b7f45524332303a206d696e7420746f20746865207a65726f206164647265737300600082015250565b6000611e58601f8361128e565b9150611e6382611e22565b602082019050919050565b60006020820190508181036000830152611e8781611e4b565b9050919050565b600081905092915050565b7f19457468657265756d205369676e6564204d6573736167653a0a000000000000600082015250565b6000611ecf601a83611e8e565b9150611eda82611e99565b601a82019050919050565b7f3134000000000000000000000000000000000000000000000000000000000000600082015250565b6000611f1b600283611e8e565b9150611f2682611ee5565b600282019050919050565b7f566572696679204163636f756e74000000000000000000000000000000000000600082015250565b6000611f67600e83611e8e565b9150611f7282611f31565b600e82019050919050565b6000611f8882611ec2565b9150611f9382611f0e565b9150611f9e82611f5a565b9150819050919050565b7f4e487b7100000000000000000000000000000000000000000000000000000000600052602160045260246000fd5b7f45434453413a20696e76616c6964207369676e61747572650000000000000000600082015250565b600061200d60188361128e565b915061201882611fd7565b602082019050919050565b6000602082019050818103600083015261203c81612000565b9050919050565b7f45434453413a20696e76616c6964207369676e6174757265206c656e67746800600082015250565b6000612079601f8361128e565b915061208482612043565b602082019050919050565b600060208201905081810360008301526120a88161206c565b9050919050565b7f45434453413a20696e76616c6964207369676e6174757265202773272076616c60008201527f7565000000000000000000000000000000000000000000000000000000000000602082015250565b600061210b60228361128e565b9150612116826120af565b604082019050919050565b6000602082019050818103600083015261213a816120fe565b9050919050565b6000819050919050565b61215481612141565b82525050565b600060808201905061216f600083018761214b565b61217c60208301866114dd565b612189604083018561214b565b612196606083018461214b565b9594505050505056fea2646970667358221220eeaafd42f18910e69e20b4b775c5f4a87049ed54cf04935ab71e4ad4b63be67c64736f6c63430008120033",
  "linkReferences": {},
  "deployedLinkReferences": {}
}