{
  "_format": "hh-sol-artifact-1",
  "contractName": "Token",
  "sourceName": "contracts/Token.sol",
  "abi": [
    {
      "inputs": [
        {
          "internalType": "string",
          "name": "name_",
          "type": "string"
        },
        {
          "internalType": "string",
          "name": "symbol_",
          "type": "string"
        },
        {
          "internalType": "address[]",
          "name": "admins_",
          "type": "address[]"
        }
      ],
      "stateMutability": "nonpayable",
      "type": "constructor"
    },
    {
      "anonymous": false,
      "inputs": [
        {
          "indexed": true,
          "internalType": "address",
          "name": "owner",
          "type": "address"
        },
        {
          "indexed": true,
          "internalType": "address",
          "name": "spender",
          "type": "address"
        },
        {
          "indexed": false,
          "internalType": "uint256",
          "name": "value",
          "type": "uint256"
        }
      ],
      "name": "Approval",
      "type": "event"
    },
    {
      "anonymous": false,
      "inputs": [
        {
          "indexed": true,
          "internalType": "address",
          "name": "from",
          "type": "address"
        },
        {
          "indexed": true,
          "internalType": "address",
          "name": "to",
          "type": "address"
        },
        {
          "indexed": false,
          "internalType": "uint256",
          "name": "value",
          "type": "uint256"
        }
      ],
      "name": "Transfer",
      "type": "event"
    },
    {
      "inputs": [
        {
          "internalType": "address",
          "name": "",
          "type": "address"
        }
      ],
      "name": "admins",
      "outputs": [
        {
          "internalType": "bool",
          "name": "",
          "type": "bool"
        }
      ],
      "stateMutability": "view",
      "type": "function"
    },
    {
      "inputs": [
        {
          "internalType": "address",
          "name": "owner",
          "type": "address"
        },
        {
          "internalType": "address",
          "name": "spender",
          "type": "address"
        }
      ],
      "name": "allowance",
      "outputs": [
        {
          "internalType": "uint256",
          "name": "",
          "type": "uint256"
        }
      ],
      "stateMutability": "view",
      "type": "function"
    },
    {
      "inputs": [
        {
          "internalType": "address",
          "name": "spender",
          "type": "address"
        },
        {
          "internalType": "uint256",
          "name": "amount",
          "type": "uint256"
        }
      ],
      "name": "approve",
      "outputs": [
        {
          "internalType": "bool",
          "name": "",
          "type": "bool"
        }
      ],
      "stateMutability": "nonpayable",
      "type": "function"
    },
    {
      "inputs": [
        {
          "internalType": "address",
          "name": "account",
          "type": "address"
        }
      ],
      "name": "balanceOf",
      "outputs": [
        {
          "internalType": "uint256",
          "name": "",
          "type": "uint256"
        }
      ],
      "stateMutability": "view",
      "type": "function"
    },
    {
      "inputs": [
        {
          "internalType": "address",
          "name": "account",
          "type": "address"
        },
        {
          "internalType": "bool",
          "name": "isAllowed",
          "type": "bool"
        }
      ],
      "name": "changeAdmin",
      "outputs": [],
      "stateMutability": "nonpayable",
      "type": "function"
    },
    {
      "inputs": [],
      "name": "decimals",
      "outputs": [
        {
          "internalType": "uint8",
          "name": "",
          "type": "uint8"
        }
      ],
      "stateMutability": "view",
      "type": "function"
    },
    {
      "inputs": [
        {
          "internalType": "address",
          "name": "spender",
          "type": "address"
        },
        {
          "internalType": "uint256",
          "name": "subtractedValue",
          "type": "uint256"
        }
      ],
      "name": "decreaseAllowance",
      "outputs": [
        {
          "internalType": "bool",
          "name": "",
          "type": "bool"
        }
      ],
      "stateMutability": "nonpayable",
      "type": "function"
    },
    {
      "inputs": [
        {
          "internalType": "address",
          "name": "spender",
          "type": "address"
        },
        {
          "internalType": "uint256",
          "name": "addedValue",
          "type": "uint256"
        }
      ],
      "name": "increaseAllowance",
      "outputs": [
        {
          "internalType": "bool",
          "name": "",
          "type": "bool"
        }
      ],
      "stateMutability": "nonpayable",
      "type": "function"
    },
    {
      "inputs": [
        {
          "internalType": "uint256",
          "name": "amount",
          "type": "uint256"
        }
      ],
      "name": "mintToken",
      "outputs": [],
      "stateMutability": "nonpayable",
      "type": "function"
    },
    {
      "inputs": [],
      "name": "name",
      "outputs": [
        {
          "internalType": "string",
          "name": "",
          "type": "string"
        }
      ],
      "stateMutability": "view",
      "type": "function"
    },
    {
      "inputs": [],
      "name": "symbol",
      "outputs": [
        {
          "internalType": "string",
          "name": "",
          "type": "string"
        }
      ],
      "stateMutability": "view",
      "type": "function"
    },
    {
      "inputs": [],
      "name": "totalSupply",
      "outputs": [
        {
          "internalType": "uint256",
          "name": "",
          "type": "uint256"
        }
      ],
      "stateMutability": "view",
      "type": "function"
    },
    {
      "inputs": [
        {
          "internalType": "address",
          "name": "to",
          "type": "address"
        },
        {
          "internalType": "uint256",
          "name": "amount",
          "type": "uint256"
        }
      ],
      "name": "transfer",
      "outputs": [
        {
          "internalType": "bool",
          "name": "",
          "type": "bool"
        }
      ],
      "stateMutability": "nonpayable",
      "type": "function"
    },
    {
      "inputs": [
        {
          "internalType": "address",
          "name": "from",
          "type": "address"
        },
        {
          "internalType": "address",
          "name": "to",
          "type": "address"
        },
        {
          "internalType": "uint256",
          "name": "amount",
          "type": "uint256"
        }
      ],
      "name": "transferFrom",
      "outputs": [
        {
          "internalType": "bool",
          "name": "",
          "type": "bool"
        }
      ],
      "stateMutability": "nonpayable",
      "type": "function"
    }
  ],
  "bytecode": "0x60806040523480156200001157600080fd5b506040516200242d3803806200242d8339818101604052810190620000379190620005fe565b828281600390816200004a919062000902565b5080600490816200005c919062000902565b50505060005b8151811015620001aa576000828281518110620000845762000083620009e9565b5b602002602001015173ffffffffffffffffffffffffffffffffffffffff163b14620000e6576040517f08c379a0000000000000000000000000000000000000000000000000000000008152600401620000dd9062000a79565b60405180910390fd5b600160056000848481518110620001025762000101620009e9565b5b602002602001015173ffffffffffffffffffffffffffffffffffffffff1673ffffffffffffffffffffffffffffffffffffffff16815260200190815260200160002060006101000a81548160ff02191690831515021790555062000194828281518110620001755762000174620009e9565b5b602002602001015169021e19e0c9bab2400000620001b460201b60201c565b8080620001a19062000aca565b91505062000062565b5050505062000bf2565b600073ffffffffffffffffffffffffffffffffffffffff168273ffffffffffffffffffffffffffffffffffffffff160362000226576040517f08c379a00000000000000000000000000000000000000000000000000000000081526004016200021d9062000b67565b60405180910390fd5b6200023a600083836200032160201b60201c565b80600260008282546200024e919062000b89565b92505081905550806000808473ffffffffffffffffffffffffffffffffffffffff1673ffffffffffffffffffffffffffffffffffffffff168152602001908152602001600020600082825401925050819055508173ffffffffffffffffffffffffffffffffffffffff16600073ffffffffffffffffffffffffffffffffffffffff167fddf252ad1be2c89b69c2b068fc378daa952ba7f163c4a11628f55a4df523b3ef8360405162000301919062000bd5565b60405180910390a36200031d600083836200032660201b60201c565b5050565b505050565b505050565b6000604051905090565b600080fd5b600080fd5b600080fd5b600080fd5b6000601f19601f8301169050919050565b7f4e487b7100000000000000000000000000000000000000000000000000000000600052604160045260246000fd5b620003948262000349565b810181811067ffffffffffffffff82111715620003b657620003b56200035a565b5b80604052505050565b6000620003cb6200032b565b9050620003d9828262000389565b919050565b600067ffffffffffffffff821115620003fc57620003fb6200035a565b5b620004078262000349565b9050602081019050919050565b60005b838110156200043457808201518184015260208101905062000417565b60008484015250505050565b6000620004576200045184620003de565b620003bf565b90508281526020810184848401111562000476576200047562000344565b5b6200048384828562000414565b509392505050565b600082601f830112620004a357620004a26200033f565b5b8151620004b584826020860162000440565b91505092915050565b600067ffffffffffffffff821115620004dc57620004db6200035a565b5b602082029050602081019050919050565b600080fd5b600073ffffffffffffffffffffffffffffffffffffffff82169050919050565b60006200051f82620004f2565b9050919050565b620005318162000512565b81146200053d57600080fd5b50565b600081519050620005518162000526565b92915050565b60006200056e6200056884620004be565b620003bf565b90508083825260208201905060208402830185811115620005945762000593620004ed565b5b835b81811015620005c15780620005ac888262000540565b84526020840193505060208101905062000596565b5050509392505050565b600082601f830112620005e357620005e26200033f565b5b8151620005f584826020860162000557565b91505092915050565b6000806000606084860312156200061a576200061962000335565b5b600084015167ffffffffffffffff8111156200063b576200063a6200033a565b5b62000649868287016200048b565b935050602084015167ffffffffffffffff8111156200066d576200066c6200033a565b5b6200067b868287016200048b565b925050604084015167ffffffffffffffff8111156200069f576200069e6200033a565b5b620006ad86828701620005cb565b9150509250925092565b600081519050919050565b7f4e487b7100000000000000000000000000000000000000000000000000000000600052602260045260246000fd5b600060028204905060018216806200070a57607f821691505b60208210810362000720576200071f620006c2565b5b50919050565b60008190508160005260206000209050919050565b60006020601f8301049050919050565b600082821b905092915050565b6000600883026200078a7fffffffffffffffffffffffffffffffffffffffffffffffffffffffffffffffff826200074b565b6200079686836200074b565b95508019841693508086168417925050509392505050565b6000819050919050565b6000819050919050565b6000620007e3620007dd620007d784620007ae565b620007b8565b620007ae565b9050919050565b6000819050919050565b620007ff83620007c2565b620008176200080e82620007ea565b84845462000758565b825550505050565b600090565b6200082e6200081f565b6200083b818484620007f4565b505050565b5b8181101562000863576200085760008262000824565b60018101905062000841565b5050565b601f821115620008b2576200087c8162000726565b62000887846200073b565b8101602085101562000897578190505b620008af620008a6856200073b565b83018262000840565b50505b505050565b600082821c905092915050565b6000620008d760001984600802620008b7565b1980831691505092915050565b6000620008f28383620008c4565b9150826002028217905092915050565b6200090d82620006b7565b67ffffffffffffffff8111156200092957620009286200035a565b5b620009358254620006f1565b6200094282828562000867565b600060209050601f8311600181146200097a576000841562000965578287015190505b620009718582620008e4565b865550620009e1565b601f1984166200098a8662000726565b60005b82811015620009b4578489015182556001820191506020850194506020810190506200098d565b86831015620009d45784890151620009d0601f891682620008c4565b8355505b6001600288020188555050505b505050505050565b7f4e487b7100000000000000000000000000000000000000000000000000000000600052603260045260246000fd5b600082825260208201905092915050565b7f4f6e6c7920454f412063616e2062652061646d696e0000000000000000000000600082015250565b600062000a6160158362000a18565b915062000a6e8262000a29565b602082019050919050565b6000602082019050818103600083015262000a948162000a52565b9050919050565b7f4e487b7100000000000000000000000000000000000000000000000000000000600052601160045260246000fd5b600062000ad782620007ae565b91507fffffffffffffffffffffffffffffffffffffffffffffffffffffffffffffffff820362000b0c5762000b0b62000a9b565b5b600182019050919050565b7f45524332303a206d696e7420746f20746865207a65726f206164647265737300600082015250565b600062000b4f601f8362000a18565b915062000b5c8262000b17565b602082019050919050565b6000602082019050818103600083015262000b828162000b40565b9050919050565b600062000b9682620007ae565b915062000ba383620007ae565b925082820190508082111562000bbe5762000bbd62000a9b565b5b92915050565b62000bcf81620007ae565b82525050565b600060208201905062000bec600083018462000bc4565b92915050565b61182b8062000c026000396000f3fe608060405234801561001057600080fd5b50600436106100ea5760003560e01c806370a082311161008c578063a9059cbb11610066578063a9059cbb14610287578063c634d032146102b7578063dc11a496146102d3578063dd62ed3e146102ef576100ea565b806370a082311461020957806395d89b4114610239578063a457c2d714610257576100ea565b806323b872dd116100c857806323b872dd1461015b578063313ce5671461018b57806339509351146101a9578063429b62e5146101d9576100ea565b806306fdde03146100ef578063095ea7b31461010d57806318160ddd1461013d575b600080fd5b6100f761031f565b6040516101049190610f05565b60405180910390f35b61012760048036038101906101229190610fc0565b6103b1565b604051610134919061101b565b60405180910390f35b6101456103d4565b6040516101529190611045565b60405180910390f35b61017560048036038101906101709190611060565b6103de565b604051610182919061101b565b60405180910390f35b61019361040d565b6040516101a091906110cf565b60405180910390f35b6101c360048036038101906101be9190610fc0565b610416565b6040516101d0919061101b565b60405180910390f35b6101f360048036038101906101ee91906110ea565b61044d565b604051610200919061101b565b60405180910390f35b610223600480360381019061021e91906110ea565b61046d565b6040516102309190611045565b60405180910390f35b6102416104b5565b60405161024e9190610f05565b60405180910390f35b610271600480360381019061026c9190610fc0565b610547565b60405161027e919061101b565b60405180910390f35b6102a1600480360381019061029c9190610fc0565b6105be565b6040516102ae919061101b565b60405180910390f35b6102d160048036038101906102cc9190611117565b6105e1565b005b6102ed60048036038101906102e89190611170565b61067a565b005b610309600480360381019061030491906111b0565b6107bb565b6040516103169190611045565b60405180910390f35b60606003805461032e9061121f565b80601f016020809104026020016040519081016040528092919081815260200182805461035a9061121f565b80156103a75780601f1061037c576101008083540402835291602001916103a7565b820191906000526020600020905b81548152906001019060200180831161038a57829003601f168201915b5050505050905090565b6000806103bc610842565b90506103c981858561084a565b600191505092915050565b6000600254905090565b6000806103e9610842565b90506103f6858285610a13565b610401858585610a9f565b60019150509392505050565b60006012905090565b600080610421610842565b905061044281858561043385896107bb565b61043d919061127f565b61084a565b600191505092915050565b60056020528060005260406000206000915054906101000a900460ff1681565b60008060008373ffffffffffffffffffffffffffffffffffffffff1673ffffffffffffffffffffffffffffffffffffffff168152602001908152602001600020549050919050565b6060600480546104c49061121f565b80601f01602080910402602001604051908101604052809291908181526020018280546104f09061121f565b801561053d5780601f106105125761010080835404028352916020019161053d565b820191906000526020600020905b81548152906001019060200180831161052057829003601f168201915b5050505050905090565b600080610552610842565b9050600061056082866107bb565b9050838110156105a5576040517f08c379a000000000000000000000000000000000000000000000000000000000815260040161059c90611325565b60405180910390fd5b6105b2828686840361084a565b60019250505092915050565b6000806105c9610842565b90506105d6818585610a9f565b600191505092915050565b600560003373ffffffffffffffffffffffffffffffffffffffff1673ffffffffffffffffffffffffffffffffffffffff16815260200190815260200160002060009054906101000a900460ff1661066d576040517f08c379a0000000000000000000000000000000000000000000000000000000008152600401610664906113b7565b60405180910390fd5b6106773382610d15565b50565b600560003373ffffffffffffffffffffffffffffffffffffffff1673ffffffffffffffffffffffffffffffffffffffff16815260200190815260200160002060009054906101000a900460ff16610706576040517f08c379a00000000000000000000000000000000000000000000000000000000081526004016106fd906113b7565b60405180910390fd5b60008273ffffffffffffffffffffffffffffffffffffffff163b14610760576040517f08c379a000000000000000000000000000000000000000000000000000000000815260040161075790611423565b60405180910390fd5b80600560008473ffffffffffffffffffffffffffffffffffffffff1673ffffffffffffffffffffffffffffffffffffffff16815260200190815260200160002060006101000a81548160ff0219169083151502179055505050565b6000600160008473ffffffffffffffffffffffffffffffffffffffff1673ffffffffffffffffffffffffffffffffffffffff16815260200190815260200160002060008373ffffffffffffffffffffffffffffffffffffffff1673ffffffffffffffffffffffffffffffffffffffff16815260200190815260200160002054905092915050565b600033905090565b600073ffffffffffffffffffffffffffffffffffffffff168373ffffffffffffffffffffffffffffffffffffffff16036108b9576040517f08c379a00000000000000000000000000000000000000000000000000000000081526004016108b0906114b5565b60405180910390fd5b600073ffffffffffffffffffffffffffffffffffffffff168273ffffffffffffffffffffffffffffffffffffffff1603610928576040517f08c379a000000000000000000000000000000000000000000000000000000000815260040161091f90611547565b60405180910390fd5b80600160008573ffffffffffffffffffffffffffffffffffffffff1673ffffffffffffffffffffffffffffffffffffffff16815260200190815260200160002060008473ffffffffffffffffffffffffffffffffffffffff1673ffffffffffffffffffffffffffffffffffffffff168152602001908152602001600020819055508173ffffffffffffffffffffffffffffffffffffffff168373ffffffffffffffffffffffffffffffffffffffff167f8c5be1e5ebec7d5bd14f71427d1e84f3dd0314c0f7b2291e5b200ac8c7c3b92583604051610a069190611045565b60405180910390a3505050565b6000610a1f84846107bb565b90507fffffffffffffffffffffffffffffffffffffffffffffffffffffffffffffffff8114610a995781811015610a8b576040517f08c379a0000000000000000000000000000000000000000000000000000000008152600401610a82906115b3565b60405180910390fd5b610a98848484840361084a565b5b50505050565b600073ffffffffffffffffffffffffffffffffffffffff168373ffffffffffffffffffffffffffffffffffffffff1603610b0e576040517f08c379a0000000000000000000000000000000000000000000000000000000008152600401610b0590611645565b60405180910390fd5b600073ffffffffffffffffffffffffffffffffffffffff168273ffffffffffffffffffffffffffffffffffffffff1603610b7d576040517f08c379a0000000000000000000000000000000000000000000000000000000008152600401610b74906116d7565b60405180910390fd5b610b88838383610e6b565b60008060008573ffffffffffffffffffffffffffffffffffffffff1673ffffffffffffffffffffffffffffffffffffffff16815260200190815260200160002054905081811015610c0e576040517f08c379a0000000000000000000000000000000000000000000000000000000008152600401610c0590611769565b60405180910390fd5b8181036000808673ffffffffffffffffffffffffffffffffffffffff1673ffffffffffffffffffffffffffffffffffffffff16815260200190815260200160002081905550816000808573ffffffffffffffffffffffffffffffffffffffff1673ffffffffffffffffffffffffffffffffffffffff168152602001908152602001600020600082825401925050819055508273ffffffffffffffffffffffffffffffffffffffff168473ffffffffffffffffffffffffffffffffffffffff167fddf252ad1be2c89b69c2b068fc378daa952ba7f163c4a11628f55a4df523b3ef84604051610cfc9190611045565b60405180910390a3610d0f848484610e70565b50505050565b600073ffffffffffffffffffffffffffffffffffffffff168273ffffffffffffffffffffffffffffffffffffffff1603610d84576040517f08c379a0000000000000000000000000000000000000000000000000000000008152600401610d7b906117d5565b60405180910390fd5b610d9060008383610e6b565b8060026000828254610da2919061127f565b92505081905550806000808473ffffffffffffffffffffffffffffffffffffffff1673ffffffffffffffffffffffffffffffffffffffff168152602001908152602001600020600082825401925050819055508173ffffffffffffffffffffffffffffffffffffffff16600073ffffffffffffffffffffffffffffffffffffffff167fddf252ad1be2c89b69c2b068fc378daa952ba7f163c4a11628f55a4df523b3ef83604051610e539190611045565b60405180910390a3610e6760008383610e70565b5050565b505050565b505050565b600081519050919050565b600082825260208201905092915050565b60005b83811015610eaf578082015181840152602081019050610e94565b60008484015250505050565b6000601f19601f8301169050919050565b6000610ed782610e75565b610ee18185610e80565b9350610ef1818560208601610e91565b610efa81610ebb565b840191505092915050565b60006020820190508181036000830152610f1f8184610ecc565b905092915050565b600080fd5b600073ffffffffffffffffffffffffffffffffffffffff82169050919050565b6000610f5782610f2c565b9050919050565b610f6781610f4c565b8114610f7257600080fd5b50565b600081359050610f8481610f5e565b92915050565b6000819050919050565b610f9d81610f8a565b8114610fa857600080fd5b50565b600081359050610fba81610f94565b92915050565b60008060408385031215610fd757610fd6610f27565b5b6000610fe585828601610f75565b9250506020610ff685828601610fab565b9150509250929050565b60008115159050919050565b61101581611000565b82525050565b6000602082019050611030600083018461100c565b92915050565b61103f81610f8a565b82525050565b600060208201905061105a6000830184611036565b92915050565b60008060006060848603121561107957611078610f27565b5b600061108786828701610f75565b935050602061109886828701610f75565b92505060406110a986828701610fab565b9150509250925092565b600060ff82169050919050565b6110c9816110b3565b82525050565b60006020820190506110e460008301846110c0565b92915050565b600060208284031215611100576110ff610f27565b5b600061110e84828501610f75565b91505092915050565b60006020828403121561112d5761112c610f27565b5b600061113b84828501610fab565b91505092915050565b61114d81611000565b811461115857600080fd5b50565b60008135905061116a81611144565b92915050565b6000806040838503121561118757611186610f27565b5b600061119585828601610f75565b92505060206111a68582860161115b565b9150509250929050565b600080604083850312156111c7576111c6610f27565b5b60006111d585828601610f75565b92505060206111e685828601610f75565b9150509250929050565b7f4e487b7100000000000000000000000000000000000000000000000000000000600052602260045260246000fd5b6000600282049050600182168061123757607f821691505b60208210810361124a576112496111f0565b5b50919050565b7f4e487b7100000000000000000000000000000000000000000000000000000000600052601160045260246000fd5b600061128a82610f8a565b915061129583610f8a565b92508282019050808211156112ad576112ac611250565b5b92915050565b7f45524332303a2064656372656173656420616c6c6f77616e63652062656c6f7760008201527f207a65726f000000000000000000000000000000000000000000000000000000602082015250565b600061130f602583610e80565b915061131a826112b3565b604082019050919050565b6000602082019050818103600083015261133e81611302565b9050919050565b7f4f6e6c792061646d696e2063616e2063616c6c20746869732066756e6374696f60008201527f6e00000000000000000000000000000000000000000000000000000000000000602082015250565b60006113a1602183610e80565b91506113ac82611345565b604082019050919050565b600060208201905081810360008301526113d081611394565b9050919050565b7f4f6e6c7920454f412063616e2062652061646d696e0000000000000000000000600082015250565b600061140d601583610e80565b9150611418826113d7565b602082019050919050565b6000602082019050818103600083015261143c81611400565b9050919050565b7f45524332303a20617070726f76652066726f6d20746865207a65726f2061646460008201527f7265737300000000000000000000000000000000000000000000000000000000602082015250565b600061149f602483610e80565b91506114aa82611443565b604082019050919050565b600060208201905081810360008301526114ce81611492565b9050919050565b7f45524332303a20617070726f766520746f20746865207a65726f20616464726560008201527f7373000000000000000000000000000000000000000000000000000000000000602082015250565b6000611531602283610e80565b915061153c826114d5565b604082019050919050565b6000602082019050818103600083015261156081611524565b9050919050565b7f45524332303a20696e73756666696369656e7420616c6c6f77616e6365000000600082015250565b600061159d601d83610e80565b91506115a882611567565b602082019050919050565b600060208201905081810360008301526115cc81611590565b9050919050565b7f45524332303a207472616e736665722066726f6d20746865207a65726f20616460008201527f6472657373000000000000000000000000000000000000000000000000000000602082015250565b600061162f602583610e80565b915061163a826115d3565b604082019050919050565b6000602082019050818103600083015261165e81611622565b9050919050565b7f45524332303a207472616e7366657220746f20746865207a65726f206164647260008201527f6573730000000000000000000000000000000000000000000000000000000000602082015250565b60006116c1602383610e80565b91506116cc82611665565b604082019050919050565b600060208201905081810360008301526116f0816116b4565b9050919050565b7f45524332303a207472616e7366657220616d6f756e742065786365656473206260008201527f616c616e63650000000000000000000000000000000000000000000000000000602082015250565b6000611753602683610e80565b915061175e826116f7565b604082019050919050565b6000602082019050818103600083015261178281611746565b9050919050565b7f45524332303a206d696e7420746f20746865207a65726f206164647265737300600082015250565b60006117bf601f83610e80565b91506117ca82611789565b602082019050919050565b600060208201905081810360008301526117ee816117b2565b905091905056fea2646970667358221220a2a77e9e9faf3968532e698303b937fc141c9712ec8c49d7b1854f1447d5a3f364736f6c63430008120033",
  "linkReferences": {},
  "deployedLinkReferences": {}
}