{
    "_format": "hh-sol-artifact-1",
    "contractName": "Bridge",
    "sourceName": "contracts/Bridge.sol",
    "abi": [
        {
            "inputs": [],
            "stateMutability": "nonpayable",
            "type": "constructor"
        },
        {
            "anonymous": false,
            "inputs": [
                {
                    "indexed": false,
                    "internalType": "address",
                    "name": "to",
                    "type": "address"
                }
            ],
            "name": "accepted",
            "type": "event"
        },
        {
            "anonymous": false,
            "inputs": [
                {
                    "indexed": false,
                    "internalType": "address",
                    "name": "from",
                    "type": "address"
                },
                {
                    "indexed": false,
                    "internalType": "uint256",
                    "name": "amount",
                    "type": "uint256"
                }
            ],
            "name": "canceled",
            "type": "event"
        },
        {
            "anonymous": false,
            "inputs": [
                {
                    "indexed": false,
                    "internalType": "address",
                    "name": "from",
                    "type": "address"
                },
                {
                    "indexed": false,
                    "internalType": "address",
                    "name": "to",
                    "type": "address"
                }
            ],
            "name": "swapSuccessfully",
            "type": "event"
        },
        {
            "inputs": [
                {
                    "internalType": "string",
                    "name": "txId",
                    "type": "string"
                }
            ],
            "name": "accept",
            "outputs": [],
            "stateMutability": "nonpayable",
            "type": "function"
        },
        {
            "inputs": [
                {
                    "internalType": "string",
                    "name": "id",
                    "type": "string"
                },
                {
                    "internalType": "address",
                    "name": "tokenFrom",
                    "type": "address"
                },
                {
                    "internalType": "address",
                    "name": "tokenTo",
                    "type": "address"
                },
                {
                    "internalType": "uint256",
                    "name": "amountFrom",
                    "type": "uint256"
                },
                {
                    "internalType": "uint256",
                    "name": "amountTo",
                    "type": "uint256"
                },
                {
                    "internalType": "uint256",
                    "name": "timelock",
                    "type": "uint256"
                }
            ],
            "name": "createTx",
            "outputs": [
                {
                    "internalType": "bool",
                    "name": "",
                    "type": "bool"
                }
            ],
            "stateMutability": "nonpayable",
            "type": "function"
        },
        {
            "inputs": [
                {
                    "internalType": "string",
                    "name": "txId",
                    "type": "string"
                }
            ],
            "name": "refund",
            "outputs": [],
            "stateMutability": "nonpayable",
            "type": "function"
        },
        {
            "inputs": [
                {
                    "internalType": "string",
                    "name": "id",
                    "type": "string"
                }
            ],
            "name": "txInfo",
            "outputs": [
                {
                    "components": [
                        {
                            "internalType": "address",
                            "name": "from",
                            "type": "address"
                        },
                        {
                            "internalType": "address",
                            "name": "to",
                            "type": "address"
                        },
                        {
                            "internalType": "contract Token",
                            "name": "token_from",
                            "type": "address"
                        },
                        {
                            "internalType": "contract Token",
                            "name": "token_to",
                            "type": "address"
                        },
                        {
                            "internalType": "uint256",
                            "name": "amount_from",
                            "type": "uint256"
                        },
                        {
                            "internalType": "uint256",
                            "name": "amount_to",
                            "type": "uint256"
                        },
                        {
                            "internalType": "uint256",
                            "name": "timelock",
                            "type": "uint256"
                        },
                        {
                            "internalType": "bool",
                            "name": "completed",
                            "type": "bool"
                        },
                        {
                            "internalType": "bool",
                            "name": "refunded",
                            "type": "bool"
                        }
                    ],
                    "internalType": "struct Bridge.LockContract",
                    "name": "",
                    "type": "tuple"
                }
            ],
            "stateMutability": "view",
            "type": "function"
        }
    ],
    "bytecode": "0x608060405234801561001057600080fd5b50611b99806100206000396000f3fe608060405234801561001057600080fd5b506004361061004c5760003560e01c80630fba4ca1146100515780638436e5881461006d578063adb6715b1461009d578063fe5f2e88146100cd575b600080fd5b61006b6004803603810190610066919061120e565b6100e9565b005b610087600480360381019061008291906112eb565b61047d565b60405161009491906113af565b60405180910390f35b6100b760048036038101906100b2919061120e565b61090d565b6040516100c4919061150d565b60405180910390f35b6100e760048036038101906100e2919061120e565b610af2565b005b600080826040516100fa919061159a565b90815260200160405180910390209050600073ffffffffffffffffffffffffffffffffffffffff168160000160009054906101000a900473ffffffffffffffffffffffffffffffffffffffff1673ffffffffffffffffffffffffffffffffffffffff160361019d576040517f08c379a00000000000000000000000000000000000000000000000000000000081526004016101949061160e565b60405180910390fd5b600115158160070160009054906101000a900460ff161515141580156101d95750600115158160070160019054906101000a900460ff16151514155b610218576040517f08c379a000000000000000000000000000000000000000000000000000000000815260040161020f9061167a565b60405180910390fd5b600073ffffffffffffffffffffffffffffffffffffffff168160010160009054906101000a900473ffffffffffffffffffffffffffffffffffffffff1673ffffffffffffffffffffffffffffffffffffffff16146102ab576040517f08c379a00000000000000000000000000000000000000000000000000000000081526004016102a29061170c565b60405180910390fd5b3373ffffffffffffffffffffffffffffffffffffffff168160000160009054906101000a900473ffffffffffffffffffffffffffffffffffffffff1673ffffffffffffffffffffffffffffffffffffffff160361033d576040517f08c379a000000000000000000000000000000000000000000000000000000000815260040161033490611778565b60405180910390fd5b338160010160006101000a81548173ffffffffffffffffffffffffffffffffffffffff021916908373ffffffffffffffffffffffffffffffffffffffff1602179055508060030160009054906101000a900473ffffffffffffffffffffffffffffffffffffffff1673ffffffffffffffffffffffffffffffffffffffff16631a8142278260010160009054906101000a900473ffffffffffffffffffffffffffffffffffffffff1683600501546040518363ffffffff1660e01b81526004016104079291906117b6565b600060405180830381600087803b15801561042157600080fd5b505af1158015610435573d6000803e3d6000fd5b505050507f2b34af70e30813d7b7a628409070438e306803bb43ccb083bdca13c4708c16e13360405161046891906117df565b60405180910390a161047982610db3565b5050565b60008073ffffffffffffffffffffffffffffffffffffffff166000886040516104a6919061159a565b908152602001604051809103902060000160009054906101000a900473ffffffffffffffffffffffffffffffffffffffff1673ffffffffffffffffffffffffffffffffffffffff161461052e576040517f08c379a000000000000000000000000000000000000000000000000000000000815260040161052590611846565b60405180910390fd5b8473ffffffffffffffffffffffffffffffffffffffff168673ffffffffffffffffffffffffffffffffffffffff160361059c576040517f08c379a0000000000000000000000000000000000000000000000000000000008152600401610593906118d8565b60405180910390fd5b6040518061012001604052803373ffffffffffffffffffffffffffffffffffffffff168152602001600073ffffffffffffffffffffffffffffffffffffffff1681526020018773ffffffffffffffffffffffffffffffffffffffff1681526020018673ffffffffffffffffffffffffffffffffffffffff16815260200185815260200184815260200183610e106106339190611927565b4261063e9190611969565b815260200160001515815260200160001515815250600088604051610663919061159a565b908152602001604051809103902060008201518160000160006101000a81548173ffffffffffffffffffffffffffffffffffffffff021916908373ffffffffffffffffffffffffffffffffffffffff16021790555060208201518160010160006101000a81548173ffffffffffffffffffffffffffffffffffffffff021916908373ffffffffffffffffffffffffffffffffffffffff16021790555060408201518160020160006101000a81548173ffffffffffffffffffffffffffffffffffffffff021916908373ffffffffffffffffffffffffffffffffffffffff16021790555060608201518160030160006101000a81548173ffffffffffffffffffffffffffffffffffffffff021916908373ffffffffffffffffffffffffffffffffffffffff1602179055506080820151816004015560a0820151816005015560c0820151816006015560e08201518160070160006101000a81548160ff0219169083151502179055506101008201518160070160016101000a81548160ff0219169083151502179055509050506000876040516107ff919061159a565b908152602001604051809103902060020160009054906101000a900473ffffffffffffffffffffffffffffffffffffffff1673ffffffffffffffffffffffffffffffffffffffff16631a81422760008960405161085c919061159a565b908152602001604051809103902060000160009054906101000a900473ffffffffffffffffffffffffffffffffffffffff1660008a60405161089e919061159a565b9081526020016040518091039020600401546040518363ffffffff1660e01b81526004016108cd9291906117b6565b600060405180830381600087803b1580156108e757600080fd5b505af11580156108fb573d6000803e3d6000fd5b50505050600190509695505050505050565b61091561100c565b600082604051610925919061159a565b9081526020016040518091039020604051806101200160405290816000820160009054906101000a900473ffffffffffffffffffffffffffffffffffffffff1673ffffffffffffffffffffffffffffffffffffffff1673ffffffffffffffffffffffffffffffffffffffff1681526020016001820160009054906101000a900473ffffffffffffffffffffffffffffffffffffffff1673ffffffffffffffffffffffffffffffffffffffff1673ffffffffffffffffffffffffffffffffffffffff1681526020016002820160009054906101000a900473ffffffffffffffffffffffffffffffffffffffff1673ffffffffffffffffffffffffffffffffffffffff1673ffffffffffffffffffffffffffffffffffffffff1681526020016003820160009054906101000a900473ffffffffffffffffffffffffffffffffffffffff1673ffffffffffffffffffffffffffffffffffffffff1673ffffffffffffffffffffffffffffffffffffffff1681526020016004820154815260200160058201548152602001600682015481526020016007820160009054906101000a900460ff161515151581526020016007820160019054906101000a900460ff1615151515815250509050919050565b60008082604051610b03919061159a565b90815260200160405180910390209050600015158160070160009054906101000a900460ff161515148015610b4d5750600015158160070160019054906101000a900460ff161515145b610b8c576040517f08c379a0000000000000000000000000000000000000000000000000000000008152600401610b83906119e9565b60405180910390fd5b600073ffffffffffffffffffffffffffffffffffffffff168160010160009054906101000a900473ffffffffffffffffffffffffffffffffffffffff1673ffffffffffffffffffffffffffffffffffffffff1614610c1f576040517f08c379a0000000000000000000000000000000000000000000000000000000008152600401610c1690611a55565b60405180910390fd5b4281600601541115610c66576040517f08c379a0000000000000000000000000000000000000000000000000000000008152600401610c5d90611ac1565b60405180910390fd5b8060020160009054906101000a900473ffffffffffffffffffffffffffffffffffffffff1673ffffffffffffffffffffffffffffffffffffffff1663a9059cbb8260000160009054906101000a900473ffffffffffffffffffffffffffffffffffffffff1683600401546040518363ffffffff1660e01b8152600401610ced9291906117b6565b6020604051808303816000875af1158015610d0c573d6000803e3d6000fd5b505050506040513d601f19601f82011682018060405250810190610d309190611b0d565b5060018160070160016101000a81548160ff0219169083151502179055507fb0fff5d2b17a855b0a22a0965386bcf2f7a8a364c81497c7ea721f3b771ba47e8160000160009054906101000a900473ffffffffffffffffffffffffffffffffffffffff168260040154604051610da79291906117b6565b60405180910390a15050565b60008082604051610dc4919061159a565b908152602001604051809103902090508060020160009054906101000a900473ffffffffffffffffffffffffffffffffffffffff1673ffffffffffffffffffffffffffffffffffffffff1663a9059cbb8260010160009054906101000a900473ffffffffffffffffffffffffffffffffffffffff1683600401546040518363ffffffff1660e01b8152600401610e5b9291906117b6565b6020604051808303816000875af1158015610e7a573d6000803e3d6000fd5b505050506040513d601f19601f82011682018060405250810190610e9e9190611b0d565b508060030160009054906101000a900473ffffffffffffffffffffffffffffffffffffffff1673ffffffffffffffffffffffffffffffffffffffff1663a9059cbb8260000160009054906101000a900473ffffffffffffffffffffffffffffffffffffffff1683600501546040518363ffffffff1660e01b8152600401610f269291906117b6565b6020604051808303816000875af1158015610f45573d6000803e3d6000fd5b505050506040513d601f19601f82011682018060405250810190610f699190611b0d565b5060018160070160006101000a81548160ff0219169083151502179055507ff3a9de3f7cadf3689ab03d27d33dd4557931b14d2fcae0c066f1bfe97cbb47488160000160009054906101000a900473ffffffffffffffffffffffffffffffffffffffff168260010160009054906101000a900473ffffffffffffffffffffffffffffffffffffffff16604051611000929190611b3a565b60405180910390a15050565b604051806101200160405280600073ffffffffffffffffffffffffffffffffffffffff168152602001600073ffffffffffffffffffffffffffffffffffffffff168152602001600073ffffffffffffffffffffffffffffffffffffffff168152602001600073ffffffffffffffffffffffffffffffffffffffff1681526020016000815260200160008152602001600081526020016000151581526020016000151581525090565b6000604051905090565b600080fd5b600080fd5b600080fd5b600080fd5b6000601f19601f8301169050919050565b7f4e487b7100000000000000000000000000000000000000000000000000000000600052604160045260246000fd5b61111b826110d2565b810181811067ffffffffffffffff8211171561113a576111396110e3565b5b80604052505050565b600061114d6110b4565b90506111598282611112565b919050565b600067ffffffffffffffff821115611179576111786110e3565b5b611182826110d2565b9050602081019050919050565b82818337600083830152505050565b60006111b16111ac8461115e565b611143565b9050828152602081018484840111156111cd576111cc6110cd565b5b6111d884828561118f565b509392505050565b600082601f8301126111f5576111f46110c8565b5b813561120584826020860161119e565b91505092915050565b600060208284031215611224576112236110be565b5b600082013567ffffffffffffffff811115611242576112416110c3565b5b61124e848285016111e0565b91505092915050565b600073ffffffffffffffffffffffffffffffffffffffff82169050919050565b600061128282611257565b9050919050565b61129281611277565b811461129d57600080fd5b50565b6000813590506112af81611289565b92915050565b6000819050919050565b6112c8816112b5565b81146112d357600080fd5b50565b6000813590506112e5816112bf565b92915050565b60008060008060008060c08789031215611308576113076110be565b5b600087013567ffffffffffffffff811115611326576113256110c3565b5b61133289828a016111e0565b965050602061134389828a016112a0565b955050604061135489828a016112a0565b945050606061136589828a016112d6565b935050608061137689828a016112d6565b92505060a061138789828a016112d6565b9150509295509295509295565b60008115159050919050565b6113a981611394565b82525050565b60006020820190506113c460008301846113a0565b92915050565b6113d381611277565b82525050565b6000819050919050565b60006113fe6113f96113f484611257565b6113d9565b611257565b9050919050565b6000611410826113e3565b9050919050565b600061142282611405565b9050919050565b61143281611417565b82525050565b611441816112b5565b82525050565b61145081611394565b82525050565b6101208201600082015161146d60008501826113ca565b50602082015161148060208501826113ca565b5060408201516114936040850182611429565b5060608201516114a66060850182611429565b5060808201516114b96080850182611438565b5060a08201516114cc60a0850182611438565b5060c08201516114df60c0850182611438565b5060e08201516114f260e0850182611447565b50610100820151611507610100850182611447565b50505050565b6000610120820190506115236000830184611456565b92915050565b600081519050919050565b600081905092915050565b60005b8381101561155d578082015181840152602081019050611542565b60008484015250505050565b600061157482611529565b61157e8185611534565b935061158e81856020860161153f565b80840191505092915050565b60006115a68284611569565b915081905092915050565b600082825260208201905092915050565b7f54686973207472616e73616374696f6e20646f65736e27742065786973747300600082015250565b60006115f8601f836115b1565b9150611603826115c2565b602082019050919050565b60006020820190508181036000830152611627816115eb565b9050919050565b7f54686973207472616e73616374696f6e20686173206265656e20646f6e650000600082015250565b6000611664601e836115b1565b915061166f8261162e565b602082019050919050565b6000602082019050818103600083015261169381611657565b9050919050565b7f54686973207472616e73616374696f6e20686173206265656e2061636365707460008201527f656420627920616e6f7468657220757365720000000000000000000000000000602082015250565b60006116f66032836115b1565b91506117018261169a565b604082019050919050565b60006020820190508181036000830152611725816116e9565b9050919050565b7f43616e27742061636365707420627920796f75722073656c6621203d29290000600082015250565b6000611762601e836115b1565b915061176d8261172c565b602082019050919050565b6000602082019050818103600083015261179181611755565b9050919050565b6117a181611277565b82525050565b6117b0816112b5565b82525050565b60006040820190506117cb6000830185611798565b6117d860208301846117a7565b9392505050565b60006020820190506117f46000830184611798565b92915050565b7f4475706c6963617465207472616e73616374696f6e2062792069640000000000600082015250565b6000611830601b836115b1565b915061183b826117fa565b602082019050919050565b6000602082019050818103600083015261185f81611823565b9050919050565b7f4f6e6c792073776170206265747765656e2074776f20646966666572656e742060008201527f746f6b656e000000000000000000000000000000000000000000000000000000602082015250565b60006118c26025836115b1565b91506118cd82611866565b604082019050919050565b600060208201905081810360008301526118f1816118b5565b9050919050565b7f4e487b7100000000000000000000000000000000000000000000000000000000600052601160045260246000fd5b6000611932826112b5565b915061193d836112b5565b925082820261194b816112b5565b91508282048414831517611962576119616118f8565b5b5092915050565b6000611974826112b5565b915061197f836112b5565b9250828201905080821115611997576119966118f8565b5b92915050565b7f43616e277420726566756e640000000000000000000000000000000000000000600082015250565b60006119d3600c836115b1565b91506119de8261199d565b602082019050919050565b60006020820190508181036000830152611a02816119c6565b9050919050565b7f5472616e73616374696f6e20697320696e2070726f6772657373000000000000600082015250565b6000611a3f601a836115b1565b9150611a4a82611a09565b602082019050919050565b60006020820190508181036000830152611a6e81611a32565b9050919050565b7f546f6f206561726c7920746f20726566756e6400000000000000000000000000600082015250565b6000611aab6013836115b1565b9150611ab682611a75565b602082019050919050565b60006020820190508181036000830152611ada81611a9e565b9050919050565b611aea81611394565b8114611af557600080fd5b50565b600081519050611b0781611ae1565b92915050565b600060208284031215611b2357611b226110be565b5b6000611b3184828501611af8565b91505092915050565b6000604082019050611b4f6000830185611798565b611b5c6020830184611798565b939250505056fea264697066735822122004c91df2d0562005bc424eadc1020a5b2116eb8cf8ac246d78de56bd01eebee764736f6c63430008120033",
    "linkReferences": {},
    "deployedLinkReferences": {}
}