{
  "_format": "hh-sol-artifact-1",
  "contractName": "Swapper",
  "sourceName": "contracts/Swapper.sol",
  "abi": [
    {
      "inputs": [],
      "stateMutability": "nonpayable",
      "type": "constructor"
    },
    {
      "anonymous": false,
      "inputs": [
        {
          "indexed": true,
          "internalType": "string",
          "name": "txId",
          "type": "string"
        },
        {
          "indexed": true,
          "internalType": "address",
          "name": "to",
          "type": "address"
        }
      ],
      "name": "accepted",
      "type": "event"
    },
    {
      "anonymous": false,
      "inputs": [
        {
          "indexed": true,
          "internalType": "string",
          "name": "txId",
          "type": "string"
        },
        {
          "indexed": true,
          "internalType": "address",
          "name": "from",
          "type": "address"
        },
        {
          "indexed": false,
          "internalType": "uint256",
          "name": "amount",
          "type": "uint256"
        }
      ],
      "name": "canceled",
      "type": "event"
    },
    {
      "anonymous": false,
      "inputs": [
        {
          "indexed": true,
          "internalType": "string",
          "name": "txId",
          "type": "string"
        },
        {
          "indexed": true,
          "internalType": "address",
          "name": "from",
          "type": "address"
        },
        {
          "indexed": true,
          "internalType": "address",
          "name": "to",
          "type": "address"
        }
      ],
      "name": "swapSuccessfully",
      "type": "event"
    },
    {
      "inputs": [
        {
          "internalType": "string",
          "name": "txId",
          "type": "string"
        },
        {
          "internalType": "bytes",
          "name": "signature",
          "type": "bytes"
        }
      ],
      "name": "accept",
      "outputs": [],
      "stateMutability": "nonpayable",
      "type": "function"
    },
    {
      "inputs": [
        {
          "internalType": "string",
          "name": "id",
          "type": "string"
        },
        {
          "internalType": "address",
          "name": "tokenFrom",
          "type": "address"
        },
        {
          "internalType": "address",
          "name": "tokenTo",
          "type": "address"
        },
        {
          "internalType": "uint256",
          "name": "amountFrom",
          "type": "uint256"
        },
        {
          "internalType": "uint256",
          "name": "amountTo",
          "type": "uint256"
        },
        {
          "internalType": "uint256",
          "name": "timelock",
          "type": "uint256"
        },
        {
          "internalType": "bytes",
          "name": "signature",
          "type": "bytes"
        }
      ],
      "name": "createTx",
      "outputs": [
        {
          "internalType": "bool",
          "name": "",
          "type": "bool"
        }
      ],
      "stateMutability": "nonpayable",
      "type": "function"
    },
    {
      "inputs": [
        {
          "internalType": "string",
          "name": "txId",
          "type": "string"
        }
      ],
      "name": "refund",
      "outputs": [],
      "stateMutability": "nonpayable",
      "type": "function"
    },
    {
      "inputs": [
        {
          "internalType": "string",
          "name": "id",
          "type": "string"
        }
      ],
      "name": "txInfo",
      "outputs": [
        {
          "components": [
            {
              "internalType": "address",
              "name": "from",
              "type": "address"
            },
            {
              "internalType": "address",
              "name": "to",
              "type": "address"
            },
            {
              "internalType": "contract Token",
              "name": "token_from",
              "type": "address"
            },
            {
              "internalType": "contract Token",
              "name": "token_to",
              "type": "address"
            },
            {
              "internalType": "uint256",
              "name": "amount_from",
              "type": "uint256"
            },
            {
              "internalType": "uint256",
              "name": "amount_to",
              "type": "uint256"
            },
            {
              "internalType": "uint256",
              "name": "timelock",
              "type": "uint256"
            },
            {
              "internalType": "bool",
              "name": "completed",
              "type": "bool"
            },
            {
              "internalType": "bool",
              "name": "refunded",
              "type": "bool"
            }
          ],
          "internalType": "struct Swapper.LockContract",
          "name": "",
          "type": "tuple"
        }
      ],
      "stateMutability": "view",
      "type": "function"
    }
  ],
  "bytecode": "0x608060405234801561001057600080fd5b50611d96806100206000396000f3fe608060405234801561001057600080fd5b506004361061004c5760003560e01c80635e62274514610051578063941e9bfb14610081578063adb6715b1461009d578063fe5f2e88146100cd575b600080fd5b61006b6004803603810190610066919061138c565b6100e9565b6040516100789190611481565b60405180910390f35b61009b6004803603810190610096919061149c565b61053b565b005b6100b760048036038101906100b29190611514565b6108f4565b6040516100c491906116a0565b60405180910390f35b6100e760048036038101906100e29190611514565b610ad9565b005b60008073ffffffffffffffffffffffffffffffffffffffff16600089604051610112919061172d565b908152602001604051809103902060000160009054906101000a900473ffffffffffffffffffffffffffffffffffffffff1673ffffffffffffffffffffffffffffffffffffffff161461019a576040517f08c379a0000000000000000000000000000000000000000000000000000000008152600401610191906117a1565b60405180910390fd5b8573ffffffffffffffffffffffffffffffffffffffff168773ffffffffffffffffffffffffffffffffffffffff1603610208576040517f08c379a00000000000000000000000000000000000000000000000000000000081526004016101ff90611833565b60405180910390fd5b6040518061012001604052803373ffffffffffffffffffffffffffffffffffffffff168152602001600073ffffffffffffffffffffffffffffffffffffffff1681526020018873ffffffffffffffffffffffffffffffffffffffff1681526020018773ffffffffffffffffffffffffffffffffffffffff16815260200186815260200185815260200184610e1061029f9190611882565b426102aa91906118c4565b8152602001600015158152602001600015158152506000896040516102cf919061172d565b908152602001604051809103902060008201518160000160006101000a81548173ffffffffffffffffffffffffffffffffffffffff021916908373ffffffffffffffffffffffffffffffffffffffff16021790555060208201518160010160006101000a81548173ffffffffffffffffffffffffffffffffffffffff021916908373ffffffffffffffffffffffffffffffffffffffff16021790555060408201518160020160006101000a81548173ffffffffffffffffffffffffffffffffffffffff021916908373ffffffffffffffffffffffffffffffffffffffff16021790555060608201518160030160006101000a81548173ffffffffffffffffffffffffffffffffffffffff021916908373ffffffffffffffffffffffffffffffffffffffff1602179055506080820151816004015560a0820151816005015560c0820151816006015560e08201518160070160006101000a81548160ff0219169083151502179055506101008201518160070160016101000a81548160ff02191690831515021790555090505060008860405161046b919061172d565b908152602001604051809103902060020160009054906101000a900473ffffffffffffffffffffffffffffffffffffffff1673ffffffffffffffffffffffffffffffffffffffff1663df8ab3303360008b6040516104c9919061172d565b908152602001604051809103902060040154856040518463ffffffff1660e01b81526004016104fa9392919061196b565b600060405180830381600087803b15801561051457600080fd5b505af1158015610528573d6000803e3d6000fd5b5050505060019050979650505050505050565b6000808360405161054c919061172d565b90815260200160405180910390209050600073ffffffffffffffffffffffffffffffffffffffff168160000160009054906101000a900473ffffffffffffffffffffffffffffffffffffffff1673ffffffffffffffffffffffffffffffffffffffff16036105ef576040517f08c379a00000000000000000000000000000000000000000000000000000000081526004016105e6906119f5565b60405180910390fd5b600115158160070160009054906101000a900460ff1615151415801561062b5750600115158160070160019054906101000a900460ff16151514155b61066a576040517f08c379a000000000000000000000000000000000000000000000000000000000815260040161066190611a61565b60405180910390fd5b600073ffffffffffffffffffffffffffffffffffffffff168160010160009054906101000a900473ffffffffffffffffffffffffffffffffffffffff1673ffffffffffffffffffffffffffffffffffffffff16146106fd576040517f08c379a00000000000000000000000000000000000000000000000000000000081526004016106f490611af3565b60405180910390fd5b3373ffffffffffffffffffffffffffffffffffffffff168160000160009054906101000a900473ffffffffffffffffffffffffffffffffffffffff1673ffffffffffffffffffffffffffffffffffffffff160361078f576040517f08c379a000000000000000000000000000000000000000000000000000000000815260040161078690611b5f565b60405180910390fd5b338160010160006101000a81548173ffffffffffffffffffffffffffffffffffffffff021916908373ffffffffffffffffffffffffffffffffffffffff1602179055508060030160009054906101000a900473ffffffffffffffffffffffffffffffffffffffff1673ffffffffffffffffffffffffffffffffffffffff1663df8ab3308260010160009054906101000a900473ffffffffffffffffffffffffffffffffffffffff168360050154856040518463ffffffff1660e01b815260040161085b9392919061196b565b600060405180830381600087803b15801561087557600080fd5b505af1158015610889573d6000803e3d6000fd5b505050503373ffffffffffffffffffffffffffffffffffffffff16836040516108b2919061172d565b60405180910390207f0336138d0d6740e971d3b9419a52ebe3321907aba03c0a335aa654f7e523ae9860405160405180910390a36108ef83610dc5565b505050565b6108fc611055565b60008260405161090c919061172d565b9081526020016040518091039020604051806101200160405290816000820160009054906101000a900473ffffffffffffffffffffffffffffffffffffffff1673ffffffffffffffffffffffffffffffffffffffff1673ffffffffffffffffffffffffffffffffffffffff1681526020016001820160009054906101000a900473ffffffffffffffffffffffffffffffffffffffff1673ffffffffffffffffffffffffffffffffffffffff1673ffffffffffffffffffffffffffffffffffffffff1681526020016002820160009054906101000a900473ffffffffffffffffffffffffffffffffffffffff1673ffffffffffffffffffffffffffffffffffffffff1673ffffffffffffffffffffffffffffffffffffffff1681526020016003820160009054906101000a900473ffffffffffffffffffffffffffffffffffffffff1673ffffffffffffffffffffffffffffffffffffffff1673ffffffffffffffffffffffffffffffffffffffff1681526020016004820154815260200160058201548152602001600682015481526020016007820160009054906101000a900460ff161515151581526020016007820160019054906101000a900460ff1615151515815250509050919050565b60008082604051610aea919061172d565b90815260200160405180910390209050600015158160070160009054906101000a900460ff161515148015610b345750600015158160070160019054906101000a900460ff161515145b610b73576040517f08c379a0000000000000000000000000000000000000000000000000000000008152600401610b6a90611bcb565b60405180910390fd5b600073ffffffffffffffffffffffffffffffffffffffff168160010160009054906101000a900473ffffffffffffffffffffffffffffffffffffffff1673ffffffffffffffffffffffffffffffffffffffff1614610c06576040517f08c379a0000000000000000000000000000000000000000000000000000000008152600401610bfd90611c37565b60405180910390fd5b4281600601541115610c4d576040517f08c379a0000000000000000000000000000000000000000000000000000000008152600401610c4490611ca3565b60405180910390fd5b8060020160009054906101000a900473ffffffffffffffffffffffffffffffffffffffff1673ffffffffffffffffffffffffffffffffffffffff1663a9059cbb8260000160009054906101000a900473ffffffffffffffffffffffffffffffffffffffff1683600401546040518363ffffffff1660e01b8152600401610cd4929190611cc3565b6020604051808303816000875af1158015610cf3573d6000803e3d6000fd5b505050506040513d601f19601f82011682018060405250810190610d179190611d18565b5060018160070160016101000a81548160ff0219169083151502179055508060000160009054906101000a900473ffffffffffffffffffffffffffffffffffffffff1673ffffffffffffffffffffffffffffffffffffffff1682604051610d7e919061172d565b60405180910390207fc2168e7e46be79bcca0b1346c64e2652da4d4755f2b02c84e154691ef5df1ebb8360040154604051610db99190611d45565b60405180910390a35050565b60008082604051610dd6919061172d565b908152602001604051809103902090508060020160009054906101000a900473ffffffffffffffffffffffffffffffffffffffff1673ffffffffffffffffffffffffffffffffffffffff1663a9059cbb8260010160009054906101000a900473ffffffffffffffffffffffffffffffffffffffff1683600401546040518363ffffffff1660e01b8152600401610e6d929190611cc3565b6020604051808303816000875af1158015610e8c573d6000803e3d6000fd5b505050506040513d601f19601f82011682018060405250810190610eb09190611d18565b508060030160009054906101000a900473ffffffffffffffffffffffffffffffffffffffff1673ffffffffffffffffffffffffffffffffffffffff1663a9059cbb8260000160009054906101000a900473ffffffffffffffffffffffffffffffffffffffff1683600501546040518363ffffffff1660e01b8152600401610f38929190611cc3565b6020604051808303816000875af1158015610f57573d6000803e3d6000fd5b505050506040513d601f19601f82011682018060405250810190610f7b9190611d18565b5060018160070160006101000a81548160ff0219169083151502179055508060010160009054906101000a900473ffffffffffffffffffffffffffffffffffffffff1673ffffffffffffffffffffffffffffffffffffffff168160000160009054906101000a900473ffffffffffffffffffffffffffffffffffffffff1673ffffffffffffffffffffffffffffffffffffffff168360405161101d919061172d565b60405180910390207fec7c41b2cb9af6edfd611e0a23777045ed02c9ac42333b0bac52bbd92d9ddbdc60405160405180910390a45050565b604051806101200160405280600073ffffffffffffffffffffffffffffffffffffffff168152602001600073ffffffffffffffffffffffffffffffffffffffff168152602001600073ffffffffffffffffffffffffffffffffffffffff168152602001600073ffffffffffffffffffffffffffffffffffffffff1681526020016000815260200160008152602001600081526020016000151581526020016000151581525090565b6000604051905090565b600080fd5b600080fd5b600080fd5b600080fd5b6000601f19601f8301169050919050565b7f4e487b7100000000000000000000000000000000000000000000000000000000600052604160045260246000fd5b6111648261111b565b810181811067ffffffffffffffff821117156111835761118261112c565b5b80604052505050565b60006111966110fd565b90506111a2828261115b565b919050565b600067ffffffffffffffff8211156111c2576111c161112c565b5b6111cb8261111b565b9050602081019050919050565b82818337600083830152505050565b60006111fa6111f5846111a7565b61118c565b90508281526020810184848401111561121657611215611116565b5b6112218482856111d8565b509392505050565b600082601f83011261123e5761123d611111565b5b813561124e8482602086016111e7565b91505092915050565b600073ffffffffffffffffffffffffffffffffffffffff82169050919050565b600061128282611257565b9050919050565b61129281611277565b811461129d57600080fd5b50565b6000813590506112af81611289565b92915050565b6000819050919050565b6112c8816112b5565b81146112d357600080fd5b50565b6000813590506112e5816112bf565b92915050565b600067ffffffffffffffff8211156113065761130561112c565b5b61130f8261111b565b9050602081019050919050565b600061132f61132a846112eb565b61118c565b90508281526020810184848401111561134b5761134a611116565b5b6113568482856111d8565b509392505050565b600082601f83011261137357611372611111565b5b813561138384826020860161131c565b91505092915050565b600080600080600080600060e0888a0312156113ab576113aa611107565b5b600088013567ffffffffffffffff8111156113c9576113c861110c565b5b6113d58a828b01611229565b97505060206113e68a828b016112a0565b96505060406113f78a828b016112a0565b95505060606114088a828b016112d6565b94505060806114198a828b016112d6565b93505060a061142a8a828b016112d6565b92505060c088013567ffffffffffffffff81111561144b5761144a61110c565b5b6114578a828b0161135e565b91505092959891949750929550565b60008115159050919050565b61147b81611466565b82525050565b60006020820190506114966000830184611472565b92915050565b600080604083850312156114b3576114b2611107565b5b600083013567ffffffffffffffff8111156114d1576114d061110c565b5b6114dd85828601611229565b925050602083013567ffffffffffffffff8111156114fe576114fd61110c565b5b61150a8582860161135e565b9150509250929050565b60006020828403121561152a57611529611107565b5b600082013567ffffffffffffffff8111156115485761154761110c565b5b61155484828501611229565b91505092915050565b61156681611277565b82525050565b6000819050919050565b600061159161158c61158784611257565b61156c565b611257565b9050919050565b60006115a382611576565b9050919050565b60006115b582611598565b9050919050565b6115c5816115aa565b82525050565b6115d4816112b5565b82525050565b6115e381611466565b82525050565b61012082016000820151611600600085018261155d565b506020820151611613602085018261155d565b50604082015161162660408501826115bc565b50606082015161163960608501826115bc565b50608082015161164c60808501826115cb565b5060a082015161165f60a08501826115cb565b5060c082015161167260c08501826115cb565b5060e082015161168560e08501826115da565b5061010082015161169a6101008501826115da565b50505050565b6000610120820190506116b660008301846115e9565b92915050565b600081519050919050565b600081905092915050565b60005b838110156116f05780820151818401526020810190506116d5565b60008484015250505050565b6000611707826116bc565b61171181856116c7565b93506117218185602086016116d2565b80840191505092915050565b600061173982846116fc565b915081905092915050565b600082825260208201905092915050565b7f4475706c6963617465207472616e73616374696f6e2062792069640000000000600082015250565b600061178b601b83611744565b915061179682611755565b602082019050919050565b600060208201905081810360008301526117ba8161177e565b9050919050565b7f4f6e6c792073776170206265747765656e2074776f20646966666572656e742060008201527f746f6b656e000000000000000000000000000000000000000000000000000000602082015250565b600061181d602583611744565b9150611828826117c1565b604082019050919050565b6000602082019050818103600083015261184c81611810565b9050919050565b7f4e487b7100000000000000000000000000000000000000000000000000000000600052601160045260246000fd5b600061188d826112b5565b9150611898836112b5565b92508282026118a6816112b5565b915082820484148315176118bd576118bc611853565b5b5092915050565b60006118cf826112b5565b91506118da836112b5565b92508282019050808211156118f2576118f1611853565b5b92915050565b61190181611277565b82525050565b611910816112b5565b82525050565b600081519050919050565b600082825260208201905092915050565b600061193d82611916565b6119478185611921565b93506119578185602086016116d2565b6119608161111b565b840191505092915050565b600060608201905061198060008301866118f8565b61198d6020830185611907565b818103604083015261199f8184611932565b9050949350505050565b7f54686973207472616e73616374696f6e20646f65736e27742065786973747300600082015250565b60006119df601f83611744565b91506119ea826119a9565b602082019050919050565b60006020820190508181036000830152611a0e816119d2565b9050919050565b7f54686973207472616e73616374696f6e20686173206265656e20646f6e650000600082015250565b6000611a4b601e83611744565b9150611a5682611a15565b602082019050919050565b60006020820190508181036000830152611a7a81611a3e565b9050919050565b7f54686973207472616e73616374696f6e20686173206265656e2061636365707460008201527f656420627920616e6f7468657220757365720000000000000000000000000000602082015250565b6000611add603283611744565b9150611ae882611a81565b604082019050919050565b60006020820190508181036000830152611b0c81611ad0565b9050919050565b7f43616e27742061636365707420627920796f75722073656c6621203d29290000600082015250565b6000611b49601e83611744565b9150611b5482611b13565b602082019050919050565b60006020820190508181036000830152611b7881611b3c565b9050919050565b7f43616e277420726566756e640000000000000000000000000000000000000000600082015250565b6000611bb5600c83611744565b9150611bc082611b7f565b602082019050919050565b60006020820190508181036000830152611be481611ba8565b9050919050565b7f5472616e73616374696f6e20697320696e2070726f6772657373000000000000600082015250565b6000611c21601a83611744565b9150611c2c82611beb565b602082019050919050565b60006020820190508181036000830152611c5081611c14565b9050919050565b7f546f6f206561726c7920746f20726566756e6400000000000000000000000000600082015250565b6000611c8d601383611744565b9150611c9882611c57565b602082019050919050565b60006020820190508181036000830152611cbc81611c80565b9050919050565b6000604082019050611cd860008301856118f8565b611ce56020830184611907565b9392505050565b611cf581611466565b8114611d0057600080fd5b50565b600081519050611d1281611cec565b92915050565b600060208284031215611d2e57611d2d611107565b5b6000611d3c84828501611d03565b91505092915050565b6000602082019050611d5a6000830184611907565b9291505056fea2646970667358221220e619e9fa12188737d7cf87e59e7e60198542782d18da55d4d15339eda8ba977664736f6c63430008120033",
  "linkReferences": {},
  "deployedLinkReferences": {}
}