{
  "_format": "hh-sol-artifact-1",
  "contractName": "Swapper",
  "sourceName": "contracts/Swapper.sol",
  "abi": [
    {
      "inputs": [],
      "stateMutability": "nonpayable",
      "type": "constructor"
    },
    {
      "anonymous": false,
      "inputs": [
        {
          "indexed": true,
          "internalType": "string",
          "name": "txId",
          "type": "string"
        },
        {
          "indexed": true,
          "internalType": "address",
          "name": "to",
          "type": "address"
        }
      ],
      "name": "accepted",
      "type": "event"
    },
    {
      "anonymous": false,
      "inputs": [
        {
          "indexed": true,
          "internalType": "string",
          "name": "txId",
          "type": "string"
        },
        {
          "indexed": true,
          "internalType": "address",
          "name": "from",
          "type": "address"
        },
        {
          "indexed": false,
          "internalType": "uint256",
          "name": "amount",
          "type": "uint256"
        }
      ],
      "name": "canceled",
      "type": "event"
    },
    {
      "anonymous": false,
      "inputs": [
        {
          "indexed": true,
          "internalType": "string",
          "name": "txId",
          "type": "string"
        },
        {
          "indexed": true,
          "internalType": "address",
          "name": "from",
          "type": "address"
        },
        {
          "indexed": true,
          "internalType": "address",
          "name": "to",
          "type": "address"
        }
      ],
      "name": "swapSuccessfully",
      "type": "event"
    },
    {
      "inputs": [
        {
          "internalType": "string",
          "name": "txId",
          "type": "string"
        },
        {
          "internalType": "bytes",
          "name": "signature",
          "type": "bytes"
        }
      ],
      "name": "acceptTx",
      "outputs": [],
      "stateMutability": "nonpayable",
      "type": "function"
    },
    {
      "inputs": [
        {
          "internalType": "string",
          "name": "id",
          "type": "string"
        },
        {
          "internalType": "address",
          "name": "tokenFrom",
          "type": "address"
        },
        {
          "internalType": "address",
          "name": "tokenTo",
          "type": "address"
        },
        {
          "internalType": "uint256",
          "name": "amountFrom",
          "type": "uint256"
        },
        {
          "internalType": "uint256",
          "name": "amountTo",
          "type": "uint256"
        },
        {
          "internalType": "uint256",
          "name": "timelock",
          "type": "uint256"
        },
        {
          "internalType": "bytes",
          "name": "signature",
          "type": "bytes"
        }
      ],
      "name": "createTx",
      "outputs": [
        {
          "internalType": "bool",
          "name": "",
          "type": "bool"
        }
      ],
      "stateMutability": "nonpayable",
      "type": "function"
    },
    {
      "inputs": [
        {
          "internalType": "string",
          "name": "txId",
          "type": "string"
        }
      ],
      "name": "refund",
      "outputs": [],
      "stateMutability": "nonpayable",
      "type": "function"
    },
    {
      "inputs": [
        {
          "internalType": "string",
          "name": "id",
          "type": "string"
        }
      ],
      "name": "txInfo",
      "outputs": [
        {
          "components": [
            {
              "internalType": "address",
              "name": "from",
              "type": "address"
            },
            {
              "internalType": "address",
              "name": "to",
              "type": "address"
            },
            {
              "internalType": "contract Token",
              "name": "token_from",
              "type": "address"
            },
            {
              "internalType": "contract Token",
              "name": "token_to",
              "type": "address"
            },
            {
              "internalType": "uint256",
              "name": "amount_from",
              "type": "uint256"
            },
            {
              "internalType": "uint256",
              "name": "amount_to",
              "type": "uint256"
            },
            {
              "internalType": "uint256",
              "name": "timelock",
              "type": "uint256"
            },
            {
              "internalType": "bool",
              "name": "completed",
              "type": "bool"
            },
            {
              "internalType": "bool",
              "name": "refunded",
              "type": "bool"
            }
          ],
          "internalType": "struct Swapper.LockContract",
          "name": "",
          "type": "tuple"
        }
      ],
      "stateMutability": "view",
      "type": "function"
    }
  ],
  "bytecode": "0x608060405234801561001057600080fd5b50610eef806100206000396000f3fe608060405234801561001057600080fd5b506004361061004c5760003560e01c80635e622745146100515780636f96ee4314610079578063adb6715b1461008e578063fe5f2e88146100ae575b600080fd5b61006461005f366004610bff565b6100c1565b60405190151581526020015b60405180910390f35b61008c610087366004610ca1565b6103d9565b005b6100a161009c366004610d05565b61069b565b6040516100709190610d42565b61008c6100bc366004610d05565b610785565b6000806001600160a01b03166000896040516100dd9190610de4565b908152604051908190036020019020546001600160a01b0316146101485760405162461bcd60e51b815260206004820152601b60248201527f4475706c6963617465207472616e73616374696f6e206279206964000000000060448201526064015b60405180910390fd5b856001600160a01b0316876001600160a01b0316036101cf5760405162461bcd60e51b815260206004820152602560248201527f4f6e6c792073776170206265747765656e2074776f20646966666572656e742060448201527f746f6b656e000000000000000000000000000000000000000000000000000000606482015260840161013f565b604051806101200160405280336001600160a01b0316815260200160006001600160a01b03168152602001886001600160a01b03168152602001876001600160a01b0316815260200186815260200185815260200184610e106102329190610e16565b61023c9042610e33565b81526000602082018190526040918201819052905161025c908b90610de4565b90815260408051602092819003830181208451815473ffffffffffffffffffffffffffffffffffffffff199081166001600160a01b0392831617835594860151600183018054871691831691909117905592850151600282018054861691851691909117905560608501516003820180549095169316929092179092556080830151600482015560a0830151600582015560c0830151600682015560e0830151600790910180546101009485015161ffff1990911692151561ff0019169290921791151590930217909155600090610335908a90610de4565b908152604051908190036020018120600201546001600160a01b03169063df8ab330903390600090610368908d90610de4565b908152602001604051809103902060040154856040518463ffffffff1660e01b815260040161039993929190610e46565b600060405180830381600087803b1580156103b357600080fd5b505af11580156103c7573d6000803e3d6000fd5b5060019b9a5050505050505050505050565b600080836040516103ea9190610de4565b90815260405190819003602001902080549091506001600160a01b03166104535760405162461bcd60e51b815260206004820152601f60248201527f54686973207472616e73616374696f6e20646f65736e27742065786973747300604482015260640161013f565b600781015460ff16151560011480159061047d5750600781015460ff610100909104161515600114155b6104c95760405162461bcd60e51b815260206004820152601e60248201527f54686973207472616e73616374696f6e20686173206265656e20646f6e650000604482015260640161013f565b60018101546001600160a01b03161561054a5760405162461bcd60e51b815260206004820152603260248201527f54686973207472616e73616374696f6e20686173206265656e2061636365707460448201527f656420627920616e6f7468657220757365720000000000000000000000000000606482015260840161013f565b8054336001600160a01b03909116036105a55760405162461bcd60e51b815260206004820152601e60248201527f43616e27742061636365707420627920796f75722073656c6621203d29290000604482015260640161013f565b60018101805473ffffffffffffffffffffffffffffffffffffffff191633908117909155600382015460058301546040517fdf8ab3300000000000000000000000000000000000000000000000000000000081526001600160a01b03929092169263df8ab3309261061b92908790600401610e46565b600060405180830381600087803b15801561063557600080fd5b505af1158015610649573d6000803e3d6000fd5b505060405133925061065d91508590610de4565b604051908190038120907f0336138d0d6740e971d3b9419a52ebe3321907aba03c0a335aa654f7e523ae9890600090a3610696836109b2565b505050565b6040805161012081018252600080825260208201819052918101829052606081018290526080810182905260a0810182905260c0810182905260e081018290526101008101919091526000826040516106f49190610de4565b9081526040805191829003602090810183206101208401835280546001600160a01b03908116855260018201548116928501929092526002810154821692840192909252600382015416606083015260048101546080830152600581015460a0830152600681015460c08301526007015460ff808216151560e0840152610100918290041615159082015292915050565b600080826040516107969190610de4565b908152604051908190036020019020600781015490915060ff161580156107c757506007810154610100900460ff16155b6108135760405162461bcd60e51b815260206004820152600c60248201527f43616e277420726566756e640000000000000000000000000000000000000000604482015260640161013f565b60018101546001600160a01b03161561086e5760405162461bcd60e51b815260206004820152601a60248201527f5472616e73616374696f6e20697320696e2070726f6772657373000000000000604482015260640161013f565b42816006015411156108c25760405162461bcd60e51b815260206004820152601360248201527f546f6f206561726c7920746f20726566756e6400000000000000000000000000604482015260640161013f565b6002810154815460048084015460405163a9059cbb60e01b81526001600160a01b0393841692810192909252602482015291169063a9059cbb906044016020604051808303816000875af115801561091e573d6000803e3d6000fd5b505050506040513d601f19601f820116820180604052508101906109429190610e90565b5060078101805461ff00191661010017905580546040516001600160a01b0390911690610970908490610de4565b60405190819003812060048401548252907fc2168e7e46be79bcca0b1346c64e2652da4d4755f2b02c84e154691ef5df1ebb9060200160405180910390a35050565b600080826040516109c39190610de4565b9081526040519081900360200181206002810154600182015460048084015463a9059cbb60e01b86526001600160a01b03928316918601919091526024850152919350169063a9059cbb906044016020604051808303816000875af1158015610a30573d6000803e3d6000fd5b505050506040513d601f19601f82011682018060405250810190610a549190610e90565b5060038101548154600583015460405163a9059cbb60e01b81526001600160a01b039283166004820152602481019190915291169063a9059cbb906044016020604051808303816000875af1158015610ab1573d6000803e3d6000fd5b505050506040513d601f19601f82011682018060405250810190610ad59190610e90565b5060078101805460ff1916600190811790915581015481546040516001600160a01b03928316929190911690610b0c908590610de4565b604051908190038120907fec7c41b2cb9af6edfd611e0a23777045ed02c9ac42333b0bac52bbd92d9ddbdc90600090a45050565b634e487b7160e01b600052604160045260246000fd5b600082601f830112610b6757600080fd5b813567ffffffffffffffff80821115610b8257610b82610b40565b604051601f8301601f19908116603f01168101908282118183101715610baa57610baa610b40565b81604052838152866020858801011115610bc357600080fd5b836020870160208301376000602085830101528094505050505092915050565b80356001600160a01b0381168114610bfa57600080fd5b919050565b600080600080600080600060e0888a031215610c1a57600080fd5b873567ffffffffffffffff80821115610c3257600080fd5b610c3e8b838c01610b56565b9850610c4c60208b01610be3565b9750610c5a60408b01610be3565b965060608a0135955060808a0135945060a08a0135935060c08a0135915080821115610c8557600080fd5b50610c928a828b01610b56565b91505092959891949750929550565b60008060408385031215610cb457600080fd5b823567ffffffffffffffff80821115610ccc57600080fd5b610cd886838701610b56565b93506020850135915080821115610cee57600080fd5b50610cfb85828601610b56565b9150509250929050565b600060208284031215610d1757600080fd5b813567ffffffffffffffff811115610d2e57600080fd5b610d3a84828501610b56565b949350505050565b81516001600160a01b03908116825260208084015182169083015260408084015182169083015260608084015191821690830152610120820190506080830151608083015260a083015160a083015260c083015160c083015260e0830151610dae60e084018215159052565b50610100928301511515919092015290565b60005b83811015610ddb578181015183820152602001610dc3565b50506000910152565b60008251610df6818460208701610dc0565b9190910192915050565b634e487b7160e01b600052601160045260246000fd5b8082028115828204841417610e2d57610e2d610e00565b92915050565b80820180821115610e2d57610e2d610e00565b6001600160a01b03841681528260208201526060604082015260008251806060840152610e7a816080850160208701610dc0565b601f01601f191691909101608001949350505050565b600060208284031215610ea257600080fd5b81518015158114610eb257600080fd5b939250505056fea2646970667358221220c8286ced01edbf55c541f92d10429c6f45acb95c991b99d0019ee72f4545fdac64736f6c63430008110033",
  "linkReferences": {},
  "deployedLinkReferences": {}
}