{
    "_format": "hh-sol-artifact-1",
    "contractName": "Faucet",
    "sourceName": "contracts/FaucetToken.sol",
    "abi": [
        {
            "inputs": [],
            "stateMutability": "nonpayable",
            "type": "constructor"
        },
        {
            "inputs": [
                {
                    "internalType": "address",
                    "name": "userAddress",
                    "type": "address"
                },
                {
                    "internalType": "address",
                    "name": "tokenAddress",
                    "type": "address"
                },
                {
                    "internalType": "uint256",
                    "name": "amount",
                    "type": "uint256"
                }
            ],
            "name": "faucetToken",
            "outputs": [],
            "stateMutability": "nonpayable",
            "type": "function"
        },
        {
            "inputs": [
                {
                    "internalType": "address",
                    "name": "userAddress",
                    "type": "address"
                },
                {
                    "internalType": "address",
                    "name": "tokenAddress",
                    "type": "address"
                }
            ],
            "name": "timeLockUserToken",
            "outputs": [
                {
                    "internalType": "uint256",
                    "name": "",
                    "type": "uint256"
                }
            ],
            "stateMutability": "view",
            "type": "function"
        },
        {
            "inputs": [
                {
                    "internalType": "address",
                    "name": "tokenAddress",
                    "type": "address"
                },
                {
                    "internalType": "uint256",
                    "name": "amount",
                    "type": "uint256"
                }
            ],
            "name": "withdrawToken",
            "outputs": [],
            "stateMutability": "nonpayable",
            "type": "function"
        }
    ],
    "bytecode": "0x608060405234801561001057600080fd5b50336000806101000a81548173ffffffffffffffffffffffffffffffffffffffff021916908373ffffffffffffffffffffffffffffffffffffffff160217905550610b2b806100606000396000f3fe608060405234801561001057600080fd5b50600436106100415760003560e01c80639e281a9814610046578063aca39f0714610062578063c062ba5314610092575b600080fd5b610060600480360381019061005b9190610626565b6100ae565b005b61007c60048036038101906100779190610666565b6101e5565b60405161008991906106b5565b60405180910390f35b6100ac60048036038101906100a791906106d0565b61020a565b005b60008054906101000a900473ffffffffffffffffffffffffffffffffffffffff1673ffffffffffffffffffffffffffffffffffffffff163373ffffffffffffffffffffffffffffffffffffffff161461013c576040517f08c379a0000000000000000000000000000000000000000000000000000000008152600401610133906107a6565b60405180910390fd5b60008290508073ffffffffffffffffffffffffffffffffffffffff1663a9059cbb60008054906101000a900473ffffffffffffffffffffffffffffffffffffffff16846040518363ffffffff1660e01b815260040161019c9291906107d5565b6020604051808303816000875af11580156101bb573d6000803e3d6000fd5b505050506040513d601f19601f820116820180604052508101906101df9190610836565b50505050565b6001602052816000526040600020602052806000526040600020600091509150505481565b6000600160008573ffffffffffffffffffffffffffffffffffffffff1673ffffffffffffffffffffffffffffffffffffffff16815260200190815260200160002060008473ffffffffffffffffffffffffffffffffffffffff1673ffffffffffffffffffffffffffffffffffffffff1681526020019081526020016000205414806103105750600160008473ffffffffffffffffffffffffffffffffffffffff1673ffffffffffffffffffffffffffffffffffffffff16815260200190815260200160002060008373ffffffffffffffffffffffffffffffffffffffff1673ffffffffffffffffffffffffffffffffffffffff1681526020019081526020016000205442115b61034f576040517f08c379a0000000000000000000000000000000000000000000000000000000008152600401610346906108d5565b60405180910390fd5b6014811115610393576040517f08c379a000000000000000000000000000000000000000000000000000000000815260040161038a90610967565b60405180910390fd5b6000829050670de0b6b3a7640000826103ac91906109b6565b8173ffffffffffffffffffffffffffffffffffffffff166370a08231306040518263ffffffff1660e01b81526004016103e591906109f8565b602060405180830381865afa158015610402573d6000803e3d6000fd5b505050506040513d601f19601f820116820180604052508101906104269190610a28565b11610466576040517f08c379a000000000000000000000000000000000000000000000000000000000815260040161045d90610aa1565b60405180910390fd5b8073ffffffffffffffffffffffffffffffffffffffff1663a9059cbb85670de0b6b3a76400008561049791906109b6565b6040518363ffffffff1660e01b81526004016104b49291906107d5565b6020604051808303816000875af11580156104d3573d6000803e3d6000fd5b505050506040513d601f19601f820116820180604052508101906104f79190610836565b5062015180426105079190610ac1565b600160008673ffffffffffffffffffffffffffffffffffffffff1673ffffffffffffffffffffffffffffffffffffffff16815260200190815260200160002060008573ffffffffffffffffffffffffffffffffffffffff1673ffffffffffffffffffffffffffffffffffffffff1681526020019081526020016000208190555050505050565b600080fd5b600073ffffffffffffffffffffffffffffffffffffffff82169050919050565b60006105bd82610592565b9050919050565b6105cd816105b2565b81146105d857600080fd5b50565b6000813590506105ea816105c4565b92915050565b6000819050919050565b610603816105f0565b811461060e57600080fd5b50565b600081359050610620816105fa565b92915050565b6000806040838503121561063d5761063c61058d565b5b600061064b858286016105db565b925050602061065c85828601610611565b9150509250929050565b6000806040838503121561067d5761067c61058d565b5b600061068b858286016105db565b925050602061069c858286016105db565b9150509250929050565b6106af816105f0565b82525050565b60006020820190506106ca60008301846106a6565b92915050565b6000806000606084860312156106e9576106e861058d565b5b60006106f7868287016105db565b9350506020610708868287016105db565b925050604061071986828701610611565b9150509250925092565b600082825260208201905092915050565b7f4f6e6c792061646d696e2063616e2063616c6c20746869732066756e6374696f60008201527f6e00000000000000000000000000000000000000000000000000000000000000602082015250565b6000610790602183610723565b915061079b82610734565b604082019050919050565b600060208201905081810360008301526107bf81610783565b9050919050565b6107cf816105b2565b82525050565b60006040820190506107ea60008301856107c6565b6107f760208301846106a6565b9392505050565b60008115159050919050565b610813816107fe565b811461081e57600080fd5b50565b6000815190506108308161080a565b92915050565b60006020828403121561084c5761084b61058d565b5b600061085a84828501610821565b91505092915050565b7f4561636820616464726573732063616e206f6e6c79207265636569766520666160008201527f7563657420746f6b656e73206f6e636520657665727920323420686f7572732e602082015250565b60006108bf604083610723565b91506108ca82610863565b604082019050919050565b600060208201905081810360008301526108ee816108b2565b9050919050565b7f4f6e6c792061206d6178696d756d206f6620323020746f6b656e732063616e2060008201527f626520666175636574656420617420612074696d652e00000000000000000000602082015250565b6000610951603683610723565b915061095c826108f5565b604082019050919050565b6000602082019050818103600083015261098081610944565b9050919050565b7f4e487b7100000000000000000000000000000000000000000000000000000000600052601160045260246000fd5b60006109c1826105f0565b91506109cc836105f0565b92508282026109da816105f0565b915082820484148315176109f1576109f0610987565b5b5092915050565b6000602082019050610a0d60008301846107c6565b92915050565b600081519050610a22816105fa565b92915050565b600060208284031215610a3e57610a3d61058d565b5b6000610a4c84828501610a13565b91505092915050565b7f556e61626c6520746f2066617563657420617420746865206d6f6d656e740000600082015250565b6000610a8b601e83610723565b9150610a9682610a55565b602082019050919050565b60006020820190508181036000830152610aba81610a7e565b9050919050565b6000610acc826105f0565b9150610ad7836105f0565b9250828201905080821115610aef57610aee610987565b5b9291505056fea2646970667358221220179c38b5a1f37d55899788a99fdc72215b85d5d11ca80cf5d4259420073c937664736f6c63430008120033",
    "linkReferences": {},
    "deployedLinkReferences": {}
}