{
  "_format": "hh-sol-artifact-1",
  "contractName": "Swapper",
  "sourceName": "contracts/Swapper.sol",
  "abi": [
    {
      "inputs": [],
      "stateMutability": "nonpayable",
      "type": "constructor"
    },
    {
      "anonymous": false,
      "inputs": [
        {
          "indexed": true,
          "internalType": "bytes32",
          "name": "txId",
          "type": "bytes32"
        },
        {
          "indexed": true,
          "internalType": "address",
          "name": "to",
          "type": "address"
        },
        {
          "indexed": false,
          "internalType": "uint256",
          "name": "amount",
          "type": "uint256"
        }
      ],
      "name": "accepted",
      "type": "event"
    },
    {
      "anonymous": false,
      "inputs": [
        {
          "indexed": true,
          "internalType": "bytes32",
          "name": "txId",
          "type": "bytes32"
        },
        {
          "indexed": true,
          "internalType": "address",
          "name": "from",
          "type": "address"
        },
        {
          "indexed": false,
          "internalType": "uint256",
          "name": "amount",
          "type": "uint256"
        }
      ],
      "name": "canceled",
      "type": "event"
    },
    {
      "anonymous": false,
      "inputs": [
        {
          "indexed": true,
          "internalType": "bytes32",
          "name": "txId",
          "type": "bytes32"
        },
        {
          "indexed": true,
          "internalType": "address",
          "name": "from",
          "type": "address"
        }
      ],
      "name": "created",
      "type": "event"
    },
    {
      "anonymous": false,
      "inputs": [
        {
          "indexed": true,
          "internalType": "bytes32",
          "name": "txId",
          "type": "bytes32"
        },
        {
          "indexed": true,
          "internalType": "address",
          "name": "from",
          "type": "address"
        },
        {
          "indexed": true,
          "internalType": "address",
          "name": "to",
          "type": "address"
        }
      ],
      "name": "swapSuccessfully",
      "type": "event"
    },
    {
      "inputs": [
        {
          "internalType": "bytes32",
          "name": "txId",
          "type": "bytes32"
        }
      ],
      "name": "acceptTx",
      "outputs": [],
      "stateMutability": "nonpayable",
      "type": "function"
    },
    {
      "inputs": [
        {
          "internalType": "bytes32",
          "name": "id",
          "type": "bytes32"
        },
        {
          "internalType": "address",
          "name": "tokenFrom",
          "type": "address"
        },
        {
          "internalType": "address",
          "name": "tokenTo",
          "type": "address"
        },
        {
          "internalType": "uint256",
          "name": "amountFrom",
          "type": "uint256"
        },
        {
          "internalType": "uint256",
          "name": "amountTo",
          "type": "uint256"
        }
      ],
      "name": "createTx",
      "outputs": [],
      "stateMutability": "nonpayable",
      "type": "function"
    },
    {
      "inputs": [
        {
          "internalType": "bytes32",
          "name": "txId",
          "type": "bytes32"
        }
      ],
      "name": "refund",
      "outputs": [],
      "stateMutability": "nonpayable",
      "type": "function"
    },
    {
      "inputs": [
        {
          "internalType": "bytes32",
          "name": "",
          "type": "bytes32"
        }
      ],
      "name": "transactions",
      "outputs": [
        {
          "internalType": "address",
          "name": "from",
          "type": "address"
        },
        {
          "internalType": "contract ERC20",
          "name": "token_from",
          "type": "address"
        },
        {
          "internalType": "contract ERC20",
          "name": "token_to",
          "type": "address"
        },
        {
          "internalType": "uint256",
          "name": "amount_from",
          "type": "uint256"
        },
        {
          "internalType": "uint256",
          "name": "amount_to",
          "type": "uint256"
        },
        {
          "internalType": "enum Swapper.Status",
          "name": "status",
          "type": "uint8"
        }
      ],
      "stateMutability": "view",
      "type": "function"
    }
  ],
  "bytecode": "0x608060405234801561001057600080fd5b50611704806100206000396000f3fe608060405234801561001057600080fd5b506004361061004c5760003560e01c80635407a9e314610051578063642f2eaf1461006d5780637249fbb6146100a2578063c0a88f41146100be575b600080fd5b61006b60048036038101906100669190610f34565b6100da565b005b61008760048036038101906100829190610f34565b6103fa565b60405161009996959493929190611091565b60405180910390f35b6100bc60048036038101906100b79190610f34565b6104a3565b005b6100d860048036038101906100d3919061114a565b61082d565b005b80600073ffffffffffffffffffffffffffffffffffffffff1660008083815260200190815260200160002060000160009054906101000a900473ffffffffffffffffffffffffffffffffffffffff1673ffffffffffffffffffffffffffffffffffffffff160361017f576040517f08c379a000000000000000000000000000000000000000000000000000000000815260040161017690611222565b60405180910390fd5b81600060028111156101945761019361101a565b5b60008083815260200190815260200160002060050160009054906101000a900460ff1660028111156101c9576101c861101a565b5b14610209576040517f08c379a00000000000000000000000000000000000000000000000000000000081526004016102009061128e565b60405180910390fd5b600080600085815260200190815260200160002090503373ffffffffffffffffffffffffffffffffffffffff168160000160009054906101000a900473ffffffffffffffffffffffffffffffffffffffff1673ffffffffffffffffffffffffffffffffffffffff16036102b1576040517f08c379a00000000000000000000000000000000000000000000000000000000081526004016102a8906112fa565b60405180910390fd5b8060020160009054906101000a900473ffffffffffffffffffffffffffffffffffffffff1673ffffffffffffffffffffffffffffffffffffffff166323b872dd333084600401546040518463ffffffff1660e01b81526004016103169392919061131a565b6020604051808303816000875af1158015610335573d6000803e3d6000fd5b505050506040513d601f19601f820116820180604052508101906103599190611389565b610398576040517f08c379a000000000000000000000000000000000000000000000000000000000815260040161038f90611402565b60405180910390fd5b6103a184610c45565b3373ffffffffffffffffffffffffffffffffffffffff16847f01f065322c1eac265fbcd003e081771bd7769ec5d82cd23c9f2e00e5f71113cd83600401546040516103ec9190611422565b60405180910390a350505050565b60006020528060005260406000206000915090508060000160009054906101000a900473ffffffffffffffffffffffffffffffffffffffff16908060010160009054906101000a900473ffffffffffffffffffffffffffffffffffffffff16908060020160009054906101000a900473ffffffffffffffffffffffffffffffffffffffff16908060030154908060040154908060050160009054906101000a900460ff16905086565b80600073ffffffffffffffffffffffffffffffffffffffff1660008083815260200190815260200160002060000160009054906101000a900473ffffffffffffffffffffffffffffffffffffffff1673ffffffffffffffffffffffffffffffffffffffff1603610548576040517f08c379a000000000000000000000000000000000000000000000000000000000815260040161053f90611222565b60405180910390fd5b816000600281111561055d5761055c61101a565b5b60008083815260200190815260200160002060050160009054906101000a900460ff1660028111156105925761059161101a565b5b146105d2576040517f08c379a00000000000000000000000000000000000000000000000000000000081526004016105c99061128e565b60405180910390fd5b600080600085815260200190815260200160002090503373ffffffffffffffffffffffffffffffffffffffff168160000160009054906101000a900473ffffffffffffffffffffffffffffffffffffffff1673ffffffffffffffffffffffffffffffffffffffff161461067a576040517f08c379a0000000000000000000000000000000000000000000000000000000008152600401610671906114af565b60405180910390fd5b8060010160009054906101000a900473ffffffffffffffffffffffffffffffffffffffff1673ffffffffffffffffffffffffffffffffffffffff1663a9059cbb8260000160009054906101000a900473ffffffffffffffffffffffffffffffffffffffff1683600301546040518363ffffffff1660e01b81526004016107019291906114cf565b6020604051808303816000875af1158015610720573d6000803e3d6000fd5b505050506040513d601f19601f820116820180604052508101906107449190611389565b610783576040517f08c379a000000000000000000000000000000000000000000000000000000000815260040161077a90611544565b60405180910390fd5b60028160050160006101000a81548160ff021916908360028111156107ab576107aa61101a565b5b02179055508060000160009054906101000a900473ffffffffffffffffffffffffffffffffffffffff1673ffffffffffffffffffffffffffffffffffffffff16847fce1fbacea7f745c89680bdb99975ce1e5f6a7381689e57cc3662f45bbd341a94836003015460405161081f9190611422565b60405180910390a350505050565b84600073ffffffffffffffffffffffffffffffffffffffff1660008083815260200190815260200160002060000160009054906101000a900473ffffffffffffffffffffffffffffffffffffffff1673ffffffffffffffffffffffffffffffffffffffff16146108d2576040517f08c379a00000000000000000000000000000000000000000000000000000000081526004016108c9906115b0565b60405180910390fd5b8373ffffffffffffffffffffffffffffffffffffffff168573ffffffffffffffffffffffffffffffffffffffff1603610940576040517f08c379a000000000000000000000000000000000000000000000000000000000815260040161093790611642565b60405180910390fd5b6040518060c001604052803373ffffffffffffffffffffffffffffffffffffffff1681526020018673ffffffffffffffffffffffffffffffffffffffff1681526020018573ffffffffffffffffffffffffffffffffffffffff168152602001848152602001838152602001600060028111156109bf576109be61101a565b5b81525060008088815260200190815260200160002060008201518160000160006101000a81548173ffffffffffffffffffffffffffffffffffffffff021916908373ffffffffffffffffffffffffffffffffffffffff16021790555060208201518160010160006101000a81548173ffffffffffffffffffffffffffffffffffffffff021916908373ffffffffffffffffffffffffffffffffffffffff16021790555060408201518160020160006101000a81548173ffffffffffffffffffffffffffffffffffffffff021916908373ffffffffffffffffffffffffffffffffffffffff160217905550606082015181600301556080820151816004015560a08201518160050160006101000a81548160ff02191690836002811115610ae857610ae761101a565b5b021790555090505060008087815260200190815260200160002060010160009054906101000a900473ffffffffffffffffffffffffffffffffffffffff1673ffffffffffffffffffffffffffffffffffffffff166323b872dd33306000808b8152602001908152602001600020600301546040518463ffffffff1660e01b8152600401610b779392919061131a565b6020604051808303816000875af1158015610b96573d6000803e3d6000fd5b505050506040513d601f19601f82011682018060405250810190610bba9190611389565b610bf9576040517f08c379a0000000000000000000000000000000000000000000000000000000008152600401610bf090611402565b60405180910390fd5b3373ffffffffffffffffffffffffffffffffffffffff16867f597868596d6ce2373d6cca48fc876374194d4e581dee04262121463a33fa35d960405160405180910390a3505050505050565b600080600083815260200190815260200160002090508060010160009054906101000a900473ffffffffffffffffffffffffffffffffffffffff1673ffffffffffffffffffffffffffffffffffffffff1663a9059cbb3383600301546040518363ffffffff1660e01b8152600401610cbe9291906114cf565b6020604051808303816000875af1158015610cdd573d6000803e3d6000fd5b505050506040513d601f19601f82011682018060405250810190610d019190611389565b610d40576040517f08c379a0000000000000000000000000000000000000000000000000000000008152600401610d37906116ae565b60405180910390fd5b8060020160009054906101000a900473ffffffffffffffffffffffffffffffffffffffff1673ffffffffffffffffffffffffffffffffffffffff1663a9059cbb8260000160009054906101000a900473ffffffffffffffffffffffffffffffffffffffff1683600401546040518363ffffffff1660e01b8152600401610dc79291906114cf565b6020604051808303816000875af1158015610de6573d6000803e3d6000fd5b505050506040513d601f19601f82011682018060405250810190610e0a9190611389565b610e49576040517f08c379a0000000000000000000000000000000000000000000000000000000008152600401610e40906116ae565b60405180910390fd5b60018160050160006101000a81548160ff02191690836002811115610e7157610e7061101a565b5b02179055503373ffffffffffffffffffffffffffffffffffffffff168160000160009054906101000a900473ffffffffffffffffffffffffffffffffffffffff1673ffffffffffffffffffffffffffffffffffffffff16837f25ba91fac1454f9bc07a738e2efff96f184334bc009f12fcf60f6be2b2cbb97160405160405180910390a45050565b600080fd5b6000819050919050565b610f1181610efe565b8114610f1c57600080fd5b50565b600081359050610f2e81610f08565b92915050565b600060208284031215610f4a57610f49610ef9565b5b6000610f5884828501610f1f565b91505092915050565b600073ffffffffffffffffffffffffffffffffffffffff82169050919050565b6000610f8c82610f61565b9050919050565b610f9c81610f81565b82525050565b6000819050919050565b6000610fc7610fc2610fbd84610f61565b610fa2565b610f61565b9050919050565b6000610fd982610fac565b9050919050565b6000610feb82610fce565b9050919050565b610ffb81610fe0565b82525050565b6000819050919050565b61101481611001565b82525050565b7f4e487b7100000000000000000000000000000000000000000000000000000000600052602160045260246000fd5b6003811061105a5761105961101a565b5b50565b600081905061106b82611049565b919050565b600061107b8261105d565b9050919050565b61108b81611070565b82525050565b600060c0820190506110a66000830189610f93565b6110b36020830188610ff2565b6110c06040830187610ff2565b6110cd606083018661100b565b6110da608083018561100b565b6110e760a0830184611082565b979650505050505050565b6110fb81610f81565b811461110657600080fd5b50565b600081359050611118816110f2565b92915050565b61112781611001565b811461113257600080fd5b50565b6000813590506111448161111e565b92915050565b600080600080600060a0868803121561116657611165610ef9565b5b600061117488828901610f1f565b955050602061118588828901611109565b945050604061119688828901611109565b93505060606111a788828901611135565b92505060806111b888828901611135565b9150509295509295909350565b600082825260208201905092915050565b7f54686973206f7264657220646f65736e27742065786973747300000000000000600082015250565b600061120c6019836111c5565b9150611217826111d6565b602082019050919050565b6000602082019050818103600083015261123b816111ff565b9050919050565b7f54686973207472616e73616374696f6e20686173206265656e20646f6e650000600082015250565b6000611278601e836111c5565b915061128382611242565b602082019050919050565b600060208201905081810360008301526112a78161126b565b9050919050565b7f43616e27742061636365707420627920796f75722073656c6621203d29290000600082015250565b60006112e4601e836111c5565b91506112ef826112ae565b602082019050919050565b60006020820190508181036000830152611313816112d7565b9050919050565b600060608201905061132f6000830186610f93565b61133c6020830185610f93565b611349604083018461100b565b949350505050565b60008115159050919050565b61136681611351565b811461137157600080fd5b50565b6000815190506113838161135d565b92915050565b60006020828403121561139f5761139e610ef9565b5b60006113ad84828501611374565b91505092915050565b7f5472616e7366657220746f20636f6e7472616374206661696c65640000000000600082015250565b60006113ec601b836111c5565b91506113f7826113b6565b602082019050919050565b6000602082019050818103600083015261141b816113df565b9050919050565b6000602082019050611437600083018461100b565b92915050565b7f4f6e6c79206f776e65722063616e20726566756e642074686973207472616e7360008201527f616374696f6e0000000000000000000000000000000000000000000000000000602082015250565b60006114996026836111c5565b91506114a48261143d565b604082019050919050565b600060208201905081810360008301526114c88161148c565b9050919050565b60006040820190506114e46000830185610f93565b6114f1602083018461100b565b9392505050565b7f526566756e64206661696c656400000000000000000000000000000000000000600082015250565b600061152e600d836111c5565b9150611539826114f8565b602082019050919050565b6000602082019050818103600083015261155d81611521565b9050919050565b7f4475706c6963617465206f726465722062792069640000000000000000000000600082015250565b600061159a6015836111c5565b91506115a582611564565b602082019050919050565b600060208201905081810360008301526115c98161158d565b9050919050565b7f4f6e6c792073776170206265747765656e2074776f20646966666572656e742060008201527f746f6b656e000000000000000000000000000000000000000000000000000000602082015250565b600061162c6025836111c5565b9150611637826115d0565b604082019050919050565b6000602082019050818103600083015261165b8161161f565b9050919050565b7f53776170206661696c6564000000000000000000000000000000000000000000600082015250565b6000611698600b836111c5565b91506116a382611662565b602082019050919050565b600060208201905081810360008301526116c78161168b565b905091905056fea2646970667358221220daaa68adc1f05079e855f3b11c1feebfeab7356a827e7147f412ddf2935a21d464736f6c63430008120033",
  "linkReferences": {},
  "deployedLinkReferences": {}
}