{
  "_format": "hh-sol-artifact-1",
  "contractName": "Swapper",
  "sourceName": "contracts/Swapper.sol",
  "abi": [
    {
      "inputs": [],
      "stateMutability": "nonpayable",
      "type": "constructor"
    },
    {
      "anonymous": false,
      "inputs": [
        {
          "indexed": true,
          "internalType": "string",
          "name": "txId",
          "type": "string"
        },
        {
          "indexed": true,
          "internalType": "address",
          "name": "to",
          "type": "address"
        }
      ],
      "name": "accepted",
      "type": "event"
    },
    {
      "anonymous": false,
      "inputs": [
        {
          "indexed": true,
          "internalType": "string",
          "name": "txId",
          "type": "string"
        },
        {
          "indexed": true,
          "internalType": "address",
          "name": "from",
          "type": "address"
        },
        {
          "indexed": false,
          "internalType": "uint256",
          "name": "amount",
          "type": "uint256"
        }
      ],
      "name": "canceled",
      "type": "event"
    },
    {
      "anonymous": false,
      "inputs": [
        {
          "indexed": true,
          "internalType": "string",
          "name": "txId",
          "type": "string"
        },
        {
          "indexed": true,
          "internalType": "address",
          "name": "from",
          "type": "address"
        },
        {
          "indexed": true,
          "internalType": "address",
          "name": "to",
          "type": "address"
        }
      ],
      "name": "swapSuccessfully",
      "type": "event"
    },
    {
      "inputs": [
        {
          "internalType": "string",
          "name": "txId",
          "type": "string"
        }
      ],
      "name": "acceptTx",
      "outputs": [],
      "stateMutability": "nonpayable",
      "type": "function"
    },
    {
      "inputs": [
        {
          "internalType": "string",
          "name": "id",
          "type": "string"
        },
        {
          "internalType": "address",
          "name": "tokenFrom",
          "type": "address"
        },
        {
          "internalType": "address",
          "name": "tokenTo",
          "type": "address"
        },
        {
          "internalType": "uint256",
          "name": "amountFrom",
          "type": "uint256"
        },
        {
          "internalType": "uint256",
          "name": "amountTo",
          "type": "uint256"
        },
        {
          "internalType": "uint256",
          "name": "timelock",
          "type": "uint256"
        }
      ],
      "name": "createTx",
      "outputs": [
        {
          "internalType": "bool",
          "name": "",
          "type": "bool"
        }
      ],
      "stateMutability": "nonpayable",
      "type": "function"
    },
    {
      "inputs": [
        {
          "internalType": "string",
          "name": "txId",
          "type": "string"
        }
      ],
      "name": "refund",
      "outputs": [],
      "stateMutability": "nonpayable",
      "type": "function"
    },
    {
      "inputs": [
        {
          "internalType": "string",
          "name": "id",
          "type": "string"
        }
      ],
      "name": "txInfo",
      "outputs": [
        {
          "components": [
            {
              "internalType": "address",
              "name": "from",
              "type": "address"
            },
            {
              "internalType": "address",
              "name": "to",
              "type": "address"
            },
            {
              "internalType": "contract ERC20",
              "name": "token_from",
              "type": "address"
            },
            {
              "internalType": "contract ERC20",
              "name": "token_to",
              "type": "address"
            },
            {
              "internalType": "uint256",
              "name": "amount_from",
              "type": "uint256"
            },
            {
              "internalType": "uint256",
              "name": "amount_to",
              "type": "uint256"
            },
            {
              "internalType": "uint256",
              "name": "timelock",
              "type": "uint256"
            },
            {
              "internalType": "bool",
              "name": "completed",
              "type": "bool"
            },
            {
              "internalType": "bool",
              "name": "refunded",
              "type": "bool"
            }
          ],
          "internalType": "struct Swapper.LockContract",
          "name": "",
          "type": "tuple"
        }
      ],
      "stateMutability": "view",
      "type": "function"
    }
  ],
  "bytecode": "0x608060405234801561001057600080fd5b50611c12806100206000396000f3fe608060405234801561001057600080fd5b506004361061004c5760003560e01c806308e7bd4e146100515780638436e5881461006d578063adb6715b1461009d578063fe5f2e88146100cd575b600080fd5b61006b60048036038101906100669190611279565b6100e9565b005b61008760048036038101906100829190611356565b6104b3565b604051610094919061141a565b60405180910390f35b6100b760048036038101906100b29190611279565b610916565b6040516100c49190611578565b60405180910390f35b6100e760048036038101906100e29190611279565b610afb565b005b600080826040516100fa9190611605565b90815260200160405180910390209050600073ffffffffffffffffffffffffffffffffffffffff168160000160009054906101000a900473ffffffffffffffffffffffffffffffffffffffff1673ffffffffffffffffffffffffffffffffffffffff160361019d576040517f08c379a000000000000000000000000000000000000000000000000000000000815260040161019490611679565b60405180910390fd5b600115158160070160009054906101000a900460ff161515141580156101d95750600115158160070160019054906101000a900460ff16151514155b610218576040517f08c379a000000000000000000000000000000000000000000000000000000000815260040161020f906116e5565b60405180910390fd5b600073ffffffffffffffffffffffffffffffffffffffff168160010160009054906101000a900473ffffffffffffffffffffffffffffffffffffffff1673ffffffffffffffffffffffffffffffffffffffff16146102ab576040517f08c379a00000000000000000000000000000000000000000000000000000000081526004016102a290611777565b60405180910390fd5b3373ffffffffffffffffffffffffffffffffffffffff168160000160009054906101000a900473ffffffffffffffffffffffffffffffffffffffff1673ffffffffffffffffffffffffffffffffffffffff160361033d576040517f08c379a0000000000000000000000000000000000000000000000000000000008152600401610334906117e3565b60405180910390fd5b338160010160006101000a81548173ffffffffffffffffffffffffffffffffffffffff021916908373ffffffffffffffffffffffffffffffffffffffff1602179055508060030160009054906101000a900473ffffffffffffffffffffffffffffffffffffffff1673ffffffffffffffffffffffffffffffffffffffff166323b872dd8260010160009054906101000a900473ffffffffffffffffffffffffffffffffffffffff163084600501546040518463ffffffff1660e01b815260040161040993929190611821565b6020604051808303816000875af1158015610428573d6000803e3d6000fd5b505050506040513d601f19601f8201168201806040525081019061044c9190611884565b503373ffffffffffffffffffffffffffffffffffffffff16826040516104729190611605565b60405180910390207f0336138d0d6740e971d3b9419a52ebe3321907aba03c0a335aa654f7e523ae9860405160405180910390a36104af82610de7565b5050565b60008073ffffffffffffffffffffffffffffffffffffffff166000886040516104dc9190611605565b908152602001604051809103902060000160009054906101000a900473ffffffffffffffffffffffffffffffffffffffff1673ffffffffffffffffffffffffffffffffffffffff1614610564576040517f08c379a000000000000000000000000000000000000000000000000000000000815260040161055b906118fd565b60405180910390fd5b8473ffffffffffffffffffffffffffffffffffffffff168673ffffffffffffffffffffffffffffffffffffffff16036105d2576040517f08c379a00000000000000000000000000000000000000000000000000000000081526004016105c99061198f565b60405180910390fd5b6040518061012001604052803373ffffffffffffffffffffffffffffffffffffffff168152602001600073ffffffffffffffffffffffffffffffffffffffff1681526020018773ffffffffffffffffffffffffffffffffffffffff1681526020018673ffffffffffffffffffffffffffffffffffffffff16815260200185815260200184815260200183610e1061066991906119de565b426106749190611a20565b8152602001600015158152602001600015158152506000886040516106999190611605565b908152602001604051809103902060008201518160000160006101000a81548173ffffffffffffffffffffffffffffffffffffffff021916908373ffffffffffffffffffffffffffffffffffffffff16021790555060208201518160010160006101000a81548173ffffffffffffffffffffffffffffffffffffffff021916908373ffffffffffffffffffffffffffffffffffffffff16021790555060408201518160020160006101000a81548173ffffffffffffffffffffffffffffffffffffffff021916908373ffffffffffffffffffffffffffffffffffffffff16021790555060608201518160030160006101000a81548173ffffffffffffffffffffffffffffffffffffffff021916908373ffffffffffffffffffffffffffffffffffffffff1602179055506080820151816004015560a0820151816005015560c0820151816006015560e08201518160070160006101000a81548160ff0219169083151502179055506101008201518160070160016101000a81548160ff0219169083151502179055509050506000876040516108359190611605565b908152602001604051809103902060020160009054906101000a900473ffffffffffffffffffffffffffffffffffffffff1673ffffffffffffffffffffffffffffffffffffffff166323b872dd333060008b6040516108949190611605565b9081526020016040518091039020600401546040518463ffffffff1660e01b81526004016108c493929190611821565b6020604051808303816000875af11580156108e3573d6000803e3d6000fd5b505050506040513d601f19601f820116820180604052508101906109079190611884565b50600190509695505050505050565b61091e611077565b60008260405161092e9190611605565b9081526020016040518091039020604051806101200160405290816000820160009054906101000a900473ffffffffffffffffffffffffffffffffffffffff1673ffffffffffffffffffffffffffffffffffffffff1673ffffffffffffffffffffffffffffffffffffffff1681526020016001820160009054906101000a900473ffffffffffffffffffffffffffffffffffffffff1673ffffffffffffffffffffffffffffffffffffffff1673ffffffffffffffffffffffffffffffffffffffff1681526020016002820160009054906101000a900473ffffffffffffffffffffffffffffffffffffffff1673ffffffffffffffffffffffffffffffffffffffff1673ffffffffffffffffffffffffffffffffffffffff1681526020016003820160009054906101000a900473ffffffffffffffffffffffffffffffffffffffff1673ffffffffffffffffffffffffffffffffffffffff1673ffffffffffffffffffffffffffffffffffffffff1681526020016004820154815260200160058201548152602001600682015481526020016007820160009054906101000a900460ff161515151581526020016007820160019054906101000a900460ff1615151515815250509050919050565b60008082604051610b0c9190611605565b90815260200160405180910390209050600015158160070160009054906101000a900460ff161515148015610b565750600015158160070160019054906101000a900460ff161515145b610b95576040517f08c379a0000000000000000000000000000000000000000000000000000000008152600401610b8c90611aa0565b60405180910390fd5b600073ffffffffffffffffffffffffffffffffffffffff168160010160009054906101000a900473ffffffffffffffffffffffffffffffffffffffff1673ffffffffffffffffffffffffffffffffffffffff1614610c28576040517f08c379a0000000000000000000000000000000000000000000000000000000008152600401610c1f90611b0c565b60405180910390fd5b4281600601541115610c6f576040517f08c379a0000000000000000000000000000000000000000000000000000000008152600401610c6690611b78565b60405180910390fd5b8060020160009054906101000a900473ffffffffffffffffffffffffffffffffffffffff1673ffffffffffffffffffffffffffffffffffffffff1663a9059cbb8260000160009054906101000a900473ffffffffffffffffffffffffffffffffffffffff1683600401546040518363ffffffff1660e01b8152600401610cf6929190611b98565b6020604051808303816000875af1158015610d15573d6000803e3d6000fd5b505050506040513d601f19601f82011682018060405250810190610d399190611884565b5060018160070160016101000a81548160ff0219169083151502179055508060000160009054906101000a900473ffffffffffffffffffffffffffffffffffffffff1673ffffffffffffffffffffffffffffffffffffffff1682604051610da09190611605565b60405180910390207fc2168e7e46be79bcca0b1346c64e2652da4d4755f2b02c84e154691ef5df1ebb8360040154604051610ddb9190611bc1565b60405180910390a35050565b60008082604051610df89190611605565b908152602001604051809103902090508060020160009054906101000a900473ffffffffffffffffffffffffffffffffffffffff1673ffffffffffffffffffffffffffffffffffffffff1663a9059cbb8260010160009054906101000a900473ffffffffffffffffffffffffffffffffffffffff1683600401546040518363ffffffff1660e01b8152600401610e8f929190611b98565b6020604051808303816000875af1158015610eae573d6000803e3d6000fd5b505050506040513d601f19601f82011682018060405250810190610ed29190611884565b508060030160009054906101000a900473ffffffffffffffffffffffffffffffffffffffff1673ffffffffffffffffffffffffffffffffffffffff1663a9059cbb8260000160009054906101000a900473ffffffffffffffffffffffffffffffffffffffff1683600501546040518363ffffffff1660e01b8152600401610f5a929190611b98565b6020604051808303816000875af1158015610f79573d6000803e3d6000fd5b505050506040513d601f19601f82011682018060405250810190610f9d9190611884565b5060018160070160006101000a81548160ff0219169083151502179055508060010160009054906101000a900473ffffffffffffffffffffffffffffffffffffffff1673ffffffffffffffffffffffffffffffffffffffff168160000160009054906101000a900473ffffffffffffffffffffffffffffffffffffffff1673ffffffffffffffffffffffffffffffffffffffff168360405161103f9190611605565b60405180910390207fec7c41b2cb9af6edfd611e0a23777045ed02c9ac42333b0bac52bbd92d9ddbdc60405160405180910390a45050565b604051806101200160405280600073ffffffffffffffffffffffffffffffffffffffff168152602001600073ffffffffffffffffffffffffffffffffffffffff168152602001600073ffffffffffffffffffffffffffffffffffffffff168152602001600073ffffffffffffffffffffffffffffffffffffffff1681526020016000815260200160008152602001600081526020016000151581526020016000151581525090565b6000604051905090565b600080fd5b600080fd5b600080fd5b600080fd5b6000601f19601f8301169050919050565b7f4e487b7100000000000000000000000000000000000000000000000000000000600052604160045260246000fd5b6111868261113d565b810181811067ffffffffffffffff821117156111a5576111a461114e565b5b80604052505050565b60006111b861111f565b90506111c4828261117d565b919050565b600067ffffffffffffffff8211156111e4576111e361114e565b5b6111ed8261113d565b9050602081019050919050565b82818337600083830152505050565b600061121c611217846111c9565b6111ae565b90508281526020810184848401111561123857611237611138565b5b6112438482856111fa565b509392505050565b600082601f8301126112605761125f611133565b5b8135611270848260208601611209565b91505092915050565b60006020828403121561128f5761128e611129565b5b600082013567ffffffffffffffff8111156112ad576112ac61112e565b5b6112b98482850161124b565b91505092915050565b600073ffffffffffffffffffffffffffffffffffffffff82169050919050565b60006112ed826112c2565b9050919050565b6112fd816112e2565b811461130857600080fd5b50565b60008135905061131a816112f4565b92915050565b6000819050919050565b61133381611320565b811461133e57600080fd5b50565b6000813590506113508161132a565b92915050565b60008060008060008060c0878903121561137357611372611129565b5b600087013567ffffffffffffffff8111156113915761139061112e565b5b61139d89828a0161124b565b96505060206113ae89828a0161130b565b95505060406113bf89828a0161130b565b94505060606113d089828a01611341565b93505060806113e189828a01611341565b92505060a06113f289828a01611341565b9150509295509295509295565b60008115159050919050565b611414816113ff565b82525050565b600060208201905061142f600083018461140b565b92915050565b61143e816112e2565b82525050565b6000819050919050565b600061146961146461145f846112c2565b611444565b6112c2565b9050919050565b600061147b8261144e565b9050919050565b600061148d82611470565b9050919050565b61149d81611482565b82525050565b6114ac81611320565b82525050565b6114bb816113ff565b82525050565b610120820160008201516114d86000850182611435565b5060208201516114eb6020850182611435565b5060408201516114fe6040850182611494565b5060608201516115116060850182611494565b50608082015161152460808501826114a3565b5060a082015161153760a08501826114a3565b5060c082015161154a60c08501826114a3565b5060e082015161155d60e08501826114b2565b506101008201516115726101008501826114b2565b50505050565b60006101208201905061158e60008301846114c1565b92915050565b600081519050919050565b600081905092915050565b60005b838110156115c85780820151818401526020810190506115ad565b60008484015250505050565b60006115df82611594565b6115e9818561159f565b93506115f98185602086016115aa565b80840191505092915050565b600061161182846115d4565b915081905092915050565b600082825260208201905092915050565b7f54686973207472616e73616374696f6e20646f65736e27742065786973747300600082015250565b6000611663601f8361161c565b915061166e8261162d565b602082019050919050565b6000602082019050818103600083015261169281611656565b9050919050565b7f54686973207472616e73616374696f6e20686173206265656e20646f6e650000600082015250565b60006116cf601e8361161c565b91506116da82611699565b602082019050919050565b600060208201905081810360008301526116fe816116c2565b9050919050565b7f54686973207472616e73616374696f6e20686173206265656e2061636365707460008201527f656420627920616e6f7468657220757365720000000000000000000000000000602082015250565b600061176160328361161c565b915061176c82611705565b604082019050919050565b6000602082019050818103600083015261179081611754565b9050919050565b7f43616e27742061636365707420627920796f75722073656c6621203d29290000600082015250565b60006117cd601e8361161c565b91506117d882611797565b602082019050919050565b600060208201905081810360008301526117fc816117c0565b9050919050565b61180c816112e2565b82525050565b61181b81611320565b82525050565b60006060820190506118366000830186611803565b6118436020830185611803565b6118506040830184611812565b949350505050565b611861816113ff565b811461186c57600080fd5b50565b60008151905061187e81611858565b92915050565b60006020828403121561189a57611899611129565b5b60006118a88482850161186f565b91505092915050565b7f4475706c6963617465207472616e73616374696f6e2062792069640000000000600082015250565b60006118e7601b8361161c565b91506118f2826118b1565b602082019050919050565b60006020820190508181036000830152611916816118da565b9050919050565b7f4f6e6c792073776170206265747765656e2074776f20646966666572656e742060008201527f746f6b656e000000000000000000000000000000000000000000000000000000602082015250565b600061197960258361161c565b91506119848261191d565b604082019050919050565b600060208201905081810360008301526119a88161196c565b9050919050565b7f4e487b7100000000000000000000000000000000000000000000000000000000600052601160045260246000fd5b60006119e982611320565b91506119f483611320565b9250828202611a0281611320565b91508282048414831517611a1957611a186119af565b5b5092915050565b6000611a2b82611320565b9150611a3683611320565b9250828201905080821115611a4e57611a4d6119af565b5b92915050565b7f43616e277420726566756e640000000000000000000000000000000000000000600082015250565b6000611a8a600c8361161c565b9150611a9582611a54565b602082019050919050565b60006020820190508181036000830152611ab981611a7d565b9050919050565b7f5472616e73616374696f6e20697320696e2070726f6772657373000000000000600082015250565b6000611af6601a8361161c565b9150611b0182611ac0565b602082019050919050565b60006020820190508181036000830152611b2581611ae9565b9050919050565b7f546f6f206561726c7920746f20726566756e6400000000000000000000000000600082015250565b6000611b6260138361161c565b9150611b6d82611b2c565b602082019050919050565b60006020820190508181036000830152611b9181611b55565b9050919050565b6000604082019050611bad6000830185611803565b611bba6020830184611812565b9392505050565b6000602082019050611bd66000830184611812565b9291505056fea264697066735822122041c0e83391aa72ef7e9da11277fc9e6c0a35740dbdfdfadaf30b453188226d8264736f6c63430008120033",
  "linkReferences": {},
  "deployedLinkReferences": {}
}