{
    "_format": "hh-sol-artifact-1",
    "contractName": "SwapTwoChain",
    "sourceName": "contracts/SwapTwoChain.sol",
    "abi": [
        {
            "inputs": [],
            "stateMutability": "nonpayable",
            "type": "constructor"
        },
        {
            "anonymous": false,
            "inputs": [
                {
                    "indexed": false,
                    "internalType": "address",
                    "name": "from",
                    "type": "address"
                },
                {
                    "indexed": false,
                    "internalType": "uint256",
                    "name": "amount",
                    "type": "uint256"
                }
            ],
            "name": "canceled",
            "type": "event"
        },
        {
            "anonymous": false,
            "inputs": [
                {
                    "indexed": false,
                    "internalType": "address",
                    "name": "from",
                    "type": "address"
                },
                {
                    "indexed": false,
                    "internalType": "uint256",
                    "name": "amount",
                    "type": "uint256"
                }
            ],
            "name": "withdrawn",
            "type": "event"
        },
        {
            "inputs": [
                {
                    "internalType": "string",
                    "name": "id",
                    "type": "string"
                },
                {
                    "internalType": "address",
                    "name": "receiver",
                    "type": "address"
                },
                {
                    "internalType": "address",
                    "name": "token",
                    "type": "address"
                },
                {
                    "internalType": "uint256",
                    "name": "amount",
                    "type": "uint256"
                },
                {
                    "internalType": "string",
                    "name": "key",
                    "type": "string"
                },
                {
                    "internalType": "bytes32",
                    "name": "hashlock",
                    "type": "bytes32"
                },
                {
                    "internalType": "uint256",
                    "name": "timelock",
                    "type": "uint256"
                }
            ],
            "name": "create",
            "outputs": [
                {
                    "internalType": "bool",
                    "name": "",
                    "type": "bool"
                }
            ],
            "stateMutability": "nonpayable",
            "type": "function"
        },
        {
            "inputs": [
                {
                    "internalType": "string",
                    "name": "txId",
                    "type": "string"
                }
            ],
            "name": "getSecretKey",
            "outputs": [
                {
                    "internalType": "string",
                    "name": "",
                    "type": "string"
                }
            ],
            "stateMutability": "view",
            "type": "function"
        },
        {
            "inputs": [
                {
                    "internalType": "string",
                    "name": "txId",
                    "type": "string"
                }
            ],
            "name": "isEndLockContract",
            "outputs": [
                {
                    "internalType": "bool",
                    "name": "",
                    "type": "bool"
                }
            ],
            "stateMutability": "view",
            "type": "function"
        },
        {
            "inputs": [
                {
                    "internalType": "string",
                    "name": "txId",
                    "type": "string"
                }
            ],
            "name": "isRefunded",
            "outputs": [
                {
                    "internalType": "bool",
                    "name": "",
                    "type": "bool"
                }
            ],
            "stateMutability": "view",
            "type": "function"
        },
        {
            "inputs": [
                {
                    "internalType": "string",
                    "name": "txId",
                    "type": "string"
                },
                {
                    "internalType": "uint256",
                    "name": "nonce",
                    "type": "uint256"
                },
                {
                    "internalType": "bytes",
                    "name": "signatureAdmin",
                    "type": "bytes"
                }
            ],
            "name": "refund",
            "outputs": [],
            "stateMutability": "nonpayable",
            "type": "function"
        },
        {
            "inputs": [
                {
                    "internalType": "string",
                    "name": "txId",
                    "type": "string"
                },
                {
                    "internalType": "string",
                    "name": "_key",
                    "type": "string"
                }
            ],
            "name": "withdraw",
            "outputs": [],
            "stateMutability": "nonpayable",
            "type": "function"
        }
    ],
    "bytecode": "0x608060405234801561001057600080fd5b50336000806101000a81548173ffffffffffffffffffffffffffffffffffffffff021916908373ffffffffffffffffffffffffffffffffffffffff16021790555061286e806100606000396000f3fe608060405234801561001057600080fd5b50600436106100625760003560e01c806302db271314610067578063073379f61461009757806320b2e7bf146100b35780632f0bb145146100cf578063b49cba74146100ff578063cf413f951461012f575b600080fd5b610081600480360381019061007c91906117ae565b61015f565b60405161008e9190611876565b60405180910390f35b6100b160048036038101906100ac919061196f565b610371565b005b6100cd60048036038101906100c891906119fa565b610677565b005b6100e960048036038101906100e49190611b06565b6109a7565b6040516100f69190611bfb565b60405180910390f35b610119600480360381019061011491906117ae565b610da2565b6040516101269190611bfb565b60405180910390f35b610149600480360381019061014491906117ae565b611089565b6040516101569190611bfb565b60405180910390f35b6060600073ffffffffffffffffffffffffffffffffffffffff166001836040516101899190611c52565b908152602001604051809103902060000160009054906101000a900473ffffffffffffffffffffffffffffffffffffffff1673ffffffffffffffffffffffffffffffffffffffff1603610211576040517f08c379a000000000000000000000000000000000000000000000000000000000815260040161020890611cb5565b60405180910390fd5b3373ffffffffffffffffffffffffffffffffffffffff166001836040516102389190611c52565b908152602001604051809103902060000160009054906101000a900473ffffffffffffffffffffffffffffffffffffffff1673ffffffffffffffffffffffffffffffffffffffff16146102c0576040517f08c379a00000000000000000000000000000000000000000000000000000000081526004016102b790611d47565b60405180910390fd5b6001826040516102d09190611c52565b908152602001604051809103902060040180546102ec90611d96565b80601f016020809104026020016040519081016040528092919081815260200182805461031890611d96565b80156103655780601f1061033a57610100808354040283529160200191610365565b820191906000526020600020905b81548152906001019060200180831161034857829003601f168201915b50505050509050919050565b600083338460405160200161038893929190611e30565b60405160208183030381529060405280519060200120905060006103ab8261135e565b90506103b78184611394565b73ffffffffffffffffffffffffffffffffffffffff1660008054906101000a900473ffffffffffffffffffffffffffffffffffffffff1673ffffffffffffffffffffffffffffffffffffffff1614610444576040517f08c379a000000000000000000000000000000000000000000000000000000000815260040161043b90611eb5565b60405180910390fd5b60006001866040516104569190611c52565b90815260200160405180910390209050600015158160070160009054906101000a900460ff1615151480156104a05750600015158160070160019054906101000a900460ff161515145b6104df576040517f08c379a00000000000000000000000000000000000000000000000000000000081526004016104d690611f21565b60405180910390fd5b4281600601541115610526576040517f08c379a000000000000000000000000000000000000000000000000000000000815260040161051d90611f8d565b60405180910390fd5b8060020160009054906101000a900473ffffffffffffffffffffffffffffffffffffffff1673ffffffffffffffffffffffffffffffffffffffff1663a9059cbb8260000160009054906101000a900473ffffffffffffffffffffffffffffffffffffffff1683600301546040518363ffffffff1660e01b81526004016105ad929190611fcb565b6020604051808303816000875af11580156105cc573d6000803e3d6000fd5b505050506040513d601f19601f820116820180604052508101906105f09190612020565b5060018160070160016101000a81548160ff0219169083151502179055507fb0fff5d2b17a855b0a22a0965386bcf2f7a8a364c81497c7ea721f3b771ba47e8160000160009054906101000a900473ffffffffffffffffffffffffffffffffffffffff168260030154604051610667929190611fcb565b60405180910390a1505050505050565b60006001836040516106899190611c52565b90815260200160405180910390209050600015158160070160019054906101000a900460ff161515146106f1576040517f08c379a00000000000000000000000000000000000000000000000000000000081526004016106e890612099565b60405180910390fd5b600015158160070160009054906101000a900460ff16151514610749576040517f08c379a000000000000000000000000000000000000000000000000000000000815260040161074090612105565b60405180910390fd5b3373ffffffffffffffffffffffffffffffffffffffff168160010160009054906101000a900473ffffffffffffffffffffffffffffffffffffffff1673ffffffffffffffffffffffffffffffffffffffff16146107db576040517f08c379a00000000000000000000000000000000000000000000000000000000081526004016107d290612171565b60405180910390fd5b8060050154826040516020016107f19190611c52565b6040516020818303038152906040528051906020012014610847576040517f08c379a000000000000000000000000000000000000000000000000000000000815260040161083e906121dd565b60405180910390fd5b8060020160009054906101000a900473ffffffffffffffffffffffffffffffffffffffff1673ffffffffffffffffffffffffffffffffffffffff1663a9059cbb8260010160009054906101000a900473ffffffffffffffffffffffffffffffffffffffff1683600301546040518363ffffffff1660e01b81526004016108ce929190611fcb565b6020604051808303816000875af11580156108ed573d6000803e3d6000fd5b505050506040513d601f19601f820116820180604052508101906109119190612020565b508181600401908161092391906123a9565b5060018160070160006101000a81548160ff0219169083151502179055507f6fb24f3ad0678f9d138e80b17293be051d87911eb34e9e60f0d1b9c3805e885a8160010160009054906101000a900473ffffffffffffffffffffffffffffffffffffffff16826003015460405161099a929190611fcb565b60405180910390a1505050565b60008073ffffffffffffffffffffffffffffffffffffffff166001896040516109d09190611c52565b908152602001604051809103902060000160009054906101000a900473ffffffffffffffffffffffffffffffffffffffff1673ffffffffffffffffffffffffffffffffffffffff1614610a58576040517f08c379a0000000000000000000000000000000000000000000000000000000008152600401610a4f906124c7565b60405180910390fd5b8673ffffffffffffffffffffffffffffffffffffffff163373ffffffffffffffffffffffffffffffffffffffff1603610ac6576040517f08c379a0000000000000000000000000000000000000000000000000000000008152600401610abd90612533565b60405180910390fd5b6040518061012001604052803373ffffffffffffffffffffffffffffffffffffffff1681526020018873ffffffffffffffffffffffffffffffffffffffff1681526020018773ffffffffffffffffffffffffffffffffffffffff16815260200186815260200185815260200184815260200183610e10610b469190612582565b42610b5191906125c4565b815260200160001515815260200160001515815250600189604051610b769190611c52565b908152602001604051809103902060008201518160000160006101000a81548173ffffffffffffffffffffffffffffffffffffffff021916908373ffffffffffffffffffffffffffffffffffffffff16021790555060208201518160010160006101000a81548173ffffffffffffffffffffffffffffffffffffffff021916908373ffffffffffffffffffffffffffffffffffffffff16021790555060408201518160020160006101000a81548173ffffffffffffffffffffffffffffffffffffffff021916908373ffffffffffffffffffffffffffffffffffffffff160217905550606082015181600301556080820151816004019081610c7891906123a9565b5060a0820151816005015560c0820151816006015560e08201518160070160006101000a81548160ff0219169083151502179055506101008201518160070160016101000a81548160ff021916908315150217905550905050600188604051610ce19190611c52565b908152602001604051809103902060020160009054906101000a900473ffffffffffffffffffffffffffffffffffffffff1673ffffffffffffffffffffffffffffffffffffffff166323b872dd3330886040518463ffffffff1660e01b8152600401610d4f939291906125f8565b6020604051808303816000875af1158015610d6e573d6000803e3d6000fd5b505050506040513d601f19601f82011682018060405250810190610d929190612020565b5060019050979650505050505050565b60008073ffffffffffffffffffffffffffffffffffffffff16600183604051610dcb9190611c52565b908152602001604051809103902060000160009054906101000a900473ffffffffffffffffffffffffffffffffffffffff1673ffffffffffffffffffffffffffffffffffffffff1603610e53576040517f08c379a0000000000000000000000000000000000000000000000000000000008152600401610e4a90611cb5565b60405180910390fd5b6000600183604051610e659190611c52565b9081526020016040518091039020604051806101200160405290816000820160009054906101000a900473ffffffffffffffffffffffffffffffffffffffff1673ffffffffffffffffffffffffffffffffffffffff1673ffffffffffffffffffffffffffffffffffffffff1681526020016001820160009054906101000a900473ffffffffffffffffffffffffffffffffffffffff1673ffffffffffffffffffffffffffffffffffffffff1673ffffffffffffffffffffffffffffffffffffffff1681526020016002820160009054906101000a900473ffffffffffffffffffffffffffffffffffffffff1673ffffffffffffffffffffffffffffffffffffffff1673ffffffffffffffffffffffffffffffffffffffff16815260200160038201548152602001600482018054610f9b90611d96565b80601f0160208091040260200160405190810160405280929190818152602001828054610fc790611d96565b80156110145780601f10610fe957610100808354040283529160200191611014565b820191906000526020600020905b815481529060010190602001808311610ff757829003601f168201915b5050505050815260200160058201548152602001600682015481526020016007820160009054906101000a900460ff161515151581526020016007820160019054906101000a900460ff1615151515815250509050428160c001511161107e576001915050611084565b60009150505b919050565b60008073ffffffffffffffffffffffffffffffffffffffff166001836040516110b29190611c52565b908152602001604051809103902060000160009054906101000a900473ffffffffffffffffffffffffffffffffffffffff1673ffffffffffffffffffffffffffffffffffffffff160361113a576040517f08c379a000000000000000000000000000000000000000000000000000000000815260040161113190611cb5565b60405180910390fd5b600060018360405161114c9190611c52565b9081526020016040518091039020604051806101200160405290816000820160009054906101000a900473ffffffffffffffffffffffffffffffffffffffff1673ffffffffffffffffffffffffffffffffffffffff1673ffffffffffffffffffffffffffffffffffffffff1681526020016001820160009054906101000a900473ffffffffffffffffffffffffffffffffffffffff1673ffffffffffffffffffffffffffffffffffffffff1673ffffffffffffffffffffffffffffffffffffffff1681526020016002820160009054906101000a900473ffffffffffffffffffffffffffffffffffffffff1673ffffffffffffffffffffffffffffffffffffffff1673ffffffffffffffffffffffffffffffffffffffff1681526020016003820154815260200160048201805461128290611d96565b80601f01602080910402602001604051908101604052809291908181526020018280546112ae90611d96565b80156112fb5780601f106112d0576101008083540402835291602001916112fb565b820191906000526020600020905b8154815290600101906020018083116112de57829003601f168201915b5050505050815260200160058201548152602001600682015481526020016007820160009054906101000a900460ff161515151581526020016007820160019054906101000a900460ff1615151515815250509050806101000151915050919050565b60007f19457468657265756d205369676e6564204d6573736167653a0a33320000000060005281601c52603c6000209050919050565b60008060006113a385856113bb565b915091506113b08161140c565b819250505092915050565b60008060418351036113fc5760008060006020860151925060408601519150606086015160001a90506113f087828585611572565b94509450505050611405565b60006002915091505b9250929050565b600060048111156114205761141f61262f565b5b8160048111156114335761143261262f565b5b031561156f576001600481111561144d5761144c61262f565b5b8160048111156114605761145f61262f565b5b036114a0576040517f08c379a0000000000000000000000000000000000000000000000000000000008152600401611497906126aa565b60405180910390fd5b600260048111156114b4576114b361262f565b5b8160048111156114c7576114c661262f565b5b03611507576040517f08c379a00000000000000000000000000000000000000000000000000000000081526004016114fe90612716565b60405180910390fd5b6003600481111561151b5761151a61262f565b5b81600481111561152e5761152d61262f565b5b0361156e576040517f08c379a0000000000000000000000000000000000000000000000000000000008152600401611565906127a8565b60405180910390fd5b5b50565b6000807f7fffffffffffffffffffffffffffffff5d576e7357a4501ddfe92f46681b20a08360001c11156115ad57600060039150915061164b565b6000600187878787604051600081526020016040526040516115d294939291906127f3565b6020604051602081039080840390855afa1580156115f4573d6000803e3d6000fd5b505050602060405103519050600073ffffffffffffffffffffffffffffffffffffffff168173ffffffffffffffffffffffffffffffffffffffff16036116425760006001925092505061164b565b80600092509250505b94509492505050565b6000604051905090565b600080fd5b600080fd5b600080fd5b600080fd5b6000601f19601f8301169050919050565b7f4e487b7100000000000000000000000000000000000000000000000000000000600052604160045260246000fd5b6116bb82611672565b810181811067ffffffffffffffff821117156116da576116d9611683565b5b80604052505050565b60006116ed611654565b90506116f982826116b2565b919050565b600067ffffffffffffffff82111561171957611718611683565b5b61172282611672565b9050602081019050919050565b82818337600083830152505050565b600061175161174c846116fe565b6116e3565b90508281526020810184848401111561176d5761176c61166d565b5b61177884828561172f565b509392505050565b600082601f83011261179557611794611668565b5b81356117a584826020860161173e565b91505092915050565b6000602082840312156117c4576117c361165e565b5b600082013567ffffffffffffffff8111156117e2576117e1611663565b5b6117ee84828501611780565b91505092915050565b600081519050919050565b600082825260208201905092915050565b60005b83811015611831578082015181840152602081019050611816565b60008484015250505050565b6000611848826117f7565b6118528185611802565b9350611862818560208601611813565b61186b81611672565b840191505092915050565b60006020820190508181036000830152611890818461183d565b905092915050565b6000819050919050565b6118ab81611898565b81146118b657600080fd5b50565b6000813590506118c8816118a2565b92915050565b600067ffffffffffffffff8211156118e9576118e8611683565b5b6118f282611672565b9050602081019050919050565b600061191261190d846118ce565b6116e3565b90508281526020810184848401111561192e5761192d61166d565b5b61193984828561172f565b509392505050565b600082601f83011261195657611955611668565b5b81356119668482602086016118ff565b91505092915050565b6000806000606084860312156119885761198761165e565b5b600084013567ffffffffffffffff8111156119a6576119a5611663565b5b6119b286828701611780565b93505060206119c3868287016118b9565b925050604084013567ffffffffffffffff8111156119e4576119e3611663565b5b6119f086828701611941565b9150509250925092565b60008060408385031215611a1157611a1061165e565b5b600083013567ffffffffffffffff811115611a2f57611a2e611663565b5b611a3b85828601611780565b925050602083013567ffffffffffffffff811115611a5c57611a5b611663565b5b611a6885828601611780565b9150509250929050565b600073ffffffffffffffffffffffffffffffffffffffff82169050919050565b6000611a9d82611a72565b9050919050565b611aad81611a92565b8114611ab857600080fd5b50565b600081359050611aca81611aa4565b92915050565b6000819050919050565b611ae381611ad0565b8114611aee57600080fd5b50565b600081359050611b0081611ada565b92915050565b600080600080600080600060e0888a031215611b2557611b2461165e565b5b600088013567ffffffffffffffff811115611b4357611b42611663565b5b611b4f8a828b01611780565b9750506020611b608a828b01611abb565b9650506040611b718a828b01611abb565b9550506060611b828a828b016118b9565b945050608088013567ffffffffffffffff811115611ba357611ba2611663565b5b611baf8a828b01611780565b93505060a0611bc08a828b01611af1565b92505060c0611bd18a828b016118b9565b91505092959891949750929550565b60008115159050919050565b611bf581611be0565b82525050565b6000602082019050611c106000830184611bec565b92915050565b600081905092915050565b6000611c2c826117f7565b611c368185611c16565b9350611c46818560208601611813565b80840191505092915050565b6000611c5e8284611c21565b915081905092915050565b7f54686973207472616e73616374696f6e20646f65736e27742065786973747300600082015250565b6000611c9f601f83611802565b9150611caa82611c69565b602082019050919050565b60006020820190508181036000830152611cce81611c92565b9050919050565b7f4f6e6c79206f776e65722063616e206765742074686520736563726574206b6560008201527f7900000000000000000000000000000000000000000000000000000000000000602082015250565b6000611d31602183611802565b9150611d3c82611cd5565b604082019050919050565b60006020820190508181036000830152611d6081611d24565b9050919050565b7f4e487b7100000000000000000000000000000000000000000000000000000000600052602260045260246000fd5b60006002820490506001821680611dae57607f821691505b602082108103611dc157611dc0611d67565b5b50919050565b60008160601b9050919050565b6000611ddf82611dc7565b9050919050565b6000611df182611dd4565b9050919050565b611e09611e0482611a92565b611de6565b82525050565b6000819050919050565b611e2a611e2582611898565b611e0f565b82525050565b6000611e3c8286611c21565b9150611e488285611df8565b601482019150611e588284611e19565b602082019150819050949350505050565b7f496e76616c6964207369676e6174757265000000000000000000000000000000600082015250565b6000611e9f601183611802565b9150611eaa82611e69565b602082019050919050565b60006020820190508181036000830152611ece81611e92565b9050919050565b7f43616e277420726566756e640000000000000000000000000000000000000000600082015250565b6000611f0b600c83611802565b9150611f1682611ed5565b602082019050919050565b60006020820190508181036000830152611f3a81611efe565b9050919050565b7f546f6f206561726c7920746f20726566756e6400000000000000000000000000600082015250565b6000611f77601383611802565b9150611f8282611f41565b602082019050919050565b60006020820190508181036000830152611fa681611f6a565b9050919050565b611fb681611a92565b82525050565b611fc581611898565b82525050565b6000604082019050611fe06000830185611fad565b611fed6020830184611fbc565b9392505050565b611ffd81611be0565b811461200857600080fd5b50565b60008151905061201a81611ff4565b92915050565b6000602082840312156120365761203561165e565b5b60006120448482850161200b565b91505092915050565b7f5472616e73616374696f6e20686173206265656e2063616e63656c6564000000600082015250565b6000612083601d83611802565b915061208e8261204d565b602082019050919050565b600060208201905081810360008301526120b281612076565b9050919050565b7f5472616e73616374696f6e20686173206265656e2077697468647261776e0000600082015250565b60006120ef601e83611802565b91506120fa826120b9565b602082019050919050565b6000602082019050818103600083015261211e816120e2565b9050919050565b7f4f6e6c792072656365697665722063616e207769746864726177000000000000600082015250565b600061215b601a83611802565b915061216682612125565b602082019050919050565b6000602082019050818103600083015261218a8161214e565b9050919050565b7f496e636f7272656374206b657900000000000000000000000000000000000000600082015250565b60006121c7600d83611802565b91506121d282612191565b602082019050919050565b600060208201905081810360008301526121f6816121ba565b9050919050565b60008190508160005260206000209050919050565b60006020601f8301049050919050565b600082821b905092915050565b60006008830261225f7fffffffffffffffffffffffffffffffffffffffffffffffffffffffffffffffff82612222565b6122698683612222565b95508019841693508086168417925050509392505050565b6000819050919050565b60006122a66122a161229c84611898565b612281565b611898565b9050919050565b6000819050919050565b6122c08361228b565b6122d46122cc826122ad565b84845461222f565b825550505050565b600090565b6122e96122dc565b6122f48184846122b7565b505050565b5b818110156123185761230d6000826122e1565b6001810190506122fa565b5050565b601f82111561235d5761232e816121fd565b61233784612212565b81016020851015612346578190505b61235a61235285612212565b8301826122f9565b50505b505050565b600082821c905092915050565b600061238060001984600802612362565b1980831691505092915050565b6000612399838361236f565b9150826002028217905092915050565b6123b2826117f7565b67ffffffffffffffff8111156123cb576123ca611683565b5b6123d58254611d96565b6123e082828561231c565b600060209050601f8311600181146124135760008415612401578287015190505b61240b858261238d565b865550612473565b601f198416612421866121fd565b60005b8281101561244957848901518255600182019150602085019450602081019050612424565b868310156124665784890151612462601f89168261236f565b8355505b6001600288020188555050505b505050505050565b7f4475706c6963617465207472616e73616374696f6e2062792069640000000000600082015250565b60006124b1601b83611802565b91506124bc8261247b565b602082019050919050565b600060208201905081810360008301526124e0816124a4565b9050919050565b7f5472616e73616374696f6e20696e76616c696400000000000000000000000000600082015250565b600061251d601383611802565b9150612528826124e7565b602082019050919050565b6000602082019050818103600083015261254c81612510565b9050919050565b7f4e487b7100000000000000000000000000000000000000000000000000000000600052601160045260246000fd5b600061258d82611898565b915061259883611898565b92508282026125a681611898565b915082820484148315176125bd576125bc612553565b5b5092915050565b60006125cf82611898565b91506125da83611898565b92508282019050808211156125f2576125f1612553565b5b92915050565b600060608201905061260d6000830186611fad565b61261a6020830185611fad565b6126276040830184611fbc565b949350505050565b7f4e487b7100000000000000000000000000000000000000000000000000000000600052602160045260246000fd5b7f45434453413a20696e76616c6964207369676e61747572650000000000000000600082015250565b6000612694601883611802565b915061269f8261265e565b602082019050919050565b600060208201905081810360008301526126c381612687565b9050919050565b7f45434453413a20696e76616c6964207369676e6174757265206c656e67746800600082015250565b6000612700601f83611802565b915061270b826126ca565b602082019050919050565b6000602082019050818103600083015261272f816126f3565b9050919050565b7f45434453413a20696e76616c6964207369676e6174757265202773272076616c60008201527f7565000000000000000000000000000000000000000000000000000000000000602082015250565b6000612792602283611802565b915061279d82612736565b604082019050919050565b600060208201905081810360008301526127c181612785565b9050919050565b6127d181611ad0565b82525050565b600060ff82169050919050565b6127ed816127d7565b82525050565b600060808201905061280860008301876127c8565b61281560208301866127e4565b61282260408301856127c8565b61282f60608301846127c8565b9594505050505056fea26469706673582212202a5594662a8c7375473f2e9137e8a47f947c581cde392d844cd8e31ccb9b437664736f6c63430008120033",
    "linkReferences": {},
    "deployedLinkReferences": {}
}