{
  "_format": "hh-sol-artifact-1",
  "contractName": "SwapTwoChain",
  "sourceName": "contracts/SwapTwoChain.sol",
  "abi": [
    {
      "inputs": [],
      "stateMutability": "nonpayable",
      "type": "constructor"
    },
    {
      "anonymous": false,
      "inputs": [
        {
          "indexed": true,
          "internalType": "bytes32",
          "name": "id",
          "type": "bytes32"
        },
        {
          "indexed": true,
          "internalType": "address",
          "name": "from",
          "type": "address"
        },
        {
          "indexed": false,
          "internalType": "uint256",
          "name": "amount",
          "type": "uint256"
        }
      ],
      "name": "canceled",
      "type": "event"
    },
    {
      "anonymous": false,
      "inputs": [
        {
          "indexed": true,
          "internalType": "bytes32",
          "name": "id",
          "type": "bytes32"
        },
        {
          "indexed": true,
          "internalType": "address",
          "name": "from",
          "type": "address"
        }
      ],
      "name": "created",
      "type": "event"
    },
    {
      "anonymous": false,
      "inputs": [
        {
          "indexed": true,
          "internalType": "bytes32",
          "name": "id",
          "type": "bytes32"
        },
        {
          "indexed": true,
          "internalType": "address",
          "name": "from",
          "type": "address"
        },
        {
          "indexed": false,
          "internalType": "uint256",
          "name": "amount",
          "type": "uint256"
        }
      ],
      "name": "withdrawn",
      "type": "event"
    },
    {
      "inputs": [
        {
          "internalType": "bytes32",
          "name": "id",
          "type": "bytes32"
        },
        {
          "internalType": "address",
          "name": "receiver",
          "type": "address"
        },
        {
          "internalType": "address",
          "name": "token",
          "type": "address"
        },
        {
          "internalType": "uint256",
          "name": "amount",
          "type": "uint256"
        },
        {
          "internalType": "bytes32",
          "name": "hashlock",
          "type": "bytes32"
        }
      ],
      "name": "create",
      "outputs": [],
      "stateMutability": "nonpayable",
      "type": "function"
    },
    {
      "inputs": [
        {
          "internalType": "bytes32",
          "name": "txId",
          "type": "bytes32"
        }
      ],
      "name": "isInProgress",
      "outputs": [
        {
          "internalType": "bool",
          "name": "",
          "type": "bool"
        }
      ],
      "stateMutability": "view",
      "type": "function"
    },
    {
      "inputs": [
        {
          "internalType": "bytes32",
          "name": "txId",
          "type": "bytes32"
        },
        {
          "internalType": "uint256",
          "name": "nonce",
          "type": "uint256"
        },
        {
          "internalType": "bytes",
          "name": "signatureAdmin",
          "type": "bytes"
        }
      ],
      "name": "refund",
      "outputs": [],
      "stateMutability": "nonpayable",
      "type": "function"
    },
    {
      "inputs": [
        {
          "internalType": "bytes32",
          "name": "txId",
          "type": "bytes32"
        },
        {
          "internalType": "string",
          "name": "key",
          "type": "string"
        }
      ],
      "name": "withdraw",
      "outputs": [],
      "stateMutability": "nonpayable",
      "type": "function"
    }
  ],
  "bytecode": "0x608060405234801561001057600080fd5b50336000806101000a81548173ffffffffffffffffffffffffffffffffffffffff021916908373ffffffffffffffffffffffffffffffffffffffff160217905550611f24806100606000396000f3fe608060405234801561001057600080fd5b506004361061004c5760003560e01c806306a53665146100515780636d955b241461006d5780636e968b04146100895780637496531b146100b9575b600080fd5b61006b6004803603810190610066919061137d565b6100d5565b005b610087600480360381019061008291906114b0565b6104cf565b005b6100a3600480360381019061009e919061151f565b6108a1565b6040516100b09190611567565b60405180910390f35b6100d360048036038101906100ce91906115e0565b610af1565b005b81600073ffffffffffffffffffffffffffffffffffffffff166001600083815260200190815260200160002060000160009054906101000a900473ffffffffffffffffffffffffffffffffffffffff1673ffffffffffffffffffffffffffffffffffffffff160361017b576040517f08c379a0000000000000000000000000000000000000000000000000000000008152600401610172906116b8565b60405180910390fd5b82600060028111156101905761018f6116d8565b5b6001600083815260200190815260200160002060050160009054906101000a900460ff1660028111156101c6576101c56116d8565b5b14610206576040517f08c379a00000000000000000000000000000000000000000000000000000000081526004016101fd90611753565b60405180910390fd5b60006001600086815260200190815260200160002090503373ffffffffffffffffffffffffffffffffffffffff168160010160009054906101000a900473ffffffffffffffffffffffffffffffffffffffff1673ffffffffffffffffffffffffffffffffffffffff16146102af576040517f08c379a00000000000000000000000000000000000000000000000000000000081526004016102a6906117bf565b60405180910390fd5b8060040154846040516020016102c59190611850565b604051602081830303815290604052805190602001201461031b576040517f08c379a0000000000000000000000000000000000000000000000000000000008152600401610312906118b3565b60405180910390fd5b8060020160009054906101000a900473ffffffffffffffffffffffffffffffffffffffff1673ffffffffffffffffffffffffffffffffffffffff1663a9059cbb8260010160009054906101000a900473ffffffffffffffffffffffffffffffffffffffff1683600301546040518363ffffffff1660e01b81526004016103a29291906118f1565b6020604051808303816000875af11580156103c1573d6000803e3d6000fd5b505050506040513d601f19601f820116820180604052508101906103e59190611946565b610424576040517f08c379a000000000000000000000000000000000000000000000000000000000815260040161041b906119bf565b60405180910390fd5b60018160050160006101000a81548160ff0219169083600281111561044c5761044b6116d8565b5b02179055508060010160009054906101000a900473ffffffffffffffffffffffffffffffffffffffff1673ffffffffffffffffffffffffffffffffffffffff16857f7de9fd34e1c0a314d284fe1553fce3bb38b03aa4af4b88cd82c1f6767ca8cc2883600301546040516104c091906119df565b60405180910390a35050505050565b82600073ffffffffffffffffffffffffffffffffffffffff166001600083815260200190815260200160002060000160009054906101000a900473ffffffffffffffffffffffffffffffffffffffff1673ffffffffffffffffffffffffffffffffffffffff1603610575576040517f08c379a000000000000000000000000000000000000000000000000000000000815260040161056c906116b8565b60405180910390fd5b836000600281111561058a576105896116d8565b5b6001600083815260200190815260200160002060050160009054906101000a900460ff1660028111156105c0576105bf6116d8565b5b14610600576040517f08c379a00000000000000000000000000000000000000000000000000000000081526004016105f790611753565b60405180910390fd5b600085338660405160200161061793929190611a84565b604051602081830303815290604052805190602001209050600061063a82610ef7565b90506106468186610f2d565b73ffffffffffffffffffffffffffffffffffffffff1660008054906101000a900473ffffffffffffffffffffffffffffffffffffffff1673ffffffffffffffffffffffffffffffffffffffff16146106d3576040517f08c379a00000000000000000000000000000000000000000000000000000000081526004016106ca90611b0d565b60405180910390fd5b60006001600089815260200190815260200160002090508060020160009054906101000a900473ffffffffffffffffffffffffffffffffffffffff1673ffffffffffffffffffffffffffffffffffffffff1663a9059cbb8260000160009054906101000a900473ffffffffffffffffffffffffffffffffffffffff1683600301546040518363ffffffff1660e01b81526004016107719291906118f1565b6020604051808303816000875af1158015610790573d6000803e3d6000fd5b505050506040513d601f19601f820116820180604052508101906107b49190611946565b6107f3576040517f08c379a00000000000000000000000000000000000000000000000000000000081526004016107ea90611b79565b60405180910390fd5b60028160050160006101000a81548160ff0219169083600281111561081b5761081a6116d8565b5b02179055508060000160009054906101000a900473ffffffffffffffffffffffffffffffffffffffff1673ffffffffffffffffffffffffffffffffffffffff16887fce1fbacea7f745c89680bdb99975ce1e5f6a7381689e57cc3662f45bbd341a94836003015460405161088f91906119df565b60405180910390a35050505050505050565b600081600073ffffffffffffffffffffffffffffffffffffffff166001600083815260200190815260200160002060000160009054906101000a900473ffffffffffffffffffffffffffffffffffffffff1673ffffffffffffffffffffffffffffffffffffffff1603610949576040517f08c379a0000000000000000000000000000000000000000000000000000000008152600401610940906116b8565b60405180910390fd5b6000600160008581526020019081526020016000206040518060c00160405290816000820160009054906101000a900473ffffffffffffffffffffffffffffffffffffffff1673ffffffffffffffffffffffffffffffffffffffff1673ffffffffffffffffffffffffffffffffffffffff1681526020016001820160009054906101000a900473ffffffffffffffffffffffffffffffffffffffff1673ffffffffffffffffffffffffffffffffffffffff1673ffffffffffffffffffffffffffffffffffffffff1681526020016002820160009054906101000a900473ffffffffffffffffffffffffffffffffffffffff1673ffffffffffffffffffffffffffffffffffffffff1673ffffffffffffffffffffffffffffffffffffffff16815260200160038201548152602001600482015481526020016005820160009054906101000a900460ff166002811115610aa457610aa36116d8565b5b6002811115610ab657610ab56116d8565b5b81525050905060006002811115610ad057610acf6116d8565b5b8160a001516002811115610ae757610ae66116d8565b5b1492505050919050565b84600073ffffffffffffffffffffffffffffffffffffffff166001600083815260200190815260200160002060000160009054906101000a900473ffffffffffffffffffffffffffffffffffffffff1673ffffffffffffffffffffffffffffffffffffffff1614610b97576040517f08c379a0000000000000000000000000000000000000000000000000000000008152600401610b8e90611be5565b60405180910390fd5b8473ffffffffffffffffffffffffffffffffffffffff163373ffffffffffffffffffffffffffffffffffffffff1603610c05576040517f08c379a0000000000000000000000000000000000000000000000000000000008152600401610bfc90611c51565b60405180910390fd5b6040518060c001604052803373ffffffffffffffffffffffffffffffffffffffff1681526020018673ffffffffffffffffffffffffffffffffffffffff1681526020018573ffffffffffffffffffffffffffffffffffffffff16815260200184815260200183815260200160006002811115610c8457610c836116d8565b5b8152506001600088815260200190815260200160002060008201518160000160006101000a81548173ffffffffffffffffffffffffffffffffffffffff021916908373ffffffffffffffffffffffffffffffffffffffff16021790555060208201518160010160006101000a81548173ffffffffffffffffffffffffffffffffffffffff021916908373ffffffffffffffffffffffffffffffffffffffff16021790555060408201518160020160006101000a81548173ffffffffffffffffffffffffffffffffffffffff021916908373ffffffffffffffffffffffffffffffffffffffff160217905550606082015181600301556080820151816004015560a08201518160050160006101000a81548160ff02191690836002811115610dae57610dad6116d8565b5b02179055509050506001600087815260200190815260200160002060020160009054906101000a900473ffffffffffffffffffffffffffffffffffffffff1673ffffffffffffffffffffffffffffffffffffffff166323b872dd3330866040518463ffffffff1660e01b8152600401610e2993929190611c71565b6020604051808303816000875af1158015610e48573d6000803e3d6000fd5b505050506040513d601f19601f82011682018060405250810190610e6c9190611946565b610eab576040517f08c379a0000000000000000000000000000000000000000000000000000000008152600401610ea290611cf4565b60405180910390fd5b3373ffffffffffffffffffffffffffffffffffffffff16867f597868596d6ce2373d6cca48fc876374194d4e581dee04262121463a33fa35d960405160405180910390a3505050505050565b60007f19457468657265756d205369676e6564204d6573736167653a0a33320000000060005281601c52603c6000209050919050565b6000806000610f3c8585610f54565b91509150610f4981610fa5565b819250505092915050565b6000806041835103610f955760008060006020860151925060408601519150606086015160001a9050610f898782858561110b565b94509450505050610f9e565b60006002915091505b9250929050565b60006004811115610fb957610fb86116d8565b5b816004811115610fcc57610fcb6116d8565b5b03156111085760016004811115610fe657610fe56116d8565b5b816004811115610ff957610ff86116d8565b5b03611039576040517f08c379a000000000000000000000000000000000000000000000000000000000815260040161103090611d60565b60405180910390fd5b6002600481111561104d5761104c6116d8565b5b8160048111156110605761105f6116d8565b5b036110a0576040517f08c379a000000000000000000000000000000000000000000000000000000000815260040161109790611dcc565b60405180910390fd5b600360048111156110b4576110b36116d8565b5b8160048111156110c7576110c66116d8565b5b03611107576040517f08c379a00000000000000000000000000000000000000000000000000000000081526004016110fe90611e5e565b60405180910390fd5b5b50565b6000807f7fffffffffffffffffffffffffffffff5d576e7357a4501ddfe92f46681b20a08360001c11156111465760006003915091506111e4565b60006001878787876040516000815260200160405260405161116b9493929190611ea9565b6020604051602081039080840390855afa15801561118d573d6000803e3d6000fd5b505050602060405103519050600073ffffffffffffffffffffffffffffffffffffffff168173ffffffffffffffffffffffffffffffffffffffff16036111db576000600192509250506111e4565b80600092509250505b94509492505050565b6000604051905090565b600080fd5b600080fd5b6000819050919050565b61121481611201565b811461121f57600080fd5b50565b6000813590506112318161120b565b92915050565b600080fd5b600080fd5b6000601f19601f8301169050919050565b7f4e487b7100000000000000000000000000000000000000000000000000000000600052604160045260246000fd5b61128a82611241565b810181811067ffffffffffffffff821117156112a9576112a8611252565b5b80604052505050565b60006112bc6111ed565b90506112c88282611281565b919050565b600067ffffffffffffffff8211156112e8576112e7611252565b5b6112f182611241565b9050602081019050919050565b82818337600083830152505050565b600061132061131b846112cd565b6112b2565b90508281526020810184848401111561133c5761133b61123c565b5b6113478482856112fe565b509392505050565b600082601f83011261136457611363611237565b5b813561137484826020860161130d565b91505092915050565b60008060408385031215611394576113936111f7565b5b60006113a285828601611222565b925050602083013567ffffffffffffffff8111156113c3576113c26111fc565b5b6113cf8582860161134f565b9150509250929050565b6000819050919050565b6113ec816113d9565b81146113f757600080fd5b50565b600081359050611409816113e3565b92915050565b600067ffffffffffffffff82111561142a57611429611252565b5b61143382611241565b9050602081019050919050565b600061145361144e8461140f565b6112b2565b90508281526020810184848401111561146f5761146e61123c565b5b61147a8482856112fe565b509392505050565b600082601f83011261149757611496611237565b5b81356114a7848260208601611440565b91505092915050565b6000806000606084860312156114c9576114c86111f7565b5b60006114d786828701611222565b93505060206114e8868287016113fa565b925050604084013567ffffffffffffffff811115611509576115086111fc565b5b61151586828701611482565b9150509250925092565b600060208284031215611535576115346111f7565b5b600061154384828501611222565b91505092915050565b60008115159050919050565b6115618161154c565b82525050565b600060208201905061157c6000830184611558565b92915050565b600073ffffffffffffffffffffffffffffffffffffffff82169050919050565b60006115ad82611582565b9050919050565b6115bd816115a2565b81146115c857600080fd5b50565b6000813590506115da816115b4565b92915050565b600080600080600060a086880312156115fc576115fb6111f7565b5b600061160a88828901611222565b955050602061161b888289016115cb565b945050604061162c888289016115cb565b935050606061163d888289016113fa565b925050608061164e88828901611222565b9150509295509295909350565b600082825260208201905092915050565b7f54686973206f7264657220646f65736e27742065786973747300000000000000600082015250565b60006116a260198361165b565b91506116ad8261166c565b602082019050919050565b600060208201905081810360008301526116d181611695565b9050919050565b7f4e487b7100000000000000000000000000000000000000000000000000000000600052602160045260246000fd5b7f54686973207472616e73616374696f6e20686173206265656e20646f6e650000600082015250565b600061173d601e8361165b565b915061174882611707565b602082019050919050565b6000602082019050818103600083015261176c81611730565b9050919050565b7f4f6e6c792072656365697665722063616e207769746864726177000000000000600082015250565b60006117a9601a8361165b565b91506117b482611773565b602082019050919050565b600060208201905081810360008301526117d88161179c565b9050919050565b600081519050919050565b600081905092915050565b60005b838110156118135780820151818401526020810190506117f8565b60008484015250505050565b600061182a826117df565b61183481856117ea565b93506118448185602086016117f5565b80840191505092915050565b600061185c828461181f565b915081905092915050565b7f496e636f7272656374206b657900000000000000000000000000000000000000600082015250565b600061189d600d8361165b565b91506118a882611867565b602082019050919050565b600060208201905081810360008301526118cc81611890565b9050919050565b6118dc816115a2565b82525050565b6118eb816113d9565b82525050565b600060408201905061190660008301856118d3565b61191360208301846118e2565b9392505050565b6119238161154c565b811461192e57600080fd5b50565b6000815190506119408161191a565b92915050565b60006020828403121561195c5761195b6111f7565b5b600061196a84828501611931565b91505092915050565b7f5769746864726177206661696c65640000000000000000000000000000000000600082015250565b60006119a9600f8361165b565b91506119b482611973565b602082019050919050565b600060208201905081810360008301526119d88161199c565b9050919050565b60006020820190506119f460008301846118e2565b92915050565b6000819050919050565b611a15611a1082611201565b6119fa565b82525050565b60008160601b9050919050565b6000611a3382611a1b565b9050919050565b6000611a4582611a28565b9050919050565b611a5d611a58826115a2565b611a3a565b82525050565b6000819050919050565b611a7e611a79826113d9565b611a63565b82525050565b6000611a908286611a04565b602082019150611aa08285611a4c565b601482019150611ab08284611a6d565b602082019150819050949350505050565b7f496e76616c6964207369676e6174757265000000000000000000000000000000600082015250565b6000611af760118361165b565b9150611b0282611ac1565b602082019050919050565b60006020820190508181036000830152611b2681611aea565b9050919050565b7f526566756e64206661696c656400000000000000000000000000000000000000600082015250565b6000611b63600d8361165b565b9150611b6e82611b2d565b602082019050919050565b60006020820190508181036000830152611b9281611b56565b9050919050565b7f4475706c6963617465207472616e73616374696f6e2062792069640000000000600082015250565b6000611bcf601b8361165b565b9150611bda82611b99565b602082019050919050565b60006020820190508181036000830152611bfe81611bc2565b9050919050565b7f5472616e73616374696f6e20696e76616c696400000000000000000000000000600082015250565b6000611c3b60138361165b565b9150611c4682611c05565b602082019050919050565b60006020820190508181036000830152611c6a81611c2e565b9050919050565b6000606082019050611c8660008301866118d3565b611c9360208301856118d3565b611ca060408301846118e2565b949350505050565b7f5472616e7366657220746f20636f6e7472616374206661696c65640000000000600082015250565b6000611cde601b8361165b565b9150611ce982611ca8565b602082019050919050565b60006020820190508181036000830152611d0d81611cd1565b9050919050565b7f45434453413a20696e76616c6964207369676e61747572650000000000000000600082015250565b6000611d4a60188361165b565b9150611d5582611d14565b602082019050919050565b60006020820190508181036000830152611d7981611d3d565b9050919050565b7f45434453413a20696e76616c6964207369676e6174757265206c656e67746800600082015250565b6000611db6601f8361165b565b9150611dc182611d80565b602082019050919050565b60006020820190508181036000830152611de581611da9565b9050919050565b7f45434453413a20696e76616c6964207369676e6174757265202773272076616c60008201527f7565000000000000000000000000000000000000000000000000000000000000602082015250565b6000611e4860228361165b565b9150611e5382611dec565b604082019050919050565b60006020820190508181036000830152611e7781611e3b565b9050919050565b611e8781611201565b82525050565b600060ff82169050919050565b611ea381611e8d565b82525050565b6000608082019050611ebe6000830187611e7e565b611ecb6020830186611e9a565b611ed86040830185611e7e565b611ee56060830184611e7e565b9594505050505056fea26469706673582212209fc284957ebc54333d989ddffd5e88c014b27316c9f7ef042571005ad83fcb3f64736f6c63430008120033",
  "linkReferences": {},
  "deployedLinkReferences": {}
}