{
  "_format": "hh-sol-artifact-1",
  "contractName": "SwapTwoChain",
  "sourceName": "contracts/SwapTwoChain.sol",
  "abi": [
    {
      "inputs": [],
      "stateMutability": "nonpayable",
      "type": "constructor"
    },
    {
      "anonymous": false,
      "inputs": [
        {
          "indexed": true,
          "internalType": "bytes32",
          "name": "id",
          "type": "bytes32"
        },
        {
          "indexed": true,
          "internalType": "address",
          "name": "from",
          "type": "address"
        },
        {
          "indexed": false,
          "internalType": "uint256",
          "name": "amount",
          "type": "uint256"
        }
      ],
      "name": "canceled",
      "type": "event"
    },
    {
      "anonymous": false,
      "inputs": [
        {
          "indexed": true,
          "internalType": "bytes32",
          "name": "id",
          "type": "bytes32"
        },
        {
          "indexed": true,
          "internalType": "address",
          "name": "from",
          "type": "address"
        }
      ],
      "name": "created",
      "type": "event"
    },
    {
      "anonymous": false,
      "inputs": [
        {
          "indexed": true,
          "internalType": "bytes32",
          "name": "id",
          "type": "bytes32"
        },
        {
          "indexed": true,
          "internalType": "address",
          "name": "from",
          "type": "address"
        },
        {
          "indexed": false,
          "internalType": "uint256",
          "name": "amount",
          "type": "uint256"
        }
      ],
      "name": "withdrawn",
      "type": "event"
    },
    {
      "inputs": [
        {
          "internalType": "bytes32",
          "name": "id",
          "type": "bytes32"
        },
        {
          "internalType": "address",
          "name": "receiver",
          "type": "address"
        },
        {
          "internalType": "address",
          "name": "token",
          "type": "address"
        },
        {
          "internalType": "uint256",
          "name": "amount",
          "type": "uint256"
        },
        {
          "internalType": "bytes32",
          "name": "hashlock",
          "type": "bytes32"
        },
        {
          "internalType": "bool",
          "name": "isSeller",
          "type": "bool"
        }
      ],
      "name": "create",
      "outputs": [],
      "stateMutability": "nonpayable",
      "type": "function"
    },
    {
      "inputs": [
        {
          "internalType": "bytes32",
          "name": "contractId",
          "type": "bytes32"
        },
        {
          "internalType": "uint256",
          "name": "nonce",
          "type": "uint256"
        },
        {
          "internalType": "bytes",
          "name": "signatureAdmin",
          "type": "bytes"
        }
      ],
      "name": "refund",
      "outputs": [],
      "stateMutability": "nonpayable",
      "type": "function"
    },
    {
      "inputs": [
        {
          "internalType": "bytes32",
          "name": "",
          "type": "bytes32"
        }
      ],
      "name": "transactions",
      "outputs": [
        {
          "internalType": "address",
          "name": "sender",
          "type": "address"
        },
        {
          "internalType": "address",
          "name": "receiver",
          "type": "address"
        },
        {
          "internalType": "contract ERC20",
          "name": "tokenContract",
          "type": "address"
        },
        {
          "internalType": "uint256",
          "name": "amount",
          "type": "uint256"
        },
        {
          "internalType": "string",
          "name": "key",
          "type": "string"
        },
        {
          "internalType": "bytes32",
          "name": "hashlock",
          "type": "bytes32"
        },
        {
          "internalType": "uint256",
          "name": "timelock",
          "type": "uint256"
        },
        {
          "internalType": "enum SwapTwoChain.Status",
          "name": "status",
          "type": "uint8"
        }
      ],
      "stateMutability": "view",
      "type": "function"
    },
    {
      "inputs": [
        {
          "internalType": "bytes32",
          "name": "contractId",
          "type": "bytes32"
        },
        {
          "internalType": "string",
          "name": "key",
          "type": "string"
        }
      ],
      "name": "withdraw",
      "outputs": [],
      "stateMutability": "nonpayable",
      "type": "function"
    }
  ],
  "bytecode": "0x608060405234801561001057600080fd5b50336000806101000a81548173ffffffffffffffffffffffffffffffffffffffff021916908373ffffffffffffffffffffffffffffffffffffffff1602179055506123a5806100606000396000f3fe608060405234801561001057600080fd5b506004361061004c5760003560e01c806306a5366514610051578063642f2eaf1461006d5780636d955b24146100a4578063e45464fd146100c0575b600080fd5b61006b60048036038101906100669190611328565b6100dc565b005b61008760048036038101906100829190611384565b6104e8565b60405161009b98979695949392919061156f565b60405180910390f35b6100be60048036038101906100b991906116c1565b610625565b005b6100da60048036038101906100d59190611794565b6109f7565b005b81600073ffffffffffffffffffffffffffffffffffffffff166001600083815260200190815260200160002060000160009054906101000a900473ffffffffffffffffffffffffffffffffffffffff1673ffffffffffffffffffffffffffffffffffffffff1603610182576040517f08c379a00000000000000000000000000000000000000000000000000000000081526004016101799061186d565b60405180910390fd5b8260006002811115610197576101966114f8565b5b6001600083815260200190815260200160002060070160009054906101000a900460ff1660028111156101cd576101cc6114f8565b5b1461020d576040517f08c379a0000000000000000000000000000000000000000000000000000000008152600401610204906118d9565b60405180910390fd5b60006001600086815260200190815260200160002090503373ffffffffffffffffffffffffffffffffffffffff168160010160009054906101000a900473ffffffffffffffffffffffffffffffffffffffff1673ffffffffffffffffffffffffffffffffffffffff16146102b6576040517f08c379a00000000000000000000000000000000000000000000000000000000081526004016102ad90611945565b60405180910390fd5b8060050154846040516020016102cc91906119a1565b6040516020818303038152906040528051906020012014610322576040517f08c379a000000000000000000000000000000000000000000000000000000000815260040161031990611a04565b60405180910390fd5b8060020160009054906101000a900473ffffffffffffffffffffffffffffffffffffffff1673ffffffffffffffffffffffffffffffffffffffff1663a9059cbb8260010160009054906101000a900473ffffffffffffffffffffffffffffffffffffffff1683600301546040518363ffffffff1660e01b81526004016103a9929190611a24565b6020604051808303816000875af11580156103c8573d6000803e3d6000fd5b505050506040513d601f19601f820116820180604052508101906103ec9190611a62565b61042b576040517f08c379a000000000000000000000000000000000000000000000000000000000815260040161042290611adb565b60405180910390fd5b8381600401908161043c9190611cfd565b5060018160070160006101000a81548160ff02191690836002811115610465576104646114f8565b5b02179055508060010160009054906101000a900473ffffffffffffffffffffffffffffffffffffffff1673ffffffffffffffffffffffffffffffffffffffff16857f7de9fd34e1c0a314d284fe1553fce3bb38b03aa4af4b88cd82c1f6767ca8cc2883600301546040516104d99190611dcf565b60405180910390a35050505050565b60016020528060005260406000206000915090508060000160009054906101000a900473ffffffffffffffffffffffffffffffffffffffff16908060010160009054906101000a900473ffffffffffffffffffffffffffffffffffffffff16908060020160009054906101000a900473ffffffffffffffffffffffffffffffffffffffff169080600301549080600401805461058390611b2a565b80601f01602080910402602001604051908101604052809291908181526020018280546105af90611b2a565b80156105fc5780601f106105d1576101008083540402835291602001916105fc565b820191906000526020600020905b8154815290600101906020018083116105df57829003601f168201915b5050505050908060050154908060060154908060070160009054906101000a900460ff16905088565b82600073ffffffffffffffffffffffffffffffffffffffff166001600083815260200190815260200160002060000160009054906101000a900473ffffffffffffffffffffffffffffffffffffffff1673ffffffffffffffffffffffffffffffffffffffff16036106cb576040517f08c379a00000000000000000000000000000000000000000000000000000000081526004016106c29061186d565b60405180910390fd5b83600060028111156106e0576106df6114f8565b5b6001600083815260200190815260200160002060070160009054906101000a900460ff166002811115610716576107156114f8565b5b14610756576040517f08c379a000000000000000000000000000000000000000000000000000000000815260040161074d906118d9565b60405180910390fd5b600085338660405160200161076d93929190611e74565b604051602081830303815290604052805190602001209050600061079082610e6c565b905061079c8186610ea2565b73ffffffffffffffffffffffffffffffffffffffff1660008054906101000a900473ffffffffffffffffffffffffffffffffffffffff1673ffffffffffffffffffffffffffffffffffffffff1614610829576040517f08c379a000000000000000000000000000000000000000000000000000000000815260040161082090611efd565b60405180910390fd5b60006001600089815260200190815260200160002090508060020160009054906101000a900473ffffffffffffffffffffffffffffffffffffffff1673ffffffffffffffffffffffffffffffffffffffff1663a9059cbb8260000160009054906101000a900473ffffffffffffffffffffffffffffffffffffffff1683600301546040518363ffffffff1660e01b81526004016108c7929190611a24565b6020604051808303816000875af11580156108e6573d6000803e3d6000fd5b505050506040513d601f19601f8201168201806040525081019061090a9190611a62565b610949576040517f08c379a000000000000000000000000000000000000000000000000000000000815260040161094090611f69565b60405180910390fd5b60028160070160006101000a81548160ff02191690836002811115610971576109706114f8565b5b02179055508060000160009054906101000a900473ffffffffffffffffffffffffffffffffffffffff1673ffffffffffffffffffffffffffffffffffffffff16887fce1fbacea7f745c89680bdb99975ce1e5f6a7381689e57cc3662f45bbd341a9483600301546040516109e59190611dcf565b60405180910390a35050505050505050565b8473ffffffffffffffffffffffffffffffffffffffff163373ffffffffffffffffffffffffffffffffffffffff1603610a65576040517f08c379a0000000000000000000000000000000000000000000000000000000008152600401610a5c90611fd5565b60405180910390fd5b600081610a7c57610a77878733610ec9565b610a88565b610a87873388610ec9565b5b9050600073ffffffffffffffffffffffffffffffffffffffff166001600083815260200190815260200160002060000160009054906101000a900473ffffffffffffffffffffffffffffffffffffffff1673ffffffffffffffffffffffffffffffffffffffff1614610b2f576040517f08c379a0000000000000000000000000000000000000000000000000000000008152600401610b2690612041565b60405180910390fd5b6040518061010001604052803373ffffffffffffffffffffffffffffffffffffffff1681526020018773ffffffffffffffffffffffffffffffffffffffff1681526020018673ffffffffffffffffffffffffffffffffffffffff1681526020018581526020016040518060200160405280600081525081526020018481526020016201518042610bbf9190612090565b815260200160006002811115610bd857610bd76114f8565b5b8152506001600083815260200190815260200160002060008201518160000160006101000a81548173ffffffffffffffffffffffffffffffffffffffff021916908373ffffffffffffffffffffffffffffffffffffffff16021790555060208201518160010160006101000a81548173ffffffffffffffffffffffffffffffffffffffff021916908373ffffffffffffffffffffffffffffffffffffffff16021790555060408201518160020160006101000a81548173ffffffffffffffffffffffffffffffffffffffff021916908373ffffffffffffffffffffffffffffffffffffffff160217905550606082015181600301556080820151816004019081610ce29190611cfd565b5060a0820151816005015560c0820151816006015560e08201518160070160006101000a81548160ff02191690836002811115610d2257610d216114f8565b5b02179055509050506001600082815260200190815260200160002060020160009054906101000a900473ffffffffffffffffffffffffffffffffffffffff1673ffffffffffffffffffffffffffffffffffffffff166323b872dd3330876040518463ffffffff1660e01b8152600401610d9d939291906120c4565b6020604051808303816000875af1158015610dbc573d6000803e3d6000fd5b505050506040513d601f19601f82011682018060405250810190610de09190611a62565b610e1f576040517f08c379a0000000000000000000000000000000000000000000000000000000008152600401610e1690612147565b60405180910390fd5b3373ffffffffffffffffffffffffffffffffffffffff16817f597868596d6ce2373d6cca48fc876374194d4e581dee04262121463a33fa35d960405160405180910390a350505050505050565b60007f19457468657265756d205369676e6564204d6573736167653a0a33320000000060005281601c52603c6000209050919050565b6000806000610eb18585610eff565b91509150610ebe81610f50565b819250505092915050565b6000838383604051602001610ee093929190612167565b6040516020818303038152906040528051906020012090509392505050565b6000806041835103610f405760008060006020860151925060408601519150606086015160001a9050610f34878285856110b6565b94509450505050610f49565b60006002915091505b9250929050565b60006004811115610f6457610f636114f8565b5b816004811115610f7757610f766114f8565b5b03156110b35760016004811115610f9157610f906114f8565b5b816004811115610fa457610fa36114f8565b5b03610fe4576040517f08c379a0000000000000000000000000000000000000000000000000000000008152600401610fdb906121f0565b60405180910390fd5b60026004811115610ff857610ff76114f8565b5b81600481111561100b5761100a6114f8565b5b0361104b576040517f08c379a00000000000000000000000000000000000000000000000000000000081526004016110429061225c565b60405180910390fd5b6003600481111561105f5761105e6114f8565b5b816004811115611072576110716114f8565b5b036110b2576040517f08c379a00000000000000000000000000000000000000000000000000000000081526004016110a9906122ee565b60405180910390fd5b5b50565b6000807f7fffffffffffffffffffffffffffffff5d576e7357a4501ddfe92f46681b20a08360001c11156110f157600060039150915061118f565b600060018787878760405160008152602001604052604051611116949392919061232a565b6020604051602081039080840390855afa158015611138573d6000803e3d6000fd5b505050602060405103519050600073ffffffffffffffffffffffffffffffffffffffff168173ffffffffffffffffffffffffffffffffffffffff16036111865760006001925092505061118f565b80600092509250505b94509492505050565b6000604051905090565b600080fd5b600080fd5b6000819050919050565b6111bf816111ac565b81146111ca57600080fd5b50565b6000813590506111dc816111b6565b92915050565b600080fd5b600080fd5b6000601f19601f8301169050919050565b7f4e487b7100000000000000000000000000000000000000000000000000000000600052604160045260246000fd5b611235826111ec565b810181811067ffffffffffffffff82111715611254576112536111fd565b5b80604052505050565b6000611267611198565b9050611273828261122c565b919050565b600067ffffffffffffffff821115611293576112926111fd565b5b61129c826111ec565b9050602081019050919050565b82818337600083830152505050565b60006112cb6112c684611278565b61125d565b9050828152602081018484840111156112e7576112e66111e7565b5b6112f28482856112a9565b509392505050565b600082601f83011261130f5761130e6111e2565b5b813561131f8482602086016112b8565b91505092915050565b6000806040838503121561133f5761133e6111a2565b5b600061134d858286016111cd565b925050602083013567ffffffffffffffff81111561136e5761136d6111a7565b5b61137a858286016112fa565b9150509250929050565b60006020828403121561139a576113996111a2565b5b60006113a8848285016111cd565b91505092915050565b600073ffffffffffffffffffffffffffffffffffffffff82169050919050565b60006113dc826113b1565b9050919050565b6113ec816113d1565b82525050565b6000819050919050565b600061141761141261140d846113b1565b6113f2565b6113b1565b9050919050565b6000611429826113fc565b9050919050565b600061143b8261141e565b9050919050565b61144b81611430565b82525050565b6000819050919050565b61146481611451565b82525050565b600081519050919050565b600082825260208201905092915050565b60005b838110156114a4578082015181840152602081019050611489565b60008484015250505050565b60006114bb8261146a565b6114c58185611475565b93506114d5818560208601611486565b6114de816111ec565b840191505092915050565b6114f2816111ac565b82525050565b7f4e487b7100000000000000000000000000000000000000000000000000000000600052602160045260246000fd5b60038110611538576115376114f8565b5b50565b600081905061154982611527565b919050565b60006115598261153b565b9050919050565b6115698161154e565b82525050565b600061010082019050611585600083018b6113e3565b611592602083018a6113e3565b61159f6040830189611442565b6115ac606083018861145b565b81810360808301526115be81876114b0565b90506115cd60a08301866114e9565b6115da60c083018561145b565b6115e760e0830184611560565b9998505050505050505050565b6115fd81611451565b811461160857600080fd5b50565b60008135905061161a816115f4565b92915050565b600067ffffffffffffffff82111561163b5761163a6111fd565b5b611644826111ec565b9050602081019050919050565b600061166461165f84611620565b61125d565b9050828152602081018484840111156116805761167f6111e7565b5b61168b8482856112a9565b509392505050565b600082601f8301126116a8576116a76111e2565b5b81356116b8848260208601611651565b91505092915050565b6000806000606084860312156116da576116d96111a2565b5b60006116e8868287016111cd565b93505060206116f98682870161160b565b925050604084013567ffffffffffffffff81111561171a576117196111a7565b5b61172686828701611693565b9150509250925092565b611739816113d1565b811461174457600080fd5b50565b60008135905061175681611730565b92915050565b60008115159050919050565b6117718161175c565b811461177c57600080fd5b50565b60008135905061178e81611768565b92915050565b60008060008060008060c087890312156117b1576117b06111a2565b5b60006117bf89828a016111cd565b96505060206117d089828a01611747565b95505060406117e189828a01611747565b94505060606117f289828a0161160b565b935050608061180389828a016111cd565b92505060a061181489828a0161177f565b9150509295509295509295565b7f54686973206f7264657220646f65736e27742065786973747300000000000000600082015250565b6000611857601983611475565b915061186282611821565b602082019050919050565b600060208201905081810360008301526118868161184a565b9050919050565b7f54686973207472616e73616374696f6e20686173206265656e20646f6e650000600082015250565b60006118c3601e83611475565b91506118ce8261188d565b602082019050919050565b600060208201905081810360008301526118f2816118b6565b9050919050565b7f4f6e6c792072656365697665722063616e207769746864726177000000000000600082015250565b600061192f601a83611475565b915061193a826118f9565b602082019050919050565b6000602082019050818103600083015261195e81611922565b9050919050565b600081905092915050565b600061197b8261146a565b6119858185611965565b9350611995818560208601611486565b80840191505092915050565b60006119ad8284611970565b915081905092915050565b7f496e636f7272656374206b657900000000000000000000000000000000000000600082015250565b60006119ee600d83611475565b91506119f9826119b8565b602082019050919050565b60006020820190508181036000830152611a1d816119e1565b9050919050565b6000604082019050611a3960008301856113e3565b611a46602083018461145b565b9392505050565b600081519050611a5c81611768565b92915050565b600060208284031215611a7857611a776111a2565b5b6000611a8684828501611a4d565b91505092915050565b7f5769746864726177206661696c65640000000000000000000000000000000000600082015250565b6000611ac5600f83611475565b9150611ad082611a8f565b602082019050919050565b60006020820190508181036000830152611af481611ab8565b9050919050565b7f4e487b7100000000000000000000000000000000000000000000000000000000600052602260045260246000fd5b60006002820490506001821680611b4257607f821691505b602082108103611b5557611b54611afb565b5b50919050565b60008190508160005260206000209050919050565b60006020601f8301049050919050565b600082821b905092915050565b600060088302611bbd7fffffffffffffffffffffffffffffffffffffffffffffffffffffffffffffffff82611b80565b611bc78683611b80565b95508019841693508086168417925050509392505050565b6000611bfa611bf5611bf084611451565b6113f2565b611451565b9050919050565b6000819050919050565b611c1483611bdf565b611c28611c2082611c01565b848454611b8d565b825550505050565b600090565b611c3d611c30565b611c48818484611c0b565b505050565b5b81811015611c6c57611c61600082611c35565b600181019050611c4e565b5050565b601f821115611cb157611c8281611b5b565b611c8b84611b70565b81016020851015611c9a578190505b611cae611ca685611b70565b830182611c4d565b50505b505050565b600082821c905092915050565b6000611cd460001984600802611cb6565b1980831691505092915050565b6000611ced8383611cc3565b9150826002028217905092915050565b611d068261146a565b67ffffffffffffffff811115611d1f57611d1e6111fd565b5b611d298254611b2a565b611d34828285611c70565b600060209050601f831160018114611d675760008415611d55578287015190505b611d5f8582611ce1565b865550611dc7565b601f198416611d7586611b5b565b60005b82811015611d9d57848901518255600182019150602085019450602081019050611d78565b86831015611dba5784890151611db6601f891682611cc3565b8355505b6001600288020188555050505b505050505050565b6000602082019050611de4600083018461145b565b92915050565b6000819050919050565b611e05611e00826111ac565b611dea565b82525050565b60008160601b9050919050565b6000611e2382611e0b565b9050919050565b6000611e3582611e18565b9050919050565b611e4d611e48826113d1565b611e2a565b82525050565b6000819050919050565b611e6e611e6982611451565b611e53565b82525050565b6000611e808286611df4565b602082019150611e908285611e3c565b601482019150611ea08284611e5d565b602082019150819050949350505050565b7f496e76616c6964207369676e6174757265000000000000000000000000000000600082015250565b6000611ee7601183611475565b9150611ef282611eb1565b602082019050919050565b60006020820190508181036000830152611f1681611eda565b9050919050565b7f526566756e64206661696c656400000000000000000000000000000000000000600082015250565b6000611f53600d83611475565b9150611f5e82611f1d565b602082019050919050565b60006020820190508181036000830152611f8281611f46565b9050919050565b7f5472616e73616374696f6e20696e76616c696400000000000000000000000000600082015250565b6000611fbf601383611475565b9150611fca82611f89565b602082019050919050565b60006020820190508181036000830152611fee81611fb2565b9050919050565b7f447570706c6963617465206f7264657220627920494400000000000000000000600082015250565b600061202b601683611475565b915061203682611ff5565b602082019050919050565b6000602082019050818103600083015261205a8161201e565b9050919050565b7f4e487b7100000000000000000000000000000000000000000000000000000000600052601160045260246000fd5b600061209b82611451565b91506120a683611451565b92508282019050808211156120be576120bd612061565b5b92915050565b60006060820190506120d960008301866113e3565b6120e660208301856113e3565b6120f3604083018461145b565b949350505050565b7f5472616e7366657220746f20636f6e7472616374206661696c65640000000000600082015250565b6000612131601b83611475565b915061213c826120fb565b602082019050919050565b6000602082019050818103600083015261216081612124565b9050919050565b60006121738286611df4565b6020820191506121838285611e3c565b6014820191506121938284611e3c565b601482019150819050949350505050565b7f45434453413a20696e76616c6964207369676e61747572650000000000000000600082015250565b60006121da601883611475565b91506121e5826121a4565b602082019050919050565b60006020820190508181036000830152612209816121cd565b9050919050565b7f45434453413a20696e76616c6964207369676e6174757265206c656e67746800600082015250565b6000612246601f83611475565b915061225182612210565b602082019050919050565b6000602082019050818103600083015261227581612239565b9050919050565b7f45434453413a20696e76616c6964207369676e6174757265202773272076616c60008201527f7565000000000000000000000000000000000000000000000000000000000000602082015250565b60006122d8602283611475565b91506122e38261227c565b604082019050919050565b60006020820190508181036000830152612307816122cb565b9050919050565b600060ff82169050919050565b6123248161230e565b82525050565b600060808201905061233f60008301876114e9565b61234c602083018661231b565b61235960408301856114e9565b61236660608301846114e9565b9594505050505056fea2646970667358221220c7abf5d0fb8f61cb603a6badf90d7b1392eef04cb33a5ef3eb6cd650e7056b7464736f6c63430008120033",
  "linkReferences": {},
  "deployedLinkReferences": {}
}